:020000040800F2
:10000000C80F0020650200086D0200086F0200089A
:100010007102000873020008750200080000000069
:10002000000000000000000000000000770200084F
:1000300079020008000000007B02000891300008EF
:100040007F0200087F0200087F0200087F0200088C
:100050007F0200087F0200087F0200087F0200087C
:100060007F0200087F0200087F0200087F0200086C
:100070007F0200087F0200087F0200087F0200085C
:100080007F0200087F0200087F02000800000000D5
:1000900000000000000000000000000081120008C5
:1000A0007F0200087F0200087F0200087F0200082C
:1000B000053200087F0200087F0200087F02000866
:1000C0007F0200087F0200087F0200087F0200080C
:1000D0007F0200087F0200088D3700080000000042
:1000E0007F0200087F0200087F0200080000000075
:1000F0000000000000000000000000007F02000877
:10010000000000007F0200087F0200087F02000854
:1001100000000000000000000000000000000000DF
:100120007F0200087F0200087F0200087F020008AB
:100130007F02000800000000000000000000000036
:100140000000000000000000000000007F02000826
:100150007F0200087F0200087F0200087F0200087B
:100160007F0200087F02000800000000000000007D
:10017000000000000000000000000000000000007F
:10018000000000007F0200080000000000000000E6
:100190007F02000800F002F800F054F80AA090E88E
:1001A000000C82448344AAF10107DA4501D100F032
:1001B00049F8AFF2090EBAE80F0013F0010F18BFAB
:1001C000FB1A43F0010318471C4800003C4800009C
:1001D000103A24BF78C878C1FAD8520724BF30C873
:1001E00030C144BF04680C60704700000023002445
:1001F00000250026103A28BF78C1FBD8520728BF37
:1002000030C148BF0B607047642900F0EB8178294A
:1002100000F02482732900F04E85002070471FB53E
:1002200004F080FB9DE8030000F086FC00F046FE31
:1002300004000020002104F05FFB401C60601FBD33
:1002400010B510BD00F015FE1146FFF7E8FF03F0F2
:100250004FFD00F045FE03B4FFF7F2FF03BC00F0D2
:1002600045FC00000948804709480047FEE7FEE7D3
:10027000FEE7FEE7FEE7FEE7FEE7FEE7FEE7FEE756
:1002800004480549054A064B70470000A1310008A3
:1002900095010008C8090020C80F0020C80B0020E5
:1002A000C80B002070B5064600F026FC056806F174
:1002B0000B0020F00704B4429CBF002070BD2B4609
:1002C0006A68BAB11068A04210D304F108018842EC
:1002D0003CBF5068586007D35168101941601168DD
:1002E000091B016058601460101D70BD13465268F0
:1002F000002AE7D12146284600F00AFC0028DED17A
:1003000070BD70B50446051F00F0F6FB0068002CB8
:1003100014BF446870BD002C18BFAC423CBF2046DF
:100320006468F8D301680A18AA4218BF456003D16F
:100330002A6805461144016028684119A1421CBF82
:100340006C6070BD6168696021680844286070BD98
:1003500070B50D460646041F00F0CEFBD0F800C075
:10036000C5B1E6B105F10B0020F00703AB423CBF7D
:10037000002070BD2068984238BFDCF8042013D3F9
:10038000C11A08292FD3E01840F8041B2360FFF797
:10039000B8FF28E03046FFF7B4FF002070BD2846C4
:1003A000BDE87040FFF77EBF002A18BFA2423CBFE5
:1003B00094465268F8D30119914216D11168084445
:1003C000984212D3C11A08293CBF2060506808D354
:1003D0005168E0184160216812681144C91A01602F
:1003E0002360CCF80400201D70BD181FFFF75AFFD2
:1003F000050007D021680A1F211D00F0AFFA201D5B
:10040000FFF77FFF284670BD53EA020C00F06980B9
:100410002DE9F04B4FF00006002B1FBFB3FA83F518
:1004200003FA05F424FA05F65E4012BF1643B2FA49
:1004300082F502FA05F4C5F120051EBF22FA05FC7B
:1004400044EA0C04203556EA044C4FEA144418BF21
:10045000641C4FF000084FF00009904271EB030C50
:1004600039D3002919BFB1FA81F701FA07F6B0FABA
:1004700080F700FA07F6C7F120071EBF20FA07FC35
:1004800046EA0C062037B6FBF4FCA7EB0507103F45
:1004900007F01F0BCBF120060CFA0BFB2CFA06F62B
:1004A00044BFB3460026202FA4BF5E464FF0000B8A
:1004B0005BEA060C08BF4FF0010B19EB0B09ABFB15
:1004C000027C48EB0608C01B06FB02CC0BFB03CCEE
:1004D00071EB0C01C1E70B46024641464846BDE8B8
:1004E000F08B13B54FF000004FF00001AFF3008028
:1004F000BDE81C40704700000FB41CB5074B06AAAE
:100500007B4469460090059800F0ABFB00206946EB
:1005100000F0BAFB1CBC5DF814FB0000850700006E
:1005200070B5044685690068C10601D5302600E033
:100530002026C00707D070BDD4E90121304690477E
:10054000206A401C20626D1EF6D570BD70B5044651
:1005500085690078C00707D170BDD4E9012120204A
:100560009047206A401C20626D1EF6D570BD096858
:100570004A0501D540B27047C905FCD500B27047A5
:1005800009684A0501D5C0B27047C905FCD580B2DB
:10059000704770B50C460546012A05D028788006BC
:1005A00000D5EA69002302E0012305E05B1C9342C9
:1005B00002D2E05C0028F9D1A869E618C01AA86147
:1005C000286A184428622846FFF7AAFF04E0D5E904
:1005D000012114F8010B9047B442F8D32846FFF7E5
:1005E000B5FF70BD2DE9F04106460024106875295D
:1005F000314616A510D0FFF7BAFF002802DA4042B4
:1006000013A507E031688A0701D512A502E0490762
:1006100004D511A5012401E0FFF7B2FF00210A2251
:1006200006F1240709E0B0FBF2FCB0FBF2F302FB99
:100630001C00303078541846491C0028F3D123465A
:100640002A463046BDE8F04100F0ACBA0000000098
:100650002D0000002B0000002000000070B50446B3
:100660000D4621461068FFF78BFF2188090502D54A
:100670000F4A7A4402E00E4A7A440E32002104F115
:10068000240305E000F00F060009965D5E54491C46
:100690000028F7D120780023000704D5702D02D060
:1006A00009B1022311322046BDE8704000F07ABA49
:1006B000D84200002DE9F0474FF0000A8946044671
:1006C000C0F820A02046E1688847002876D0252879
:1006D00006D0D4E901219047206A401C2062F1E74E
:1006E000E168204600268847C4F81CA0054600277C
:1006F000C4F818A02A2D09D0284603F0C5F838B34D
:1007000004EB8708303DC8F8185019E059F8041B6D
:10071000204604EB87029161E1688847012F054676
:1007200018D1E069002820DA26F020061DE0D8F86C
:10073000180000EB800005EB40003038C8F81800C6
:100740002046E1688847054603F09EF80028EED170
:10075000012F0AD02E2D08D12046E16888477F1C42
:100760000546022F46F02006C4DBA069002803DA04
:10077000404246F00106A061F00701D026F01006C5
:100780006C2D0AD0682D08D04C2D39D06A2D35D06B
:10079000742D35D07A2D33D016E0E1682F462046EF
:1007A0008847B84205460AD16C2F27D04FF48060A5
:1007B000E168064320468847054605E027E06C2FA0
:1007C0001AD04FF4807006430DB3A5F141001928EB
:1007D00002D8203546F400664A462946204626605F
:1007E0004E46FFF711FD80B101280BD0F61D26F013
:1007F000070000F1080965E74020E4E78020D7E71B
:100800000020D5E706F104095CE7284661E7206A85
:10081000BDE8F08770B5064600F072F90468054639
:1008200030460A22002100F04AFA2C6070BD10B553
:10083000002000F07CFAFFF703FDBDE81040012026
:1008400000F054B9401ECAB210F8011F8A4202D00B
:100850000029F9D10020704710B5431E13F8014F4D
:10086000002CFBD105E011F8014B002C03F8014BE3
:1008700003D0521EF7D20021197010BD10B5431CD1
:1008800002E010F8011B71B18107FAD14FF001327B
:1008900002C88C1A8C4314EAC211F9D0C01A0A0695
:1008A00003D0C01E10BDC01A10BD0A0401D0801EA6
:1008B00010BD0902FCD0401E10BD421E12F8013FBF
:1008C000002BFBD111F8013B002B02F8013BF9D1C1
:1008D0007047032A40F2308010F0030C00F01580BE
:1008E00011F8013BBCF1020F624498BF11F801CB33
:1008F00000F8013B38BF11F8013BA2F1040298BF98
:1009000000F801CB38BF00F8013B11F0030300F001
:100910002580083AC0F0088051F8043B083A51F8A5
:1009200004CBA0E80810F5E7121D5CBF51F8043BAA
:1009300040F8043BAFF30080D20724BF11F8013B1D
:1009400011F801CB48BF11F8012B24BF00F8013B7F
:1009500000F801CB48BF00F8012B704710B5203AD2
:10096000C0F00B80B1E81850203AA0E81850B1E868
:100970001850A0E81850BFF4F5AF5FEA027C24BF1E
:10098000B1E81850A0E8185044BF18C918C0BDE815
:1009900010405FEA827C24BF51F8043B40F8043BDE
:1009A00008BF7047D20728BF31F8023B48BF11F893
:1009B000012B28BF20F8023B48BF00F8012B7047ED
:1009C00002F0FF0343EA032242EA024200F002B8C7
:1009D0004FF000020429C0F0128010F0030C00F068
:1009E0001B80CCF1040CBCF1020F18BF00F8012BE6
:1009F000A8BF20F8022BA1EB0C0100F00DB85FEAB4
:100A0000C17C24BF00F8012B00F8012B48BF00F87F
:100A1000012B70474FF0000200B5134694469646EE
:100A2000203922BFA0E80C50A0E80C50B1F1200101
:100A3000BFF4F7AF090728BFA0E80C5048BF0CC0AF
:100A40005DF804EB890028BF40F8042B08BF70470D
:100A500048BF20F8022B11F0804F18BF00F8012B7F
:100A6000704700004FF0013C50F8042B51F8043B54
:100A70009A4221D1A2EB0C03934313EACC1317D172
:100A800050F8042B51F8043B9A4215D1A2EB0C0309
:100A9000934313EACC130BD150F8042B51F8043BC9
:100AA0009A4209D1A2EB0C03934313EACC13DBD097
:100AB0004FF00000704700BFD01A01BAB1FA81F1BF
:100AC00001F0180122FA01F0CB40C1F12001DBB2A4
:100AD000C0B2C01A2CFA01F3D11A914311EAC31122
:100AE000E6D17047704770477047000001491820F1
:100AF000ABBEFEE726000200004870476C090020EC
:100B0000004870476409002070477047704770477D
:100B100038B504460A4600206946AFF30080002835
:100B200008BF38BD02460099204600F015F90120A3
:100B300038BD012000F096B9F8B5AFF30080054646
:100B400000200C46102000BF0646A819A0420DD96F
:100B5000324669460020AFF30080070008BF00F06E
:100B600081F90098A04218BF0546C419FFF7C4FFD9
:100B700005600746F01D20F007004619284600F0E2
:100B80000AF8B44208BFF8BDA21B31463868BDE878
:100B9000F84000F0E1B800210160C0E901107047A1
:100BA000102070472DE9F0470D46994692460446BD
:100BB00000F124080168880604D5E06921F01001DD
:100BC000216000E00120A84201DD471B00E0002772
:100BD000A1697A1902EB0900081AA0612078C00601
:100BE00002D42046FFF79CFC002608E0D4E901214E
:100BF0001AF806009047206A401C761C20624E4579
:100C0000F4DB2078C0060AD52046FFF789FC06E011
:100C1000D4E9012130209047206A401C2062381E10
:100C2000A7F10107F4DC07E0D4E9012118F8050079
:100C30009047206A401C2062281EA5F10105F3DCC4
:100C40002046FFF783FC2078000602D50220BDE88D
:100C5000F0870120FBE7000001694A1C0261087867
:100C6000704700B58FB0CDE90131002105910549EC
:100C70007944CDE9031011466846FFF71BFD0FB01C
:100C800000BD0000E5FFFFFF0A6802F8010B0A60E3
:100C9000704710B5436913B1AFF3008001E0FFF76F
:100CA00078FC012010BD127800F124010A700022A6
:100CB0004A700122EDE711684FF0FF32E9E72DE9B4
:100CC000F04791460F4680460446002614F8015B23
:100CD0002DB100F039F80068405DC007F6D12B2D2A
:100CE00002D02D2D18D0641E4A463946204600F009
:100CF0004DF827B13968A14201D1C7F800804FF003
:100D0000020471050BD54042002803DDFFF7F8FE11
:100D10000460A007BDE8F08746F48066E4E7002899
:100D2000F8DAFFF7EDFE04606FF00040F2E710B56F
:100D300000F080F8BDE8104000F077B80048704738
:100D4000640900207047000010B500F0B7F8001DDE
:100D500010BD00BFA53B0000034640688C4600283C
:100D600018BF88423CBF03464068F8D3186818444F
:100D7000884207D00CF1030020F00700001D411A43
:100D8000521A0146081D0A60FFF7BBBA2DE9F05F51
:100D9000824615468B4600270AF10104B9460078C1
:100DA000302801D09DB113E014F8010B01277828F9
:100DB00003D0582801D045B10AE00DB1102D07D15C
:100DC000002714F8010B102502E0082500E00A2591
:100DD0000026B0460EE005FB080005FB06F10127E2
:100DE0001FFA80F801EB1046B6F5803F00D3B946F4
:100DF00014F8010B294600F065F80028EBDABBF186
:100E0000000F05D00FB1641E00E05446CBF800403F
:100E1000B9F1000F06D0FFF773FE02210160C81E72
:100E2000BDE8F09F48EA0640FAE7002801D0FFF746
:100E30005DBE704710B5002102A000F05AF80120F5
:100E400010BD0000534947414252543A2041626E5E
:100E50006F726D616C207465726D696E6174696F1B
:100E60006E00000010B500F05DF8BDE81040FFF71F
:100E7000DCBF7546FFF762FFAE4605006946534684
:100E800020F00700854618B020B5FFF7F9F9BDE856
:100E900020404FF000064FF000074FF000084FF0E1
:100EA000000B21F00701AC46ACE8C009ACE8C00972
:100EB000ACE8C009ACE8C0098D46704700487047EF
:100EC000840900203A2800D2303820F02002412A3C
:100ED00001D3A2F13700884201D34FF0FF307047B1
:100EE00010B50446AFF300802046BDE81040FFF780
:100EF000B2B970B505460C460A2000E06D1C00F042
:100F000039F835B128780028F8D102E0641C00F0E7
:100F100031F814B120780028F8D1BDE870400A20DB
:100F200000F028B810B5012805D0002103A0FFF774
:100F3000E0FF012010BD09A1F8E700005349475226
:100F4000544D454D3A204F7574206F662068656199
:100F500070206D656D6F7279000000003A20486561
:100F60006170206D656D6F727920636F727275703C
:100F70007465640008B569468DF800000320ABBEB7
:100F800008BD70B50546AC6B206C00F0500050BB3E
:100F9000206C40F4007020642068806800F04050AD
:100FA000E8B9A069D8B92068C06A00F4700020B11F
:100FB0002068806800F4806088B92068406820F06C
:100FC000200021684860206C20F480702064206C30
:100FD00000F4805018B9206C40F0010020642046D5
:100FE00000F0C0FB03E0A06BC16C2846884770BDD1
:100FF00070B50546AC6B40202064606C40F0040086
:101000006064204600F0B0FB70BD70B50446A56B6F
:10101000284600F0A8FB70BD54494A6822F44032CB
:101020004A604A6843681A434A600268526822F478
:10103000807203685A6002685368026943EA0222B8
:1010400003685A600268526822F0407203685A606E
:101050000268526883681A4303685A60026892689B
:1010600022F4006203689A6002689268C3681A43B7
:1010700003689A603E4B826A9A4218D0026892686E
:1010800022F0706203689A6002689268836A1A4369
:1010900003689A600268926822F0405203689A607E
:1010A00002689268C36A1A4303689A600BE0026898
:1010B000926822F0706203689A600268926822F077
:1010C000405203689A600268926822F00202036844
:1010D0009A6002689368826943EA420203689A60F0
:1010E000026AA2B10268526842F4006203685A6060
:1010F0000268526822F4604203685A6002685368CA
:10110000426A521E43EA423203685A6005E00268AE
:10111000526822F4006203685A600268D26A22F4BC
:1011200070020368DA620268D36A828B521E43EA55
:1011300002520368DA620268926822F4007203685D
:101140009A6002689368026B43EA422203689A60DD
:101150000268926822F4806203689A600268936869
:10116000426943EA822203689A6070470023014083
:101170000100000F0146087810381823B0FBF3F285
:101180000848805CC865032A05D908686FF3090020
:10119000001D886503E008686FF309008865886DA5
:1011A0007047000046490008014600208A6A8B69A2
:1011B000CBB932B1012A0DD0022A03D0032A10D1B3
:1011C0000EE000BFCB6A03F08073B3F1807F00D1E3
:1011D000012007E0CB6AB3F1C07F00D1012001E01C
:1011E00000E000BF34E08B69B3F5005F1AD132B183
:1011F000012A07D0022A03D0032A11D10AE000BF36
:1012000001200EE0CB6A03F08073B3F1807F00D140
:10121000012006E0CB6AB3F1C07F00D1012000E0DD
:1012200000BF15E032B1012A05D0022A04D0032AFA
:101230000CD103E000BF00BF012008E0CB6A03F03F
:101240008073B3F1807F00D1012000E000BF00BFB8
:10125000704730B50468246824F4802405682C6045
:10126000046863608468402C04D10468A260046848
:10127000E16003E00468A1600468E26030BD000042
:1012800010B586B04FF480700F490860142101A892
:10129000FFF7C0FB02F0CCFC0C490968441A224657
:1012A0000BA101A8FFF728F902F0C2FC074908606A
:1012B00001A8FFF7E3FA84B20122214601A803F056
:1012C00025F806B010BD0000143C01406800002065
:1012D00064617461207265616479206174202564A1
:1012E0006D7300002DE9F047AAB006460C46042EA7
:1012F00001DC022E07DA0122072158A003F006F8CC
:101300002AB0BDE8F0874FF00008C1460127BA4671
:10131000012527E054F8250052A1FFF7A3FB10B9DF
:101320004FF001081CE054F8250050A1FFF79AFB8C
:1013300018B94FF00108002712E054F825004DA11C
:10134000FFF790FB10B94FF0010909E054F82500B0
:101350004BA1FFF787FB18B94FF001094FF0000AC6
:10136000681CC5B2B542D5DB642111A8FFF752FB5A
:1013700011A82168FFF7A1FA342104A8FFF74AFB5E
:10138000B8F1000F45D000200290039002A902F0AE
:1013900055FC5FB1BDF90C000090BDF90A30BDF9F4
:1013A00008203AA104A8FFF7A7F80AE0BDF90C004D
:1013B0000090BDF90A30BDF908203BA104A8FFF751
:1013C0009BF804A911A8FFF778FA00200290039077
:1013D00002A9012002F032FC5FB1BDF90C000090BF
:1013E000BDF90A30BDF9082036A104A8FFF784F83A
:1013F0000AE0BDF90C000090BDF90A30BDF90820E3
:1014000037A104A8FFF778F804A911A8FFF755FA47
:1014100000BFB9F1000F15D002F02EFC0546BAF15D
:10142000000F05D02A4635A104A8FFF765F804E0AF
:101430002A4635A104A8FFF75FF804A911A8FFF711
:101440003CFA00BF11A8FFF719FA85B2002229461D
:1014500011A802F05BFF00BF52E700004152474372
:10146000455252004D454D53484558004D454D534A
:101470004445430053484F434B4845580000000043
:1014800053484F434B444543000000002C47583A13
:10149000253468582C47593A253468582C475A3A0D
:1014A00025346858000000002C47583A25366864F7
:1014B0002C47593A253668642C475A3A25366864D1
:1014C000000000002C41583A253468582C41593A04
:1014D000253468582C415A3A2534685800000000D9
:1014E0002C41583A253668642C41593A25366864AF
:1014F0002C415A3A25366864000000002C53484FAE
:10150000434B3A25580000002C53484F434B3A2593
:101510006400000070B594B006460C465021684641
:10152000FFF778FA68462168FFF7C7F9012527E039
:1015300054F8250019A1FFF795FA80B919A168465A
:10154000FFF7BBF902F034FC20B117A16846FFF7A2
:10155000B4F913E018A16846FFF7AFF90EE054F8AC
:1015600025001AA1FFF77EFA40B90EA16846FFF7E1
:10157000A4F9184801686846FFF79FF9681CC5B2CE
:10158000B542D5DB6846FFF779F985B200222946D6
:10159000684602F0BBFE14B070BD00004D454D53CF
:1015A000000000002C0000004D454D535F415641A6
:1015B000494C41424C4500004D454D535F4E4F5400
:1015C0005F415641494C41424C45000056455253FB
:1015D000494F4E000800002038B502460020009018
:1015E00000BF92F83C00012801D1022038BD012043
:1015F00082F83C0000BF0868092816D91068C06846
:101600000C780A3C04EB44050724AC40A043146862
:10161000E0600C780A3C04EB44048868A04014683D
:10162000E46820431468E06013E0106800690C78F7
:1016300004EB44050724AC40A043146820610C78F7
:1016400004EB44048868A0401468246920431468AB
:1016500020614868072817D21068406B0C79641E17
:1016600004EB84051F24AC40A04314686063088821
:1016700080B20C79641E04EB8404A0401468646B8F
:1016800020431468606331E048680D2817D2106861
:10169000006B0C79E41F04EB84051F24AC40A043CD
:1016A00014682063088880B20C79E41F04EB84047A
:1016B000A0401468246B20431468206316E010686F
:1016C000C06A0C790D3C04EB84051F24AC40A04398
:1016D0001468E062088880B20C790D3C04EB840445
:1016E000A0401468E46A20431468E062194B1A4C65
:1016F0001068A04206D10868122803D1586840F447
:1017000080005860144C1068A0421CD10868102852
:1017100002D00868112816D1586840F400005860BB
:10172000086810280FD10D4800680D4CB0FBF4F08C
:1017300000EB80004000009002E00098401E009006
:1017400000980028F9D100BF002082F83C0000BFBB
:1017500000BF4BE7002301400020014000000020B3
:1017600040420F00704770477047000070B5044654
:1017700000250CB9012070BD1549A06A884200D02F
:1017800000BF206C30B90020606484F83C00204623
:1017900000F020F8206C00F0100088B9206C20F4D4
:1017A000885040F0020020642046FFF735FC0020FE
:1017B0006064206C20F0020040F00100206400E032
:1017C000012500BF002084F83C0000BF2846D2E776
:1017D0000100000F70470000F8B504460D4616469C
:1017E0000020009000BF94F83C00012801D10220A5
:1017F000F8BD012084F83C0000BF2068806800F03C
:101800000100A0B92068806840F00100216888606C
:101810003C4800683C49B0FBF1F000EB4000009010
:1018200002E00098401E009000980028F9D120683E
:10183000806800F00100002862D0206C40F2016155
:10184000884340F4807020642068406800F4806021
:1018500028B1206C20F4005040F480502064206CAB
:1018600000F4805020B1606C20F00600606401E05C
:101870000020606400BF002084F83C0000BF234FBC
:101880002348A16BC8632348A16B08642248A16B5D
:10189000C8646FF02200216808602068406840F04A
:1018A0008060216848602068806840F4807021680A
:1018B0008860226802F14C0133462A46A06B00F092
:1018C000FBF8786800F01F0058B92068806800F0C5
:1018D000405028B92068806840F0804021688860C6
:1018E0000EE00E49206888420AD12068806800F026
:1018F000405028B92068806840F0804021688860A6
:10190000002075E70000002040420F000023014046
:10191000830F00080B100008F10F000800200140A1
:1019200070B50446A56D00F007FA064694F8350038
:10193000022808D08020606500BF002084F83400B1
:1019400000BF012070BD2068006820F016002168EB
:1019500008602068406920F0800021684861206CA0
:1019600008B9A06C28B12068006820F00800216840
:1019700008602068006820F00100216808600FE01E
:1019800000F0DAF9801B05280AD92020606500BF25
:10199000002084F8340000BF032084F83500D1E72C
:1019A0002068006800F001000028E9D194F85C107C
:1019B0003F208840A86000BF002084F8340000BFAA
:1019C000012084F835000020BCE700002DE9F0413B
:1019D0000446002500F0B0F9074614B90120BDE81F
:1019E000F081606A00B100BF00BF002084F83400BD
:1019F00000BF022084F835002068006820F0010054
:101A0000216808600AE000F097F9C01B052805D995
:101A100020206065032084F83500E0E72068006836
:101A200000F001000028EED120680568214805403B
:101A3000D4E901010843E168084321690843616969
:101A40000843A1690843E1690843216A0843054343
:101A5000606A042803D1D4E90B01084305432068D8
:101A600005602068456925F00705606A0543606ADE
:101A700004280DD1A06A0543E06A48B12046FFF76B
:101A800093FB28B140206065012084F83500A6E76B
:101A9000206845612046FFF76DFB064694F85C1010
:101AA0003F208840B06000206065012084F8350048
:101AB000002094E73F8010F02DE9F04704460D46E2
:101AC00016461F464FF00008D4F8589000BF94F80F
:101AD0003400012802D10220BDE8F087012084F8FB
:101AE000340000BF94F8350001282BD1022084F87F
:101AF0003500002060653B46324629462046FFF708
:101B0000A8FB94F85C103F208840C9F808002068C2
:101B1000006840F01600216808602068406940F0C5
:101B2000800021684861206C28B12068006840F07E
:101B30000800216808602068006840F00100216802
:101B4000086006E000BF002084F8340000BF4FF0BA
:101B500002084046C0E70000F8B503460A460025E3
:101B6000002400200021CDE0012606FA01F51668C8
:101B700006EA0504AC4273D15668022E02D05668BC
:101B8000122E13D1CF0803F1200656F827004E0776
:101B9000F70E0F26BE40B0434F07FF0E1669BE403A
:101BA0003043CF0803F1200646F8270018684F009D
:101BB0000326BE40B043167906F003064F00BE4030
:101BC000304318605668012E08D05668022E05D0A2
:101BD0005668112E02D05668122E13D198684F0005
:101BE0000326BE40B0434F00D668BE4030439860E5
:101BF000586801268E40B0431679C6F300168E4011
:101C000030435860D8684F000326BE40B0434F00B1
:101C10009668BE403043D860566806F08056B6F1EC
:101C2000805F6ED100BF00260096384E366846F4BD
:101C30008046364F3E603E46366806F48046009643
:101C400000BF00BF324E8F0856F827008E07370FAF
:101C50000F26BE40B0432F4EB34202D1002615E0FE
:101C60004FE02D4EB34201D101260FE02B4EB3427F
:101C700001D102260AE02A4EB34201D1032605E033
:101C8000284EB34201D1042600E007268F073F0FFC
:101C9000BE4030431E4E8F0846F82700224E306863
:101CA000A043566806F48036B6F5803F00D1204345
:101CB0001D4E3060361D3068A043566806F400366D
:101CC000B6F5003F00D12043174E361D3060361D5B
:101CD0003068A043566806F48016B6F5801F00D120
:101CE0002043114E08363060361D3068A0435668D8
:101CF00006F40016B6F5001F00D120430A4E0C363C
:101D00003060491C1029FFF42FAFF8BD4438024061
:101D10000838014000000240000402400008024070
:101D2000000C024000100240003C01400AB18161F9
:101D300001E00B04836170470148006870470000B0
:101D40000400002002480068401C014908607047F8
:101D50000400002010B50D48006840F400700B49E5
:101D600008600846006840F4806008600846006823
:101D700040F480700860032000F06AF80F2000F043
:101D800007F800F019F8002010BD0000003C0240E8
:101D900070B50446074800684FF47A71B0FBF1F55E
:101DA000284600F0F0FD00222146501E00F012F8F7
:101DB000002070BD00000020704700BF00F01F022F
:101DC000012191404209920002F1E022C2F8001183
:101DD00000BF70472DE9F05F80460D46164600278C
:101DE00000F03CFF074639462A46334601F007001B
:101DF000C0F1070ABAF1040F02D94FF0040A01E05A
:101E0000C0F1070AD14600F1040ABAF1070F02D265
:101E10004FF0000A01E0A0F1030AD4464FF0010A96
:101E20000AFA09FAAAF1010A0AEA020A0AFA0CFAFB
:101E30004FF0010B0BFA0CFBABF1010B0BEA030BA0
:101E40004AEA0B042146404600F010FFBDE8F09F2F
:101E500000BF00F00702064B19684FF6FF03194058
:101E6000044B0B4343EA0221014B196000BF70474A
:101E70000CED00E00000FA0570B504460D460CB903
:101E8000012070BD5848006800F00F00A84209D238
:101E900055490D700846006800F00F00A84201D0B7
:101EA0000120EEE7207800F0020002281DD1207802
:101EB00000F00400042805D14C48006840F4E050CC
:101EC0004A490860207800F00800082805D14748F2
:101ED000006840F46040454908604448006820F0CC
:101EE000F000A168084341490860207800F0010033
:101EF000A8B36068012807D13C4808380068C0F3DF
:101F00004040B8B90120BCE76068022802D0606890
:101F1000032807D1354808380068C0F3406048B945
:101F20000120AEE7314808380068C0F3400008B926
:101F30000120A6E72D48006820F0030061680843EF
:101F40002A490860FFF7F8FE064609E0FFF7F4FEAD
:101F5000801B41F28831884202D9032091E707E0D3
:101F60002248006800F00C006168B0EB810FEDD1F1
:101F70001D48006800F00F00A84209D91A490D70E9
:101F80000846006800F00F00A84201D0012078E761
:101F9000207800F00400042807D11448006820F4D9
:101FA000E050E168084311490860207800F008001B
:101FB000082808D10D48006820F46040216940EAF3
:101FC000C1000A49086000F03DF808490968C1F3FA
:101FD0000311074A515CC840064908600F20FFF70B
:101FE000D7FE00204DE70000003C024008380240C8
:101FF0002E490008000000200148006870470000DA
:102000000000002000B5FFF7F7FF04490968C1F39D
:102010008221034A515CC84000BD000008380240DC
:102020003E49000800B5FFF7E7FF04490968C1F31E
:102030004231034A515CC84000BD000008380240EC
:102040003E4900082DE9F047002400250026A1465E
:102050002548006800F00C0020B1042805D00828AD
:102060003AD105E0DFF8849039E0DFF8809036E07F
:102070001D48001F006800F03F041B48001F006857
:1020800000F4800078B119481749091F0968C1F3A5
:102090008811A0FB01700146224600233846FEF756
:1020A000B3F905460EE011480F49091F0968C1F34D
:1020B0008811A0FB01700146224600233846FEF736
:1020C000A3F905460848001F0068C0F30140401C02
:1020D0004600B5FBF6F902E0DFF8109000BF00BF44
:1020E0004846BDE8F0870000083802400024F400AC
:1020F00038B504460CB9012038BD207800F0010045
:10210000002874D0F848006800F00C0004280DD0B6
:10211000F548006800F00C00082813D1F248001FB1
:10212000006800F48000B0F5800F0BD1EE4808384D
:102130000068C0F34040002859D06068002856D19C
:102140000120D9E700BF6068B0F5803F08D1E648BC
:102150000838006840F48030E349083908601EE020
:102160006068B0F5A02F0DD1DF480838006840F452
:102170008020DD49083908600846006840F4803056
:1021800008600CE0D8480838006820F48030D64950
:10219000083908600846006820F48020086000BF05
:1021A000606890B1FFF7C8FD054606E0FFF7C4FD83
:1021B000401B642801D903209EE7CB4808380068FB
:1021C000C0F340400028F1D011E0FFF7B5FD05460F
:1021D00006E0FFF7B1FD401B642801D903208BE71F
:1021E000C14808380068C0F340400028F1D1207889
:1021F00000F0020002285FD1BB48006800F00C002C
:1022000058B1B948006800F00C0008281CD1B64845
:10221000001F006800F48000B0B9B34808380068B7
:10222000C0F3400020B1E068012801D0012063E73D
:10223000AD480838006820F0F800216940EAC10084
:10224000A9490839086037E0E06800B30120A749D0
:102250000860FFF771FD054606E0FFF76DFD401BC6
:10226000022801D9032047E79F4808380068C0F3D7
:1022700040000028F1D09C480838006820F0F800A1
:10228000216940EAC10098490839086014E000203B
:1022900096490860FFF750FD054606E0FFF74CFD44
:1022A000401B022801D9032026E78F480838006820
:1022B000C0F340000028F1D1207800F00800082881
:1022C0002CD16069A8B1012089490860FFF734FD6D
:1022D000054606E0FFF730FD401B022801D9032028
:1022E0000AE781486C300068C0F340000028F1D054
:1022F00014E000207E490860FFF71EFD054606E059
:10230000FFF71AFD401B022801D90320F4E67648A6
:102310006C300068C0F340000028F1D1207800F054
:10232000040004287FD100BF002000906E483830A0
:10233000006840F080506C493831086008460068F9
:1023400000F08050009000BF00BF6A48006840F471
:10235000807068490860FFF7EFFC054606E0FFF76C
:10236000EBFC401B022801D90320C5E66148006848
:1023700000F480700028F2D000BFA068012808D1C6
:1023800059486830006840F00100574968310860DA
:102390001DE0A06805280DD153486830006840F062
:1023A00004005149683108600846006840F00100A7
:1023B00008600CE04C486830006820F001004A4991
:1023C000683108600846006820F00400086000BF1B
:1023D000A068A0B1FFF7B0FC054608E0FFF7ACFC31
:1023E000401B41F28831884201D9032084E63E48EF
:1023F00068300068C0F340000028EFD013E0FFF71A
:102400009BFC054608E0FFF797FC401B41F2883132
:10241000884201D903206FE6334868300068C0F372
:1024200040000028EFD1A069B8B32F48006800F041
:102430000C00082860D0A06902283ED100202B495A
:102440000866FFF779FC054606E0FFF775FC401BC0
:10245000022801D903204FE6234808380068C0F35A
:1024600040600028F1D1D4E907010843616A40EADD
:1024700081110122A06AC2EB500041EA00412C20E8
:10248000005D41EA00601849091F086001201749F2
:102490000866FFF751FC054607E02FE0FFF74CFC0C
:1024A000401B022801D9032026E60F48083800689F
:1024B000C0F340600028F1D020E000200B490866FE
:1024C000FFF73AFC054606E0FFF736FC401B022802
:1024D00001D9032010E6044808380068C0F34060C2
:1024E0000028F1D10AE007E0083802400000474226
:1024F000800E4742007000400120FDE50020FBE512
:1025000010B50446A06C10B1A06CFFF709FAE06C9E
:1025100010B1E06CFFF704FA2068406820F0030077
:1025200021684860012084F85100002010BD10B5DA
:1025300004460CB9012010BD022084F85100206827
:10254000006820F0400021680860204600F05BF839
:102550000020606584F8510000BF84F8500000BF7F
:1025600000BFE8E7704710B504460CB9012010BD64
:10257000606A00B900BFA06AB0F5005F00D100BF7B
:1025800094F8510028B9002084F85000204600F04B
:102590003BF8022084F851002068006820F04000D9
:1025A00021680860D4E901010843E1680843216912
:1025B000084361690843218B01F400710843E16914
:1025C0000843216A0843A16A08432168086004217E
:1025D000A06901EA1040616A084321684860A06A66
:1025E000B0F5005F02D12168E06A08612068C06927
:1025F00020F400602168C86100206065012084F833
:1026000051000020B3E770477047704770472DE9CD
:10261000F84304460D4617461E464FF00008C146D3
:1026200000BF94F85000012802D10220BDE8F883D1
:10263000012084F8500000BFFFF77EFB804694F82D
:102640005100012802D04FF00209C6E005B117B9C8
:102650004FF00109C1E0032084F8510000206065BB
:102660002563A786E786A063A087E087606420646F
:10267000A068B0F5004F05D12068006840F48040A4
:1026800021680860A06AB0F5005F0ED100BF206825
:1026900000684DF6FF7108402168086020680068F6
:1026A00040F400502168086000BF2068006800F016
:1026B0004000402805D02068006840F040002168B4
:1026C0000860E068B0F5006F2AD1606810B1E08E54
:1026D000012806D128882168C860AD1CE08E401E04
:1026E000E08619E02068806800F00200022807D127
:1026F00028882168C860AD1CE08E401EE0860BE093
:102700003EB1701C40B1FFF717FBA0EB0800B042D0
:1027100002D34FF0030960E0E08E0028E2D129E007
:10272000606810B1E08E012806D12878216808730E
:102730006D1CE08E401EE08619E02068806800F085
:102740000200022807D12878216808736D1CE08EEA
:10275000401EE0860BE03EB1701C40B1FFF7ECFA82
:10276000A0EB0800B04202D34FF0030935E0E08E41
:102770000028E2D13346012202212046CDF8008014
:1027800000F031FC10B14FF0030926E0424631461B
:10279000204600F043FB20B14FF001092020606586
:1027A0001BE0A06850B900BF002000902068C068FE
:1027B000009020688068009000BF00BFA06AB0F55C
:1027C000005F05D12068006840F4805021680860EF
:1027D000606D08B14FF0010900BF012084F851007D
:1027E00000BF002084F8500000BF48461EE70000EC
:1027F0002DE9F04704460E4617461D464FF00008E7
:10280000C146C24600BF94F85000012802D1022000
:10281000BDE8F087012084F8500000BF94F8518093
:10282000D4F80490B8F1010F0AD0B9F5827F04D131
:10283000A06810B9B8F1040F02D04FF0020A7AE094
:102840000EB107B115B94FF0010A74E094F85100C8
:10285000012802D1052084F851000020606526631C
:10286000A586E586A763A587E58720646064A06ADE
:10287000B0F5005F0ED100BF206800684DF6FF7113
:102880000840216808602068006840F40050216812
:10289000086000BF94F85100042806D12948E16C73
:1028A00008642948E16CC86305E02848E16C0864C5
:1028B0002748E16CC8632748E16CC8640020E16CDC
:1028C0000865E38FD4F800C00CF10C01A26BE06C3A
:1028D000FFF7F2F82068406840F001002168486086
:1028E0000020A16C0864A16CC863A16CC864A16CD1
:1028F0000865E38ED4F800C00CF10C02216BA06CCB
:10290000FFF7DAF82068006800F04000402805D0A2
:102910002068006840F04000216808602068406836
:1029200040F02000216848602068406840F00200C4
:102930002168486000BF00BF002084F8500000BF3D
:10294000504665E76D2E0008892E00087B2E000892
:102950003F2F0008452E000870477047042808D113
:102960004FF0E021096941F004014FF0E0221161CC
:1029700007E04FF0E021096921F004014FF0E02267
:1029800011617047704701460020704710B5FFF78E
:10299000F9FF10BD10B504460CB9012010BD94F824
:1029A000390028B9002084F83800204600F00CF8DF
:1029B000022084F83900211D206800F04DFC012020
:1029C00084F839000020E9E770470146022081F8C9
:1029D00039000868006840F001000A6810600120B2
:1029E00081F839000020704710B504462068C0689F
:1029F00020F490702168C8602068406920F00100D0
:102A0000216848612068406900F0400068B1206892
:102A1000406920F0400021684861606B28B10020C7
:102A2000616B0865606BFEF77BFF0020E08520206E
:102A300084F83A00002010BD10B504462068C06834
:102A400020F0C0002168C8602068406900F0800064
:102A500068B12068406920F0800021684861206BDF
:102A600028B10020216B0865206BFEF759FF00207C
:102A7000E084202084F83900002010BD704710B594
:102A800004460CB9012010BDA06900B100E000BFF0
:102A900094F8390028B9002084F83800204600F066
:102AA00027F8242084F839002068C06820F40050FA
:102AB0002168C860204600F0B5FC2068006920F459
:102AC0009040216808612068406920F02A00216850
:102AD00048612068C06840F400502168C860002048
:102AE000E063202084F8390084F83A000020CAE727
:102AF0007047000077B581B00446154694F83A0057
:102B0000202850D1029800B115B9012004B070BD41
:102B100000BF94F83800012801D10220F6E7012017
:102B200084F8380000BF0298A062A5850020E06309
:102B3000222084F83A001D48616BC8631C48616B11
:102B400008641C48616BC8640020616B086502AEB4
:102B500032682368191D2B46606BFEF7ADFF00BF7E
:102B60000020009020680068009020684068009075
:102B700000BF00BF00BF002084F8380000BF2068FD
:102B8000C06840F480702168C8602068406940F0E7
:102B90000100216848612068406940F040002168D8
:102BA00048610020B2E70220B0E700005933000876
:102BB0009F3300080933000870477047F7B5044693
:102BC000154694F8390020283DD1019800B10DB97F
:102BD0000120FEBD00BF94F83800012801D1022079
:102BE000F7E7012084F8380000BF01982062A5842F
:102BF000E5840020E063212084F839001348216B2C
:102C0000C8631348216B08641248216BC864002014
:102C1000216B086501AE23681A1D31682B46206BB5
:102C2000FEF74AFF6FF040002168086000BF0020F7
:102C300084F8380000BF2068406940F080002168B7
:102C400048610020C5E70220C3E70000AD3300085B
:102C5000E3330008093300087047704702480068F2
:102C6000C0F30220704700000CED00E010B5002812
:102C700007DA0A07140E054A00F00F031B1FD4548D
:102C800003E00A07130E024A135410BD18ED00E0CA
:102C900000E400E070B504460D460022042102A0C5
:102CA00001F034FB70BD0000504F4E4700000000A3
:102CB00070B58EB006460C46342101A8FDF7AAFE79
:102CC00001A82168FDF7F9FD0AA101A8FDF7F5FDAE
:102CD00001A8FDF7D3FD85B20022294601A801F025
:102CE00015FB01231A4604A1184601F031FA0EB073
:102CF00070BD00002C4F4B004445430070B590B0B0
:102D000005460C46022D04D0012206211EA001F02A
:102D1000FDFA342103A8FDF77DFE0020019002900A
:102D200003A82168FDF7C9FD19A103A8FDF7C5FD9A
:102D30006068FDF7A3FDC0B28DF804000320616850
:102D400000F07CFF012004E0002162681154411C66
:102D5000C8B29DF804108142F6DC606802780DA1CB
:102D600001A8FDF7C9FB032201A903A8FDF774FD23
:102D700003A8FDF783FD86B20022314603A801F0C7
:102D8000C5FA10B070BD00004152474552520000D4
:102D90002C000000253268580000000070B5044681
:102DA0000D4601220F2102A001F0B0FA70BD000013
:102DB0004E4F5420494D504C454D454E54454400CE
:102DC00070B504460D4600220F2102A001F09EFAC4
:102DD00070BD00004E4F5420494D504C454D454E5E
:102DE0005445440070B504460D460122092107A050
:102DF00001F08CFA00BF08480068006800F040004D
:102E00004028F8D1012001F017FB70BD504F574505
:102E100052204F464600000078000020F8B50446D6
:102E20000D4616462B46002280212046009600F0D3
:102E3000DAF828B1606D40F0200060650320F8BD2D
:102E40000020FCE770B50546AC6B2068406820F0B8
:102E5000030021684860606D40F01000606501204B
:102E600084F851002046FFF77DFB70BD70B5044625
:102E7000A56B2846FFF7CAFB70BD70B50446A56B6D
:102E80002846FFF76AFD70BD7CB50546AC6B002691
:102E900000200190FEF750FF06462868006800F405
:102EA0008070002846D1A06AB0F5005F11D164237C
:102EB000012211462046009600F095F818B1606D89
:102EC00040F0020060652068C06880B20190BDF8E3
:102ED00004002068406820F00300216848606068B2
:102EE000B0F5827F0DD1A068B0F5004F03D0A06887
:102EF000B0F5806F05D12068006820F0400021689F
:102F000008600020E087012084F851002068806874
:102F100000F01000102807D1606D40F002006065DD
:102F20004FF6EF7021688860606D18B12046FFF79A
:102F300019FB7CBD2046FFF768FB00BFF9E77CB5B5
:102F40000546AC6B002600200190FEF7F5FE064614
:102F50002868006800F4807000283FD1A06AB0F5AE
:102F6000005F11D16423012211462046009600F033
:102F70003AF818B1606D40F0020060652068C068E2
:102F800000B20190BDF90400324664212046FFF7EB
:102F900045FF18B1606D40F0200060652068406812
:102FA00020F00300216848600020E086E0870120CF
:102FB00084F851002068806800F01000102807D1C4
:102FC000606D40F0020060654FF6EF702168886028
:102FD000606D18B12046FFF7C5FA7CBD2046FFF7AB
:102FE000BBFC00BFF9E72DE9F04104460E46174649
:102FF0001D46DDF818803FE0681CE0B32DB1FEF7F8
:103000009BFEA0EB0800A84236D32068406820F061
:10301000E000216848606068B0F5827F0DD1A0684B
:10302000B0F5004F03D0A068B0F5806F05D12068DF
:10303000006820F0400021680860A06AB0F5005FD9
:103040000ED100BF206800684DF6FF71084021686E
:1030500008602068006840F400502168086000BFE4
:10306000012084F8510000BF002084F8500000BF08
:103070000320BDE8F081FFE7206880683040B0425F
:1030800001D1012000E00020B842B5D10020F0E7D6
:1030900010B5FEF757FEFFF779FC10BD10B592B0E2
:1030A00000BF002000903848006840F0800036499A
:1030B00008600846006800F08000009000BF00BF74
:1030C00000BF0020009030481030006840F0805071
:1030D0002D49103108600846006800F080500090CB
:1030E00000BF00BF00BF002000902848006820F407
:1030F000404040F40040254908600846006800F45C
:103100004040009000BF00BF0120069000040790DF
:1031100002200C9041050D9108210E9150210F9134
:10312000022110910421119106A8FEF7E1FF18B1C8
:103130003C2117A000F07EFB0E200190022002909F
:10314000002003904FF4805004900020059002214D
:1031500001A8FEF791FE18B14A210DA000F06AFB0C
:10316000FEF74AFF4FF47A71B0FBF1F42046FFF707
:103170000AFC0420FFF7F2FB00221146501EFEF766
:1031800029FE12B010BD000030380240007000402F
:1031900070726F6A6563745C6D61696E2E630000A6
:1031A0001448006840F47000124908601248006832
:1031B00040F001001049086000200F490831086004
:1031C0000D4800680D4908400B4908600C48091D6E
:1031D0000860081F006820F48020091F0860002094
:1031E00005490C3108604FF00060024980390860E1
:1031F0007047000088ED00E000380240FFFFF6FE57
:103200001030002410B56FF0010010490968086102
:103210000F480068401C0E4908600E48006898B1CD
:103220000C4804680DE00A4920680968B1FBF0F217
:1032300000FB121008B960688047A06800B901E07F
:10324000A468F0E700BF00BF10BD000028090020FF
:10325000700000207400002000220268234B984276
:103260000BD0B0F1804F08D0214B984205D0214BB4
:10327000984202D0204B984201D1012300E0002364
:103280001BB122F070024B681A43184B984214D0BD
:10329000B0F1804F11D0164B98420ED0154B98428A
:1032A0000BD0154B984208D0144B984205D0144BC4
:1032B000984202D0134B984201D1012300E0002331
:1032C0001BB122F44072CB681A4302608B68C36260
:1032D0000B688362054B984201D1012300E0002373
:1032E0000BB10B6903630123436170470000014088
:1032F0000004004000080040000C00400040014075
:10330000004401400048014070B506460025B46BFA
:1033100020684069C0F3C01594F83900212805D110
:1033200025B10020E084204600F072F82068406952
:10333000C0F3801594F83A00222805D125B1002069
:10334000E085204600F054F8E06B40F01000E063A8
:103350002046FFF793FB70BD70B50546AC6B28683F
:10336000006800F48070B0B90020E0852068C06873
:1033700020F480702168C8602068406920F0010056
:10338000216848612068406920F040002168486158
:10339000202084F83A002046FFF70EFC70BD70B57F
:1033A0000446A56B2846FFF708FC70BD70B50546BE
:1033B000AC6B2868006800F4807070B90020E0846D
:1033C0002068406920F08000216848612068C0685A
:1033D00040F040002168C86002E02046FFF73CFC56
:1033E00070BD70B50446A56B2846FFF736FC70BD6E
:1033F0000168C96821F490710268D1600168496967
:1034000021F0010102685161202180F83A107047D3
:103410000168C96821F0C0010268D160202180F8EC
:10342000391070472DE9F0410446002520680569F0
:1034300025F44055E0680543206805612068C568AB
:1034400049F20C6085432169A0680843616908431B
:10345000E169084305432068C5602068456925F493
:103460004075A069054320684561E069B0F5004FEB
:103470007ED1C4492068884203D0C349206888426D
:103480005DD1FEF7CFFD00EBC00101EB00106168DC
:103490004900B0FBF1F06421B0FBF1F00601FEF74A
:1034A000C1FD00EBC00101EB001061684900B0FBF9
:1034B000F1F7FEF7B7FD00EBC00101EB001061680A
:1034C0004900B0FBF1F06421B0FBF1F000EBC0016A
:1034D00001EB0010A7EB8000322101EBC00064215A
:1034E000B0FBF1F000F0F80006EB4006FEF79AFDA5
:1034F00000EBC00101EB001061684900B0FBF1F77F
:10350000FEF790FD00EBC00101EB0010616849007F
:10351000B0FBF1F06421B0FBF1F000EBC00101EB76
:103520000010A7EB8000322101EBC0006421B0FB4A
:10353000F1F000F0070030442168886020E1FEF7D8
:1035400061FD00EBC00101EB001061684900B0FBB8
:10355000F1F06421B0FBF1F00601FEF753FD00EB42
:10356000C00101EB001061684900B0FBF1F700E019
:1035700045E0FEF747FD00EBC00101EB001061687C
:103580004900B0FBF1F06421B0FBF1F000EBC001A9
:1035900001EB0010A7EB8000322101EBC000642199
:1035A000B0FBF1F000F0F80006EB4006FEF72AFD54
:1035B00000EBC00101EB001061684900B0FBF1F7BE
:1035C000FEF720FD00EBC00101EB0010616849002F
:1035D000B0FBF1F06421B0FBF1F000EBC00101EBB6
:1035E0000010A7EB8000322101EBC0006421B0FB8A
:1035F000F1F000F00700304421688860C0E06149C4
:103600002068884203D06049206888425CD1FEF778
:1036100009FD00EBC00101EB001061688900B0FBFF
:10362000F1F6FEF7FFFC00EBC00101EB0010616852
:103630008900B0FBF1F06421B0FBF1F000EBC001B8
:1036400001EB0010A6EB8000322101EB0010642199
:10365000B0FBF1F000F0F006FEF7E4FC00EBC00177
:1036600001EB001061688900B0FBF1F06421B0FB50
:10367000F1F006EB0016FEF7D5FC00EBC00101EB04
:10368000001061688900B0FBF1F7FEF7CBFC00EB9E
:10369000C00101EB001061688900B0FBF1F064210A
:1036A000B0FBF1F000EBC00101EB0010A7EB8000D4
:1036B000322101EB00106421B0FBF1F000F00F00AB
:1036C0003044216888605BE0FEF79CFC00EBC001A1
:1036D00001EB001061688900B0FBF1F6FEF792FC87
:1036E00000EBC00101EB001061688900B0FBF1F054
:1036F0006421B0FBF1F000EBC00101EB0010A6EB80
:103700008000322101EB00106421B0FBF1F000F0E9
:10371000F006FEF777FC00EBC00101EB00106168DA
:103720008900B0FBF1F06421B0FBF1F006EB00166C
:10373000FEF768FC00EBC00101EB00106168890036
:10374000B0FBF1F7FEF75EFC00EBC00101EB0010EF
:1037500061688900B0FBF1F06421B0FBF1F000EB8F
:10376000C00101EB0010A7EB8000322101EB00103B
:103770006421B0FBF1F000F00F0030442168886054
:10378000BDE8F081001001400014014008B51E485A
:103790000068006800F0400040281ED1C0431A496C
:1037A000096808601848FFF747F920B14FF48B719A
:1037B00016A000F03FF814480068C06840F04000D0
:1037C00011490968C8601A48006830B11848006893
:1037D000FCF797FD0020164908600B480068006858
:1037E00000F0100010280ED100BF00200090064805
:1037F000006800680090044800684068009000BFBE
:1038000000BF00F0FDFA08BD7800002070726F6AFA
:103810006563745C6D6F64756C65735C636F6E7308
:103820006F6C655C636F6E736F6C652E6300000078
:103830001000002070B594B004460D465021684633
:10384000FDF7E8F82B46224608A16846FCF754FE2F
:103850006846FDF713F886B201223146684600F04B
:1038600055FDFCF7E4FF14B070BD000065726F7287
:1038700020696E746F3A202573206174206C696E24
:10388000652025640000000030380A2801D201209C
:10389000704700207047000070B505460E460C20AA
:1038A000FCF700FD0446656003480068A0602660E0
:1038B0000148046070BD00007400002010B50C4881
:1038C000FFF792F818B1B1210AA0FFF7B3FF40212A
:1038D00011480068FDF77CF840220F480168044851
:1038E000FFF708F918B1B62102A0FFF7A3FF10BD3A
:1038F0007800002070726F6A6563745C6D6F647528
:103900006C65735C636F6E736F6C655C636F6E7315
:103910006F6C652E630000000C00002000B587B0BE
:1039200000BF002001906948006840F0010067492D
:1039300008600846006800F00100019000BF00BF69
:1039400007200690022003900C2002900120049092
:103950000320059002A95E48FEF7FEF800BF002094
:1039600001905A481030006840F400305749103137
:1039700008600846006800F40030019000BF00BFF6
:103980005448554908604FF4E120486000215248EE
:103990008160C16001610C21416100218161C161CF
:1039A000FFF76DF818B131214CA0FFF743FF00BFBE
:1039B000002001904548006840F400104349086029
:1039C0000846006800F40010019000BF00BF4C489A
:1039D0004C4908604FF00060486000214948816010
:1039E000C1604FF480610161002141618161C16169
:1039F00001624162FDF7EAFF18B1422137A0FFF7EB
:103A000019FF00BF3F483449486308463D49886371
:103A100000BF3B4818303C4908604FF000604860E8
:103A20004021394881600021C1604FF4806101610B
:103A3000002141618161C16101624162FDF7C6FF00
:103A400018B1532125A0FFF7F5FE00BF2E482249EB
:103A5000086308462C49886300BF4020FCF722FC1D
:103A60002A490860402129480068FCF7B1FF1A483C
:103A70000068C06840F0500017490968C8606FF0DE
:103A8000400015490968086000BF002001901248F5
:103A9000006800680190104800684068019000BF0D
:103AA00000BF0F220E212620FEF794F92620FEF7F4
:103AB00084F94022154801680748FFF71BF818B140
:103AC000642106A0FFF7B6FE07B000BD3038024003
:103AD00000000240004400407800002070726F6ACD
:103AE0006563745C6D6F64756C65735C636F6E7336
:103AF0006F6C655C636F6E736F6C652E63000000A6
:103B000088600240B8000020180100200C0000204E
:103B100038B504460A4800682044401C00900F2233
:103B200000211C20FEF756F900BF054900980968DE
:103B30008842FAD20F2211461C20FEF74BF938BDFD
:103B40007000002008B500BF002000902C480068DD
:103B500040F400102A4908600846006800F400108C
:103B6000009000BF00BF2748274908600020486038
:103B7000002125488160C1604FF48061016100210E
:103B800041618161C1614FF40031016200214162F4
:103B9000FDF71CFF18B1AD211CA0FFF74BFE00BFC5
:103BA00019482149C86408461749886300BF154869
:103BB00018301E4908600020486040211B48816081
:103BC0000021C1604FF48061016100214161816188
:103BD000C1614FF40031016200214162FDF7F6FE40
:103BE00018B1BE2109A0FFF725FE00BF0F480E49FE
:103BF000886408460D49886300BFFEF781FC08BD54
:103C00003038024058600240D001002070726F6A64
:103C10006563745C6D6F64756C65735C6D656D7305
:103C20005C6D656D732E630078010020300200200A
:103C300001480068704700007000002070B505461C
:103C40000C4655B1012D0CD0022D02D0032D10D100
:103C50000BE0204600F000FE0BE0204600F0CAFA20
:103C600007E0204600F0A0FA03E0204600F0E8FA62
:103C700000BF00BF70BD00000148008880B27047DF
:103C80006C00002000B587B000BF002001901648EE
:103C9000006840F00200144908600846006800F01F
:103CA0000200019000BF00BF0120039000020290BB
:103CB00000200490059002A90C48FDF74DFF00225A
:103CC0004FF480710948FEF731F84FF4007002900C
:103CD00002A90648FDF740FF00224FF40071034897
:103CE000FEF724F807B000BD30380240000402405F
:103CF000FEF730F8FFF7D2F90320FEF7A9F800F03D
:103D00005DFD00F0FDF9002000F096FBFFF706FED8
:103D10000122232109A000F0F9FAFFF7B3FF0021E7
:103D2000084600F069FB0021012000F065FB00F06F
:103D300017F800F091FB00E000BFFDE7544849533D
:103D400020495320414C5048412056455253494F39
:103D50004E20534142524520504F524A4543540051
:103D600010B500200BE0C0EB001101EB81010D4A02
:103D700002EB81010C4A42F82010411CC8B2042811
:103D8000F1DB4FF47A7000F025FCFFF7DBFE00F06A
:103D9000D5F844F6206000F01DFC01210348FFF730
:103DA0007BFD10BDBE03002070080020E13D00082F
:103DB00038B50020009000240DE0684600F04CFD6E
:103DC0009DF80000712801D1012038BD0A20FFF7BD
:103DD0009FFE601C84B20A2CEFDB0020F5E7000098
:103DE00010B5012251020548FDF7A0FF00224FF453
:103DF00000710248FDF79AFF10BD0000000002406C
:103E00002DE9F0414948006800784D2803D0FFF7BC
:103E100055FDBDE8F0810A2144480068FCF712FD19
:103E200010B9FFF74BFDF4E7002740480068461C37
:103E30000024002568E02C213046FCF703FD071E16
:103E400046D10A213046FCF7FDFC0746641CA10060
:103E50002846FCF77DFA0546B91B481CFCF722FAF8
:103E6000611E45F82100BA1B511C621E55F8220044
:103E7000FCF7AEFDBA1B611E55F821003146FCF778
:103E800028FD4FF000081CE0FFF718FD284A52F803
:103E900028102868FCF7E6FD30B9264850F828209D
:103EA00029462046904711E0214908F1010051F8C8
:103EB000200020B9012203211FA000F027FA08F1F9
:103EC00001081B4850F828000028DDD100BF1CE085
:103ED000641CA1002846FCF73BFA0546B91B481CA8
:103EE000FCF7E0F9611E45F82100BA1B511C621E67
:103EF00055F82200FCF76CFDBA1B611E55F8210035
:103F00003146FCF7E6FC7E1C95E700BF4FF0000849
:103F100005E055F82800FCF7F4F908F10108A04580
:103F2000F7DB2846FCF7EDF900BF72E70C00002034
:103F30001C000020400000203430340010B5C820A0
:103F4000FFF7E6FD012210212FA000F0DFF9FFF7B7
:103F50002FFF28B901221F2130A000F0D7F910BD92
:103F600001221B2135A000F0D1F980216B2000F047
:103F70007BFC02216B2000F077FC0122092136A096
:103F800000F0C4F9FFF714FF28B901221E2135A063
:103F900000F0BCF9E3E701221A213AA000F0B6F9DB
:103FA00055216A2000F060FC01220C213CA000F0A9
:103FB000ADF9F921192000F057FC012209213CA09C
:103FC00000F0A4F942211A2000F04EFC01220A213F
:103FD0003AA000F09BF902211D2000F045FC0122CF
:103FE0000E2139A000F092F90121382000F03CFCAC
:103FF0000122182138A000F089F9012209213DA0F1
:1040000000F084F900BFAAE774727920746F2073FE
:1040100065747570206D7075000000006D707520FE
:104020006E6F742061636365737361626C65206297
:1040300065666F7265207265736574006D707520BA
:1040400061636365737361626C65206265666F723C
:1040500065207265736574007265736574206D7098
:10406000750000006D7075206E6F7420616363656C
:10407000737361626C65206166746572207265732A
:10408000657400006D7075206163636573736162B0
:104090006C652061667465722072657365740000DA
:1040A0007265736574207065726970680000000045
:1040B0007365742073726469760000007365742000
:1040C000636F6E66696700007365742061636320C7
:1040D000636F6E666967000073657420696E747043
:1040E000696E20746F206461746120726561647907
:1040F00000000000736574757020656E6400000038
:1041000000B587B000BF002001900F48006840F064
:1041100002000D4908600846006800F002000190A6
:1041200000BF00BF012003900820029000200490EF
:10413000059002A90548FDF70FFD0122082103485B
:10414000FDF7F4FD07B000BD303802400004024026
:104150002DE9F04105460C4616461F460C480570F1
:1041600084B10CA12046FCF77DFC18B968200A49EF
:10417000087007E009A12046FCF774FC10B9642020
:10418000054908700648067006480770BDE8F081CA
:10419000610000204845580062000020444543006B
:1041A000630000206400002010B50446FFF700FE05
:1041B00000B910BD012221463C2000F053F8012235
:1041C000611C3B2000F04EF80122A11C3E2000F0B3
:1041D00049F80122E11C3D2000F044F80122211D94
:1041E000402000F03FF80122611D3F2000F03AF826
:1041F00000BFDEE710B50446FFF7DAFD00B910BDD9
:1042000001222146442000F02DF80122611C4320A8
:1042100000F028F80122A11C462000F023F801221A
:10422000E11C452000F01EF80122211D482000F06D
:1042300019F80122611D472000F014F800BFDEE7E5
:1042400070B50446FFF7B4FD00B970BD2046FCF719
:10425000E1FAC5B201222146284600F003F800BF6A
:10426000F3E7000070B505460E46144600BF1D4832
:104270000068806800F080008028F8D0FF22611C70
:104280001948FCF79DFB45F0800017490870002293
:104290004FF480511548FDF749FD601C83B2124A66
:1042A00011461048FEF7A4FA20B14FF4BA7110A0DD
:1042B000FFF7C0FA00BF0B480068806800F080007C
:1042C0008028F8D00748FEF71BF9012211030748A0
:1042D000FDF72CFD22460449491C3046FCF7F9FA4B
:1042E00070BD000078010020900200200004024010
:1042F00070726F6A6563745C6D6F64756C65735C16
:104300006D656D735C6D656D732E630070B50646EB
:104310000C4615462948006870B10F22002126205E
:10432000FDF758FD00BF254800680028FBD10F228B
:104330000E212620FDF74EFD15B9A01C84B201E028
:10434000601C84B22046FBF7ADFF1C49086008469C
:10435000006828B90022082119A0FFF7D7FF1BE049
:104360007DB9214615480068FCF732FB53201349FC
:1043700009680870A21E314610480068FCF76CFA04
:104380000AE021460D480068FCF722FB621E314618
:104390000A480068FCF760FA01220CA1074800688F
:1043A000FCF75AFA2246054801680948FEF706FC60
:1043B00018B19E2107A0FFF73DFA70BD1000002044
:1043C0004D454D4641554C54000000000A00000088
:1043D0007800002070726F6A6563745C6D6F64753D
:1043E0006C65735C636F6E736F6C655C636F6E732B
:1043F0006F6C652E6300000070B506460C460CB964
:10440000002502E0012C00D1012516B1012E0ED1AC
:1044100006E02A464FF480710648FDF787FC06E067
:104420002A464FF400710348FDF780FC00BF00BF2F
:1044300070BD00000004024070B505460DB90124AE
:1044400002E0012D00D10024224608210148FDF799
:104450006DFC70BD0004024000B58BB000BF0020B1
:1044600001904C48006840F001004A490860084645
:10447000006800F00100019000BF00BF032007901A
:1044800001200690002008900320099006A94248C8
:10449000FDF762FB00BF002001903E481430006829
:1044A00040F480703B49143108600846006800F40D
:1044B0008070019000BF00BF3848394908604FF450
:1044C000803048600121364881610021C16001626D
:1044D000012101634161334981620021C1620121EF
:1044E000C161002181600161FDF740F918B12A2105
:1044F0002DA0FFF79FF90020029005900120039066
:104500000620049002A92648FDF766F818B1342168
:1045100025A0FFF78FF900BF002001901D4800681B
:1045200040F480001B4908600846006800F48000E1
:10453000019000BF00BF2448244908600020486063
:10454000002122488160C16001614FF40061416136
:10455000890081614911C161490201620021416202
:10456000FDF734FA18B144210FA0FFF763F900BF3B
:1045700016480B49886308461449886300BF012226
:104580001349FDF729F918B14B2107A0FFF752F99C
:104590000BB000BD30380240000002400020014056
:1045A000800800200100000F70726F6A6563745C00
:1045B0006D6F64756C65735C73686F636B5C736857
:1045C0006F636B2E6300000010640240C808002077
:1045D0006C00002010B586B0044600BF002000909B
:1045E0006948006840F002006749086008460068B2
:1045F00000F00200009000BF00BF00BF002000904C
:104600000846006840F0010008600846006800F0B5
:104610000100009000BF00BF05200590022002901D
:104620004FF460400190002003900320049001A902
:104630005648FDF791FA012002900003019001A96C
:104640005248FDF789FA012211035048FDF76EFB2D
:104650004F4802904FF48070019001A94D48FDF73A
:104660007BFA0F220A211720FDF7B4FB1720FDF774
:10467000A4FB012002904002019001A94548FDF7EA
:104680006BFA00224FF400714248FDF74FFB00BF68
:10469000002000903C481030006840F480403A49C7
:1046A000103108600846006800F48040009000BFA8
:1046B00000BF39483949086044F62060844203D37A
:1046C00000213648C16137E042F21070844203D3C2
:1046D00008213248C1612FE041F28830844203D37F
:1046E00010212E48C16127E040F6C410844203D354
:1046F00018212A48C1611FE040F2E240844203D3FE
:1047000020212648C16117E0B4F51C7F03D9282178
:104710002248C16110E0B4F59C7F03D330211F48CB
:10472000C16109E09C2C03D338211C48C16103E01E
:1047300083211BA0FFF77EF8012118484161022167
:104740000161002181620721C1620021C160816095
:1047500001624FF48270114948604FF400710F48B4
:10476000816100214162FDF7E2FE18B191210CA0A8
:10477000FFF760F80948FDF7F6FE18B1952108A08B
:10478000FFF758F806B010BD303802400004024070
:1047900000001110000002400038004078010020A5
:1047A00070726F6A6563745C6D6F64756C65735C61
:1047B0006D656D735C6D656D732E630008B500BF2C
:1047C000002000901A48006840F001001849086075
:1047D0000846006800F00100009000BF00BF080616
:1047E00014490860002113480161816040F2E731FB
:1047F000C1604F200F4948600846FEF7CBF818B15A
:1048000027210DA0FFF716F80A480068C06840F09D
:10481000010008490968C8600F2211461C20FDF7F5
:10482000D9FA1C20FDF7C9FA0248FEF7CEF808BDF8
:10483000403802402809002070726F6A6563745C1A
:104840006D6F64756C65735C74696D6572735C74AF
:10485000696D6572732E630010B50446012221460E
:104860007520FFF7FFFC10BD70B504460D4600BF74
:1048700017480068806800F080008028F8D0FF2288
:1048800002211448FCF79CF812480470457000227D
:104890004FF480511048FDF749FA642302220D4974
:1048A0000B48FDF7B4FE20B140F25F110BA0FEF7FC
:1048B000C1FF00BF06480068806800F080008028C3
:1048C000F8D0012211030448FDF730FA70BD000052
:1048D00078010020900200200004024070726F6A8C
:1048E0006563745C6D6F64756C65735C6D656D7329
:1048F0005C6D656D732E630010B500290AD00878D1
:10490000002807D005487844FCF7ACF8002801D00F
:10491000002010BD0248784410BD0000FE000000D9
:10492000F60000004FF04070E1EE100A7047000002
:10493000000000000000010203040607080900004F
:1049400000000102030400061016000610163031A4
:1049500032333435363738394142434445464030A6
:104960005800303132333435363738396162636458
:104970006566403078000000302E35663A31332FBE
:1049800030342F32303138004745544441544100CF
:1049900053455453544154450000000050494E477C
:1049A0000000000053485554444F574E000000008B
:1049B0005052494E544649464F0000005345544E0C
:1049C000554D424552000000524541445245474929
:1049D0005354455200000000474554535441545528
:1049E00053000000144B0008000000207800000075
:1049F000D00100088C4B000878000020500F000008
:104A0000EC0100081001000043000000F8FFFFFF68
:104A100000404040404040404040414141414140D1
:104A20004040404040404040404040404040404086
:104A30004005020202020202020202020202020215
:104A4000022020202020202020202002020202021A
:104A50000202909090909090101010101010101072
:104A6000101010101010101010101010020202027E
:104A700002028888888888880808080808080808C2
:104A800008080808080808080808080802020202BE
:104A900040000000000000000000000000000000D6
:104AA0000000000000000000000000000000000006
:104AB00000000000000000000000000000000000F6
:104AC00000000000000000000000000000000000E6
:104AD00000000000000000000000000000000000D6
:104AE00000000000000000000000000000000000C6
:104AF00000000000000000000000000000000000B6
:104B000000000000000000000000000000000000A5
:104B1000000000000024F4000000000078490008B4
:104B20000000000000000000000000000000000085
:104B30009C4900089049000888490008A4490008D9
:104B4000BC490008D8490008B0490008C849000815
:104B500000000000952C0008C12D0008E512000897
:104B6000E52D00089D2D000815150008B12C000842
:104B7000FD2C00080000680000000000000000009C
:0C4B800000000000000000000000000029
:040000050800026588
:00000001FF
