:020000040800F2
:10000000580800204D020008550200085702000859
:10001000590200085B0200085D02000800000000B1
:100020000000000000000000000000005F02000867
:10003000610200080000000063020008573C00084D
:1000400067020008670200086702000867020008EC
:1000500067020008670200086702000867020008DC
:1000600067020008670200086702000867020008CC
:1000700067020008670200086702000867020008BC
:10008000670200086702000867020008000000001D
:1000900000000000000000000000000067020008EF
:1000A000670200086702000867020008670200088C
:1000B000670200086702000867020008670200087C
:1000C000670200086702000867020008670200086C
:1000D0006702000867020008E14200080000000013
:1000E00067020008670200086702000800000000BD
:1000F000000000000000000000000000670200088F
:10010000000000006702000867020008670200089C
:1001100000000000000000000000000000000000DF
:10012000670200086702000867020008670200080B
:10013000670200080000000000000000000000004E
:10014000000000000000000000000000670200083E
:1001500067020008670200086702000867020008DB
:1001600067020008670200080000000000000000AD
:10017000000000000000000000000000000000007F
:1001800000000000670200080000000000000000FE
:100190006702000800F002F800F048F80AA090E8B2
:1001A000000C82448344AAF10107DA4501D100F032
:1001B0003DF8AFF2090EBAE80F0013F0010F18BFB7
:1001C000FB1A43F001031847684B0000884B0000FE
:1001D000103A24BF78C878C1FAD8520724BF30C873
:1001E00030C144BF04680C60704700000023002445
:1001F00000250026103A28BF78C1FBD8520728BF37
:1002000030C148BF0B607047642900F0B78178297E
:1002100000F0F081002070471FB504F037FD9DE825
:10022000030000F02BFC1FBD10B510BD00F0FAFC60
:100230001146FFF7F1FF04F02BFA00F018FD03B4AC
:10024000FFF7F2FF03BC00F049FD000009488047BA
:1002500009480047FEE7FEE7FEE7FEE7FEE7FEE7A8
:10026000FEE7FEE7FEE7FEE704480549054A064BC0
:1002700070470000693D0008950100085802002001
:1002800058080020580400205804002070B5064685
:1002900000F0D8FB056806F10B0020F00704B4421B
:1002A0009CBF002070BD2B466A68BAB11068A0429E
:1002B00010D304F1080188423CBF5068586007D34E
:1002C0005168101941601168091B01605860146081
:1002D000101D70BD13465268002AE7D121462846FA
:1002E00000F0B8FB0028DED170BD70B50446051FD4
:1002F00000F0A8FB0068002C14BF446870BD002CFF
:1003000018BFAC423CBF20466468F8D301680A18A5
:10031000AA4218BF456003D12A680546114401600E
:1003200028684119A1421CBF6C6070BD616869609A
:1003300021680844286070BD70B50D460646041F4C
:1003400000F080FBD0F800C0C5B1E6B105F10B00AC
:1003500020F00703AB423CBF002070BD20689842EC
:1003600038BFDCF8042013D3C11A08292FD3E018B2
:1003700040F8041B2360FFF7B8FF28E03046FFF782
:10038000B4FF002070BD2846BDE87040FFF77EBF77
:10039000002A18BFA2423CBF94465268F8D3011904
:1003A000914216D111680844984212D3C11A082903
:1003B0003CBF2060506808D35168E0184160216854
:1003C00012681144C91A01602360CCF80400201D92
:1003D00070BD181FFFF75AFF050007D021680A1FDC
:1003E000211D00F06FFA201DFFF77FFF284670BD2A
:1003F00053EA020C00F069802DE9F04B4FF0000643
:10040000002B1FBFB3FA83F503FA05F424FA05F6AF
:100410005E4012BF1643B2FA82F502FA05F4C5F146
:1004200020051EBF22FA05FC44EA0C04203556EADA
:10043000044C4FEA144418BF641C4FF000084FF0FE
:100440000009904271EB030C39D3002919BFB1FAAE
:1004500081F701FA07F6B0FA80F700FA07F6C7F15C
:1004600020071EBF20FA07FC46EA0C062037B6FB21
:10047000F4FCA7EB0507103F07F01F0BCBF120069C
:100480000CFA0BFB2CFA06F644BFB3460026202FCD
:10049000A4BF5E464FF0000B5BEA060C08BF4FF0AE
:1004A000010B19EB0B09ABFB027C48EB0608C01BE8
:1004B00006FB02CC0BFB03CC71EB0C01C1E70B4636
:1004C000024641464846BDE8F08B13B54FF00000A8
:1004D0004FF00001AFF30080BDE81C407047000002
:1004E0000FB41CB5074B06AA7B44694600900598DB
:1004F00000F059FB0020694600F068FB1CBC5DF869
:1005000014FB0000E106000070B504468569006830
:10051000C10601D5302600E02026C00707D070BDF7
:10052000D4E9012130469047206A401C20626D1EAC
:10053000F6D570BD70B5044685690078C00707D14F
:1005400070BDD4E9012120209047206A401C206220
:100550006D1EF6D570BD09684A0501D540B27047D9
:10056000C905FCD500B2704709684A0501D5C0B27B
:100570007047C905FCD580B2704700002DE9F041F5
:100580000646002410687529314616A510D0FFF7DD
:10059000E2FF002802DA404213A507E031688A072B
:1005A00001D512A502E0490704D511A5012401E0F7
:1005B000FFF7DAFF00210A2206F1240709E0B0FB69
:1005C000F2FCB0FBF2F302FB1C003030785418460A
:1005D000491C0028F3D123462A463046BDE8F041A5
:1005E00000F082BA000000002D0000002B00000087
:1005F0002000000070B504460D4621461068FFF744
:10060000B3FF2188090502D50F4A7A4402E00E4A59
:100610007A440E32002104F1240305E000F00F06B5
:100620000009965D5E54491C0028F7D1207800230C
:10063000000704D5702D02D009B1022311322046E3
:10064000BDE8704000F050BAA84600002DE9F04720
:100650004FF0000A89460446C0F820A02046E16811
:100660008847002876D0252806D0D4E90121904774
:10067000206A401C2062F1E7E16820460026884796
:10068000C4F81CA005460027C4F818A02A2D09D0DC
:10069000284603F063FE38B304EB8708303DC8F802
:1006A000185019E059F8041B204604EB87029161A9
:1006B000E1688847012F054618D1E069002820DA53
:1006C00026F020061DE0D8F8180000EB800005EBAE
:1006D00040003038C8F818002046E16888470546D1
:1006E00003F03CFE0028EED1012F0AD02E2D08D1B8
:1006F0002046E16888477F1C0546022F46F0200609
:10070000C4DBA069002803DA404246F00106A0617C
:10071000F00701D026F010066C2D0AD0682D08D005
:100720004C2D39D06A2D35D0742D35D07A2D33D05B
:1007300016E0E1682F4620468847B84205460AD1B0
:100740006C2F27D04FF48060E1680643204688472D
:10075000054605E027E06C2F1AD04FF48070064361
:100760000DB3A5F14100192802D8203546F40066E2
:100770004A462946204626604E46FFF745FD80B191
:1007800001280BD0F61D26F0070000F1080965E7E7
:100790004020E4E78020D7E70020D5E706F10409F0
:1007A0005CE7284661E7206ABDE8F087401ECAB2D0
:1007B00010F8011F8A4202D00029F9D100207047A9
:1007C00010B5431E13F8014F002CFBD105E011F8C2
:1007D000014B002C03F8014B03D0521EF7D200212D
:1007E000197010BD10B5431C02E010F8011B71B167
:1007F0008107FAD14FF0013202C88C1A8C4314EAF7
:10080000C211F9D0C01A0A0603D0C01E10BDC01A0A
:1008100010BD0A0401D0801E10BD0902FCD0401E8C
:1008200010BD421E12F8013F002BFBD111F8013B15
:10083000002B02F8013BF9D17047032A40F23080C7
:1008400010F0030C00F0158011F8013BBCF1020F11
:10085000624498BF11F801CB00F8013B38BF11F892
:10086000013BA2F1040298BF00F801CB38BF00F8A9
:10087000013B11F0030300F02580083AC0F0088026
:1008800051F8043B083A51F804CBA0E80810F5E70A
:10089000121D5CBF51F8043B40F8043BAFF30080ED
:1008A000D20724BF11F8013B11F801CB48BF11F862
:1008B000012B24BF00F8013B00F801CB48BF00F832
:1008C000012B704710B5203AC0F00B80B1E81850EA
:1008D000203AA0E81850B1E81850A0E81850BFF42A
:1008E000F5AF5FEA027C24BFB1E81850A0E81850C9
:1008F00044BF18C918C0BDE810405FEA827C24BF1D
:1009000051F8043B40F8043B08BF7047D20728BFAA
:1009100031F8023B48BF11F8012B28BF20F8023BF9
:1009200048BF00F8012B70474FF000020429C0F0C7
:10093000128010F0030C00F01B80CCF1040CBCF111
:10094000020F18BF00F8012BA8BF20F8022BA1EB63
:100950000C0100F00DB85FEAC17C24BF00F8012B48
:1009600000F8012B48BF00F8012B70474FF0000240
:1009700000B5134694469646203922BFA0E80C5095
:10098000A0E80C50B1F12001BFF4F7AF090728BF70
:10099000A0E80C5048BF0CC05DF804EB890028BFEC
:1009A00040F8042B08BF704748BF20F8022B11F015
:1009B000804F18BF00F8012B704700004FF0013C3A
:1009C00050F8042B51F8043B9A4221D1A2EB0C03BE
:1009D000934313EACC1317D150F8042B51F8043B7E
:1009E0009A4215D1A2EB0C03934313EACC130BD11B
:1009F00050F8042B51F8043B9A4209D1A2EB0C03A6
:100A0000934313EACC13DBD04FF00000704700BFD4
:100A1000D01A01BAB1FA81F101F0180122FA01F0FD
:100A2000CB40C1F12001DBB2C0B2C01A2CFA01F3F5
:100A3000D11A914311EAC311E6D17047704770474C
:100A40007047000000487047000200207047704760
:100A50007047704738B504460A4600206946AFF330
:100A60000080002808BF38BD02460099204600F0EB
:100A7000B7F8012038BD012000F0CCB8F8B5AFF3CD
:100A80000080054600200C46102000BF0646A8192D
:100A9000A0420DD9324669460020AFF3008007001E
:100AA00008BF00F0B7F80098A04218BF0546C41967
:100AB000FFF7C8FF05600746F01D20F00700461944
:100AC000284600F00AF8B44208BFF8BDA21B314620
:100AD0003868BDE8F84000F083B800210160C0E943
:100AE00001107047102070472DE9F0470D469946D8
:100AF0009246044600F124080168880604D5E0699E
:100B000021F01001216000E00120A84201DD471B17
:100B100000E00027A1697A1902EB0900081AA06118
:100B20002078C00602D42046FFF7EEFC002608E03D
:100B3000D4E901211AF806009047206A401C761C6F
:100B400020624E45F4DB2078C0060AD52046FFF728
:100B5000DBFC06E0D4E9012130209047206A401CEC
:100B60002062381EA7F10107F4DC07E0D4E9012177
:100B700018F805009047206A401C2062281EA5F145
:100B80000105F3DC2046FFF7D5FC2078000602D5EE
:100B90000220BDE8F0870120FBE7000001694A1C44
:100BA00002610878704700B58FB0CDE901310021AE
:100BB000059105497944CDE9031011466846FFF7D0
:100BC00045FD0FB000BD0000E5FFFFFF0A6802F819
:100BD000010B0A607047000000487047F8010020D0
:100BE000034640688C46002818BF88423CBF034635
:100BF0004068F8D318681844884207D00CF1030005
:100C000020F00700001D411A521A0146081D0A6013
:100C1000FFF76BBB10B500F039F8BDE8104000F0ED
:100C20002FB870477546FFF7D7FFAE4605006946F7
:100C3000534620F00700854618B020B5FFF714FB97
:100C4000BDE820404FF000064FF000074FF00008CD
:100C50004FF0000B21F00701AC46ACE8C009ACE84E
:100C6000C009ACE8C009ACE8C0098D46704710B5B2
:100C70000446AFF300802046BDE81040FFF7DFBA1E
:100C8000002801D000F02AB87047000010B50128F4
:100C900005D0002103A000F027F8012010BD09A114
:100CA000F8E7000053494752544D454D3A204F75DF
:100CB00074206F662068656170206D656D6F727954
:100CC000000000003A2048656170206D656D6F720C
:100CD0007920636F72727570746564000149182021
:100CE000ABBEFEE72600020070B505460C460A20A2
:100CF00000E06D1C00F011F835B128780028F8D11B
:100D000002E0641C00F009F814B120780028F8D142
:100D1000BDE870400A20AFF3008008B569468DF841
:100D200000000320ABBE08BD70B50546AC6B206C5F
:100D300000F0500050BB206C40F40070206420682C
:100D4000806800F04050E8B9A069D8B92068C06A4E
:100D500000F4700020B12068806800F4806088B9D9
:100D60002068406820F0200021684860206C20F452
:100D700080702064206C00F4805018B9206C40F022
:100D800001002064204600F023FC03E0A06BC16C4E
:100D90002846884770BD70B50546AC6B402020647E
:100DA000606C40F004006064204600F013FC70BDED
:100DB00070B50446A56B284600F00BFC70BD000022
:100DC00070B504465A4D686820F440306860686821
:100DD0006168084368602068406820F4807021687A
:100DE000486020684168206941EA00202168486025
:100DF0002068406820F040702168486020684068A2
:100E0000A1680843216848602068806820F4006079
:100E10002168886020688068E168084321688860EC
:100E20004449A06A884218D02068806820F0706029
:100E30002168886020688068A16A0843216888600A
:100E40002068806820F040502168886020688068B1
:100E5000E16A0843216888600BE02068806820F020
:100E60007060216888602068806820F040502168A8
:100E700088602068806820F002002168886020680F
:100E80008168A06941EA400021688860206AF8B161
:100E9000606A18B1606A082800D804E040F227614F
:100EA00025A003F062FA2068406840F400602168E1
:100EB00048602068406820F46040216848602068ED
:100EC0004168606A401E41EA40302168486005E0A0
:100ED0002068406820F40060216848602068C06A8B
:100EE00020F470002168C8622068C16AA08B401E8F
:100EF00041EA00502168C8622068806820F40070D0
:100F00002168886020688168206B41EA4020216860
:100F100088602068806820F480602168886020688C
:100F20008168606941EA80202168886070BD0000A6
:100F3000002301400100000F70726F6A6563745CEA
:100F400048414C5C73746D3332663478785F686105
:100F50006C5F6164632E63000146087810381823C3
:100F6000B0FBF3F20848805CC865032A05D908681D
:100F70006FF30900001D886503E008686FF309003E
:100F80008865886D70470000AE4C0008014600205F
:100F90008A6A8B69CBB932B1012A0DD0022A03D0FB
:100FA000032A10D10EE000BFCB6A03F08073B3F1C7
:100FB000807F00D1012007E0CB6AB3F1C07F00D170
:100FC000012001E000E000BF34E08B69B3F5005F71
:100FD0001AD132B1012A07D0022A03D0032A11D133
:100FE0000AE000BF01200EE0CB6A03F08073B3F18A
:100FF000807F00D1012006E0CB6AB3F1C07F00D131
:10100000012000E000BF15E032B1012A05D0022A1C
:1010100004D0032A0CD103E000BF00BF012008E088
:10102000CB6A03F08073B3F1807F00D1012000E030
:1010300000BF00BF704730B50468246824F48024E2
:1010400005682C60046863608468402C04D10468DF
:10105000A2600468E16003E00468A1600468E260E3
:1010600030BD00002DE9F04FADB007460C46052F0E
:1010700001DC022F06DA072175A003F065FC2DB014
:10108000BDE8F08F4FF00009CA4601202C902B904C
:1010900083462A904FF06E086E2601253EE054F8F4
:1010A00025006DA1FFF78AFC18B94FF001096D26E4
:1010B0002BE054F825006AA1FFF780FC18B94FF027
:1010C000010A732621E054F8250067A1FFF776FC9A
:1010D000D8B154F8250066A1FFF770FC00B91BE0F9
:1010E00054F8250064A1FFF769FC70B154F825009D
:1010F00062A1FFF763FC40B96D2E02D14FF0000BE7
:1011000003E0732E01D100202A90B8F16E0F02D1B6
:101110006E2E00D0B04600BF681CC5B2BD42BEDB1B
:10112000642111A8FFF722FC11A82168FFF779FBC1
:10113000342104A8FFF71AFC79E0B9F1000F57D069
:10114000B8F16D0F54D10020ADF80C00ADF80A00D5
:10115000ADF80800814602A903F01BFABBF1000FAD
:101160000BD0BDF90C000090BDF90A30BDF9082084
:1011700043A104A8FFF7B4F90AE0BDF90C00009000
:10118000BDF90A30BDF9082043A104A8FFF7A8F96A
:1011900004A911A8FFF745FB0020ADF80C00ADF83D
:1011A0000A00ADF8080002A9012003F0F2F9BBF132
:1011B000000F0BD0BDF90C000090BDF90A30BDF94D
:1011C00008203BA104A8FFF78BF90AE0BDF90C0049
:1011D0000090BDF90A30BDF908203AA104A8FFF734
:1011E0007FF904A911A8FFF71CFB4FF0730800BF9B
:1011F000BAF1000F1BD0B8F1730F18D14FF0000AED
:1012000003F0DEF905462A9828B12A4632A104A83F
:10121000FFF766F904E02A4632A104A8FFF760F957
:1012200004A911A8FFF7FDFA4FF06D0800BFB9F14E
:10123000000F82D1BAF1000FFBD111A8FFF7D2FA4B
:1012400085B2294611A803F07FFB00BF17E7000015
:1012500041524743455252004D454D530000000056
:1012600053484F434B0000004F4E434500000000E1
:10127000434F4E5400000000484558004445430089
:101280002C4759524F3A253468583A253468583A11
:1012900025346858000000002C4759524F3A253633
:1012A00068643A253668643A2536686400000000B0
:1012B0002C4143433A253468583A253468583A2536
:1012C000346858002C4143433A253668643A253641
:1012D00068643A25366864002C53484F434B3A25DE
:1012E000580000002C53484F434B3A25640000003F
:1012F00070B596B006460C46502102A8FFF736FBA3
:1013000002A82168FFF78DFA01252EE054F8250088
:101310001CA1FFF753FBB8B90020019001A90220DE
:1013200003F037F919A102A8FFF77BFA9DF8040032
:10133000712804D116A102A8FFF773FA03E018A1DF
:1013400002A8FFF76EFA00BF54F8250019A1FFF7B5
:1013500035FB40B90DA102A8FFF763FA17480168F1
:1013600002A8FFF75EFA681CC5B2B542CEDB02A840
:10137000FFF738FA85B2294602A803F0E5FA16B05D
:1013800070BD00004D454D53000000002C000000D2
:101390004D454D535F415641494C41424C4500003B
:1013A0004D454D535F4E4F545F415641494C41426C
:1013B0004C45000056455253494F4E00080000204E
:1013C000F8B505460C46002000902068122800D889
:1013D00004E040F2155172A002F0C7FF606818B136
:1013E0006068102800D804E040F216516CA002F0AA
:1013F000BCFFA068A0B1A068012811D0A068022895
:101400000ED0A06803280BD0A068042808D0A068DC
:10141000052805D0A068062802D0A068072800D1BA
:1014200004E040F217515EA002F09FFF00BF95F864
:101430003C00012801D10220F8BD012085F83C00C4
:1014400000BF2068092816D92868C06821780A39A1
:1014500001EB41020721914088432968C860217847
:101460000A3901EB4101A06888402968C96808432E
:101470002968C86013E028680069217801EB4102FF
:1014800007219140884329680861217801EB4101D7
:10149000A06888402968096908432968086160686C
:1014A000072817D22868406B2179491E01EB810279
:1014B0001F219140884329684863208880B22179A0
:1014C000491E01EB810188402968496B084329685E
:1014D000486331E060680D2817D22868006B2179D5
:1014E000C91F01EB81021F219140884329680863CD
:1014F000208880B22179C91F01EB810188402968C9
:10150000096B08432968086316E02868C06A2179D6
:101510000D3901EB81021F21914088432968C8627F
:10152000208880B221790D3901EB8101884029683A
:10153000C96A08432968C862214E2249286888423E
:1015400006D12068122803D1706840F480007060D2
:101550001C49286888421CD12068102802D02068C5
:10156000112816D1706840F40000706020681028BF
:101570000FD1154800681549B0FBF1F000EB800071
:101580004000009002E00098401E00900098002863
:10159000F9D100BF002085F83C0000BF00BF4BE739
:1015A00070726F6A6563745C48414C5C73746D3330
:1015B00032663478785F68616C5F6164632E6300C3
:1015C00000230140002001400000002040420F00A5
:1015D000704770477047000070B5044600250CB98D
:1015E000012070BD85492068884200D104E040F2A6
:1015F0000B1183A002F0B9FE606858B16068B0F5C5
:10160000803F07D06068B0F5003F03D06068B0F558
:10161000403F00D104E04FF4867179A002F0A5FEAE
:10162000A06858B1A068B0F1807F07D0A068B0F181
:10163000007F03D0A068B0F1407F00D104E040F209
:101640000D116FA002F091FE206910B120690128F0
:1016500000D104E04FF4877169A002F086FEA06912
:1016600010B1A069012800D104E040F20F1164A07C
:1016700002F07BFEA06AE8B3A06AB0F1807F3DD0A3
:10168000A06AB0F1007F39D0A06AB0F1407F35D0B8
:10169000A06AB0F1806F31D0A06AB0F1A06F2DD0F8
:1016A000A06AB0F1C06F29D0A06AB0F1E06F25D078
:1016B000A06AB0F1006F21D0A06AB0F1106F1DD008
:1016C000A06AB0F1206F19D0A06AB0F1306F15D0C8
:1016D000A06AB0F1406F11D0A06AB0F1506F0DD088
:1016E000A06AB0F1606F09D0A06AB0F1706F05D048
:1016F0004B4900E002E0A06A884200D104E04FF4C8
:1017000088713FA002F031FEE06818B1E068B0F5E2
:10171000006F00D104E040F2111139A002F025FE63
:10172000E06918B1E069102800D804E04FF489712D
:1017300033A002F01AFE206B10B1206B012800D1FB
:1017400004E040F213112EA002F00FFE60690128A0
:1017500004D0606910B16069022800D104E04FF440
:101760008A7127A002F001FE206A10B1206A0128C8
:1017700000D104E040F2151121A002F0F6FD284945
:10178000A06A884213D0E06A58B1E06AB0F1805F85
:1017900007D0E06AB0F1005F03D0E06AB0F1405FCB
:1017A00000D104E040F2191115A002F0DEFD206C1A
:1017B00030B90020606484F83C00204600F032F824
:1017C000206C00F0100088B9206C20F4885040F0A4
:1017D000020020642046FFF7F3FA00206064206CCA
:1017E00020F0020040F00100206400E0012500BF6D
:1017F000002084F83C0000BF2846F2E600200140AB
:1018000070726F6A6563745C48414C5C73746D33CD
:1018100032663478785F68616C5F6164632E630060
:101820000100000F70470000F8B504460D4616464B
:1018300000200090A06910B1A069012800D104E047
:1018400040F2054153A002F090FDE06A58B1E06A11
:10185000B0F1805F07D0E06AB0F1005F03D0E06ACA
:10186000B0F1405F00D104E040F2064149A002F02F
:101870007CFD00BF94F83C00012801D10220F8BD96
:10188000012084F83C0000BF2068806800F001005F
:10189000A0B92068806840F0010021688860454850
:1018A00000684549B0FBF1F000EB4000009002E019
:1018B0000098401E009000980028F9D120688068A8
:1018C00000F00100002862D0206C40F201618843E2
:1018D00040F4807020642068406800F4806028B183
:1018E000206C20F4005040F480502064206C00F400
:1018F000805020B1606C20F00600606401E00020A0
:10190000606400BF002084F83C0000BF2B4F2C48CF
:10191000A16BC8632B48A16B08642B48A16BC864FA
:101920006FF02200216808602068406840F0806005
:10193000216848602068806840F480702168886071
:10194000226802F14C0133462A46A06B00F038FAB7
:10195000786800F01F0058B92068806800F0405097
:1019600028B92068806840F08040216888600EE0D7
:101970001649206888420AD12068806800F04050EB
:1019800028B92068806840F0804021688860002085
:1019900075E7000070726F6A6563745C48414C5C67
:1019A00073746D3332663478785F68616C5F61643C
:1019B000632E63000000002040420F00002301401E
:1019C000290D0008B10D0008970D00080020014006
:1019D00070B50446A56D00F061FC064694F835002C
:1019E000022808D08020606500BF002084F8340001
:1019F00000BF012070BD2068006820F0160021683B
:101A000008602068406920F0800021684861206CEF
:101A100008B9A06C28B12068006820F0080021688F
:101A200008602068006820F00100216808600FE06D
:101A300000F034FC801B05280AD92020606500BF17
:101A4000002084F8340000BF032084F83500D1E77B
:101A50002068006800F001000028E9D194F85C10CB
:101A60003F208840A86000BF002084F8340000BFF9
:101A7000012084F835000020BCE700002DE9F0418A
:101A80000446002500F00AFC074614B90120BDE811
:101A9000F081C0492068884249D0BE491831206889
:101AA000884244D0BB493031206888423FD0B94990
:101AB0004831206888423AD0B6496031206888426F
:101AC00035D0B44978312068884230D0B14990315E
:101AD000206888422BD0AF49A8312068884226D0A0
:101AE000AD492068884222D0AB491831206888422D
:101AF0001DD0A94930312068884218D0A649483104
:101B00002068884213D0A4496031206888420ED0F2
:101B1000A14978312068884209D09F4990312068D6
:101B2000884204D09C49A8312068884200D103E053
:101B3000C8219AA002F019FC6068D8B16068B0F1C1
:101B4000007F17D06068B0F1806F13D06068B0F18B
:101B5000C06F0FD06068B0F1006F0BD06068B0F15B
:101B6000206F07D06068B0F1406F03D06068B0F1BB
:101B7000606F00D103E0C92188A002F0F6FBA068E5
:101B800028B1A068402802D0A068802800D103E0D6
:101B9000CA2182A002F0E9FBE068B0F5007F01D025
:101BA000E06800B903E0CB217CA002F0DEFB2069F5
:101BB000B0F5806F01D0206900B903E0CC2177A097
:101BC00002F0D3FB606938B16069B0F5006F03D0F3
:101BD0006069B0F5805F00D103E0CD216FA002F015
:101BE000C4FBA06938B1A069B0F5005F03D0A0695B
:101BF000B0F5804F00D103E0CE2168A002F0B5FB24
:101C0000E06930B1E069B0F5807F02D0E06920285A
:101C100000D103E0CF2161A002F0A7FB206A58B1F8
:101C2000206AB0F5803F07D0206AB0F5003F03D0AE
:101C3000206AB0F5403F00D103E0D02157A002F068
:101C400094FB606A10B1606A042800D103E0D121DE
:101C500052A002F08AFB606A002835D0A06A40B129
:101C6000A06A012805D0A06A022802D0A06A032831
:101C700000D103E0D62149A002F077FBE06A58B119
:101C8000E06AB0F5000F07D0E06AB0F1807F03D0C2
:101C9000E06AB0F1C07F00D103E0D7213FA002F09D
:101CA00064FB206B58B1206BB0F5001F07D0206B90
:101CB000B0F5800F03D0206BB0F5C00F00D103E06A
:101CC000D82136A002F051FB00BF002084F8340078
:101CD00000BF022084F835002068006820F0010071
:101CE000216808600AE000F0D9FAC01B052805D970
:101CF00020206065032084F83500C8E6206800686D
:101D000000F001000028EED1206805682B4805404E
:101D1000D4E901010843E168084321690843616986
:101D20000843A1690843E1690843216A0843054360
:101D3000606A042803D1D4E90B01084305432068F5
:101D400005602068456925F00705606A0543606AFB
:101D500004280DD1A06A0543E06A48B12046FFF788
:101D600015F928B140206065012084F835008EE621
:101D7000206845612046FFF7EFF8064694F85C10AE
:101D80003F208840B06000206065012084F8350065
:101D900000207CE6106002401064024070726F6A9E
:101DA0006563745C48414C5C73746D33326634789F
:101DB000785F68616C5F646D612E63003F8010F036
:101DC0002DE9F04704460E4617461D464FF0000821
:101DD000D4F858901DB1B5F5803F00D204E04FF41F
:101DE000EA7124A002F0C1FA00BF94F8340001287F
:101DF00002D10220BDE8F087012084F8340000BF42
:101E000094F8350001282BD1022084F835000020F9
:101E100060652B463A4631462046FFF70CF994F8A8
:101E20005C103F208840C9F808002068006840F036
:101E30001600216808602068406940F08000216831
:101E40004861206C28B12068006840F008002168D3
:101E500008602068006840F001002168086006E022
:101E600000BF002084F8340000BF4FF00208404655
:101E7000C0E7000070726F6A6563745C48414C5C37
:101E800073746D3332663478785F68616C5F646D4B
:101E9000612E63002DE9F84306460C464FF0000919
:101EA000C8460025CD4886420ED0CD4886420BD08C
:101EB000CC48864208D0CC48864205D0CB488642E2
:101EC00002D0CB48864200D103E0C321C9A002F072
:101ED0004CFA208880B220B120686FF30F0000B95F
:101EE00003E0C421C3A002F040FA606830B3606828
:101EF000012823D06068112820D0606802281DD0F6
:101F0000606812281AD0C4496068884216D0C34954
:101F10006068884212D0C249606888420ED0C149C8
:101F2000606888420AD0C0496068884206D0BF49CC
:101F30006068884202D06068032800D103E0C521B0
:101F4000ACA002F012FAA06828B1A068012802D063
:101F5000A068022800D103E0C621A6A002F005FA7D
:101F6000002736E1012000FA07F9206800EA090895
:101F7000C8457DD16068022802D06068122863D10C
:101F80002069E8B32069092845D02069C0B32069D9
:101F9000B0B32069A0B3206990B3206901283AD07A
:101FA0002069012837D02069022834D0206902280E
:101FB00031D0206902282ED0206904282BD0206936
:101FC000042828D02069042825D02069052822D09B
:101FD000206905281FD0206906281CD02069052803
:101FE00019D02069072816D02069072813D0206946
:101FF000082810D020690A280DD02069092800E09F
:1020000009E008D02069092805D020690C2802D0F1
:1020100020690F2800D103E0D72176A002F0A5F9AE
:10202000F90806F1200050F821507807C10E0F2062
:10203000884085437907C90E206988400543F9081F
:1020400006F1200040F821503568790003208840CF
:102050008543207900F0030079008840054335600E
:10206000606801280AD06068022807D0606800E034
:10207000AEE0112802D06068122823D1E06840B198
:10208000E068012805D0E068022802D0E068032853
:1020900000D103E0EA2157A002F067F9B5687900A2
:1020A0000320884085437900E06888400543B56097
:1020B00075680120B84085432079C0F30010B8400E
:1020C00005437560F56879000320884085437900F1
:1020D000A06888400543F560606800F08050B0F16A
:1020E000805F75D100BF002000905148006840F427
:1020F00080404F4908600846006800F48040009026
:1021000000BF00BF4B48B90850F82150B807010F75
:102110000F20884085433148864201D1002014E0D9
:102120002F48864201D101200FE02E48864201D17E
:1021300002200AE02C48864201D1032005E02B480A
:10214000864201D1042000E00720B907090F88402A
:1021500005433848B90840F821503748056825EA52
:102160000805606800F48030B0F5803F01D145EA91
:10217000080531480560001D056825EA0805606806
:1021800000F40030B0F5003F01D145EA08052A48C7
:10219000001D0560001D056825EA0805606800F45B
:1021A0008010B0F5801F01D145EA080522480830AB
:1021B0000560001D056825EA0805606800F4001048
:1021C000B0F5001F01D145EA08051B480C30056039
:1021D0007F1C102FFFF4C6AEBDE8F883000002405C
:1021E0000004024000080240000C024000100240BF
:1021F000001C024070726F6A6563745C48414C5CFD
:1022000073746D3332663478785F68616C5F6770C1
:10221000696F2E6300000000000011100000211003
:1022200000003110000012100000221000003210D7
:102230004438024008380140003C014070B5064671
:102240000C461546A0B218B1200C000400B904E0F9
:1022500040F2AF1108A002F088F80DB1012D00D1B5
:1022600004E04FF4D87104A002F07FF80DB1B4611E
:1022700001E02004B06170BD70726F6A6563745CC8
:1022800048414C5C73746D3332663478785F6861B2
:102290006C5F6770696F2E63000000000148006882
:1022A000704700000400002002480068401C0149FB
:1022B000086070470400002010B50D48006840F425
:1022C00000700B4908600846006840F480600860B0
:1022D0000846006840F480700860032000F0A6F80B
:1022E0000F2000F007F800F019F8002010BD0000E2
:1022F000003C024070B50446074800684FF47A710C
:10230000B0FBF1F5284601F032FA00222146501EBA
:1023100000F02EF8002070BD000000207047000083
:1023200010B50446002C00DB03E0CE2107A002F02C
:102330001CF800BF04F01F010120884061098900DA
:1023400001F1E021C1F8000100BF10BD70726F6A99
:102350006563745C48414C5C73746D3332663478E9
:10236000785F68616C5F636F727465782E630000DC
:102370002DE9F05F80460C4615460027102D00D24F
:1023800003E0BA2120A001F0F0FF102C00D203E0FE
:10239000BB211DA001F0E9FF01F094FB074639467F
:1023A00022462B4601F00700C0F1070ABAF1040FDC
:1023B00002D94FF0040A01E0C0F1070AD14600F14A
:1023C000040ABAF1070F02D24FF0000A01E0A0F1AF
:1023D000030AD4464FF0010A0AFA09FAAAF1010ADF
:1023E0000AEA020A0AFA0CFA4FF0010B0BFA0CFB8C
:1023F000ABF1010B0BEA030B4AEA0B0631464046F0
:1024000001F068FBBDE8F09F70726F6A6563745CF1
:1024100048414C5C73746D3332663478785F686120
:102420006C5F636F727465782E63000010B50446AC
:10243000072C07D0062C05D0052C03D0042C01D086
:10244000032C00D103E0A22109A001F08EFF00BF00
:1024500004F007010F4A10684FF6FF0210400E4AC1
:10246000024342EA01200B4A106000BF10BD000089
:1024700070726F6A6563745C48414C5C73746D3351
:1024800032663478785F68616C5F636F7274657808
:102490002E6300000CED00E00000FA0570B5044664
:1024A0000D460CB9012070BD2068012803D32068B7
:1024B0000F2800D804E04FF4107195A001F055FFEB
:1024C0006DB1012D0BD0022D09D0032D07D0042DA5
:1024D00005D0052D03D0062D01D0072D00D104E035
:1024E00040F241218AA001F040FF9148006800F0CD
:1024F0000F00A84209D28E490D700846006800F00E
:102500000F00A84201D00120CDE7207800F00200A2
:1025100002283DD1207800F00400042805D1854828
:10252000006840F4E05083490860207800F008001B
:10253000082805D17F48006840F460407D49086064
:10254000A068B8B1A068802814D0A068902811D0E5
:10255000A068A0280ED0A068B0280BD0A068C02822
:1025600008D0A068D02805D0A068E02802D0A068D4
:10257000F02800D104E04FF4197165A001F0F5FED8
:102580006C48006820F0F000A168084369490860C1
:10259000207800F0010000284ED0606840B16068EB
:1025A000012805D06068022802D06068032800D1A5
:1025B00004E040F26B2156A001F0D7FE60680128CC
:1025C00007D15C4808380068C0F34040B8B9012022
:1025D00069E76068022802D06068032807D155487F
:1025E00008380068C0F3406048B901205BE75148F3
:1025F00008380068C0F3400008B9012053E74D488F
:10260000006820F00300616808434A490860FFF74A
:1026100045FE064608E0FFF741FE801B41F2883187
:10262000884201D903203EE74248006800F00C00D0
:102630006168B0EB810FEED13D48006800F00F00FB
:10264000A84209D93A490D700846006800F00F0009
:10265000A84201D0012026E7207800F004000428D9
:102660001FD1E06878B1E068B0F5805F0BD0E0681A
:10267000B0F5A05F07D0E068B0F5C05F03D0E068B8
:10268000B0F5E05F00D104E040F2A92120A001F004
:102690006CFE2848006820F4E050E16808432549B2
:1026A0000860207800F00800082820D1206978B15F
:1026B0002069B0F5805F0BD02069B0F5A05F07D02E
:1026C0002069B0F5C05F03D02069B0F5E05F00D1AC
:1026D00004E04FF42C710EA001F047FE154800688D
:1026E00020F46040216940EAC1001249086000F00E
:1026F0004DF810490968C1F303110F4A515CC840F5
:102700000E4908600F20FFF7F5FD0020CBE6000022
:1027100070726F6A6563745C48414C5C73746D33AE
:1027200032663478785F68616C5F7263632E630031
:10273000003C024008380240964C0008000000208F
:1027400001480068704700000000002000B5FFF756
:10275000F7FF04490968C1F38221034A515CC8406C
:1027600000BD000008380240A64C000800B5FFF785
:10277000E7FF04490968C1F34231034A515CC8408C
:1027800000BD000008380240A64C00082DE9F047C3
:10279000002400250026A1462548006800F00C0012
:1027A00020B1042805D008283AD105E0DFF884904C
:1027B00039E0DFF8809036E01D48001F006800F027
:1027C0003F041B48001F006800F4800078B11948DE
:1027D0001749091F0968C1F38811A0FB0170014660
:1027E000224600233846FDF703FE05460EE0114859
:1027F0000F49091F0968C1F38811A0FB0170014648
:10280000224600233846FDF7F3FD05460848001F21
:102810000068C0F30140401C4600B5FBF6F902E039
:10282000DFF8109000BF00BF4846BDE8F087000009
:10283000083802400024F40038B504460CB90120E1
:1028400038BD20680F2800D803E0F821FBA001F074
:102850008CFD207800F00100002870D0606838B14D
:102860006068B0F5803F03D06068B0F5A02F00D15C
:1028700003E0FD21F1A001F078FDF848006800F0C8
:102880000C0004280DD0F548006800F00C00082862
:1028900013D1F248001F006800F48000B0F5800FEB
:1028A0000BD1EE4808380068C0F34040002859D0EA
:1028B0006068002856D10120C2E700BF6068B0F50B
:1028C000803F08D1E5480838006840F48030E3498B
:1028D000083908601EE06068B0F5A02F0DD1DF4810
:1028E0000838006840F48020DC4908390860084650
:1028F000006840F4803008600CE0D8480838006870
:1029000020F48030D549083908600846006820F472
:102910008020086000BF606890B1FFF7BFFC0546EB
:1029200006E0FFF7BBFC401B642801D9032087E7C2
:10293000CA4808380068C0F340400028F1D011E0D0
:10294000FFF7ACFC054606E0FFF7A8FC401B642837
:1029500001D9032074E7C14808380068C0F340403B
:102960000028F1D1207800F00200022873D1E0683D
:1029700010B1E068012800D104E040F22F11AFA0AF
:1029800001F0F3FC20691F2800D804E04FF498718F
:10299000AAA001F0EAFCB148006800F00C0058B1B0
:1029A000AE48006800F00C0008281CD1AB48001F9E
:1029B000006800F48000B0B9A84808380068C0F387
:1029C000400020B1E068012801D0012038E7A34889
:1029D0000838006820F0F800216940EAC1009F49EA
:1029E0000839086037E0E06800B301209C490860BE
:1029F000FFF754FC054606E0FFF750FC401B022899
:102A000001D903201CE7954808380068C0F340004E
:102A10000028F1D091480838006820F0F8002169BA
:102A200040EAC1008D490839086014E000208C4953
:102A30000860FFF733FC054606E0FFF72FFC401B5C
:102A4000022801D90320FBE6844808380068C0F357
:102A500040000028F1D1207800F00800082837D184
:102A6000606910B16069012800D104E04FF4B871C9
:102A700072A001F07AFC6069A8B101207949086070
:102A8000FFF70CFC054606E0FFF708FC401B022898
:102A900001D90320D4E671486C300068C0F34000CF
:102AA0000028F1D014E000206E490860FFF7F6FB23
:102AB000054606E0FFF7F2FB401B022801D9032080
:102AC000BEE666486C300068C0F340000028F1D1D3
:102AD000207800F00400042871D1A06828B1A06813
:102AE000012802D0A068052800D104E04FF4CD7180
:102AF00052A001F03AFC00BF002000905748383047
:102B0000006840F080505549383108600846006838
:102B100000F08050009000BF00BF5348006840F4B0
:102B2000807051490860FFF7B9FB054606E0FFF7E2
:102B3000B5FB401B022801D9032081E64A48006802
:102B400000F480700028F2D000BFA068012808D1EE
:102B500042486830006840F0010040496831086030
:102B60001DE0A06805280DD13C486830006840F0A1
:102B700004003A49683108600846006840F00100E6
:102B800008600CE035486830006820F001003349E7
:102B9000683108600846006820F00400086000BF43
:102BA000A068A8B1FFF77AFB054609E0FFF776FBBE
:102BB000401B41F28831884202D9032040E61BE0E5
:102BC000264868300068C0F340000028EED013E0CB
:102BD000FFF764FB054608E0FFF760FB401B41F28E
:102BE0008831884201D903202AE61C4868300068F1
:102BF000C0F340000028EFD1A06928B1A0690128E6
:102C000002D0A069022800D104E040F2CF110BA04D
:102C100001F0ABFBA069002874D01048006800F0F8
:102C20000C0008286FD0A06902286DD1E06918B1A6
:102C3000E069B0F5800F19D11EE0000070726F6A74
:102C40006563745C48414C5C73746D3332663478F0
:102C5000785F68616C5F7263632E630008380240BE
:102C600000004742800E4742007000404FF4EC7174
:102C7000AFF2380001F079FB206A3F2800D805E068
:102C800040F2D911AFF24C0001F06FFB606A3228BC
:102C900004D3606AB0F5D87F00D805E04FF4ED7139
:102CA000AFF2680001F061FBA06A022808D0A06AB8
:102CB000042805D0A06A062802D0A06A082800D1FE
:102CC00005E040F2DB11AFF28C0001F04EFBE06A50
:102CD000022803D3E06A0F2800D805E04FF4EE7114
:102CE000AFF2A80001F041FB00202B490866FFF776
:102CF000D5FA054609E0FFF7D1FA401B022804D9AE
:102D000003209DE546E043E02DE024480068C0F341
:102D100040600028EFD1D4E907010843616A40EA26
:102D200081110122A06AC2EB500041EA00412C202F
:102D3000005D41EA00601949091D0860012016493B
:102D40000866FFF7ABFA054606E0FFF7A7FA401B57
:102D5000022801D9032073E510480068C0F34060E1
:102D60000028F2D016E000200B490866FFF796FA1B
:102D7000054606E0FFF792FA401B022801D903201E
:102D80005EE506480068C0F340600028F2D101E02B
:102D9000012055E5002053E500004742003802407D
:102DA00010B504460CB9012010BD7C49206888424A
:102DB0000BD07B492068884207D07A492068884236
:102DC00003D079492068884200D104E04FF487712C
:102DD00076A001F0CAFA606818B16068B0F5827F29
:102DE00000D104E040F20F1170A001F0BEFAA0681B
:102DF00038B1A068B0F5806F03D0A068B0F5004F7F
:102E000000D104E04FF4887168A001F0AEFAE068E8
:102E1000B0F5006F01D0E06800B904E040F2111194
:102E200062A001F0A2FAA069B0F5007F05D0A06908
:102E300018B1A069B0F5802F00D104E04FF489717A
:102E40005AA001F092FAE069A0B1E069082811D017
:102E5000E06910280ED0E06918280BD0E06920281E
:102E600008D0E069282805D0E069302802D0E06960
:102E7000382800D104E040F213114CA001F075FA9B
:102E8000206A10B1206A802800D104E04FF48A71D2
:102E900046A001F06AFA606A10B1606A102800D199
:102EA00004E040F2151141A001F05FFA606AA8B990
:102EB000206910B12069022800D104E04FF48C7120
:102EC0003AA001F052FA606910B16069012800D19E
:102ED00004E040F2191135A001F047FAA06A18B1D8
:102EE000A06AB0F5005F00D104E04FF48E712FA00E
:102EF00001F03BFAA06AB0F5005F0BD1E06A20B1A7
:102F0000E06AB0F5803F00D204E040F21F1127A034
:102F100001F02BFA94F8510028B9002084F85000F1
:102F2000204600F053F8022084F851002068006821
:102F300020F0400021680860D4E901010843E168FD
:102F400008432169084361690843218B01F400713A
:102F50000843E1690843216A0843A16A08432168DC
:102F600008600421A06901EA1040616A08432168F1
:102F70004860A06AB0F5005F02D12168E06A08618C
:102F80002068C06920F400602168C8610020606585
:102F9000012084F85100002006E7000000300140C5
:102FA00000380040003C00400034014070726F6AFD
:102FB0006563745C48414C5C73746D33326634787D
:102FC000785F68616C5F7370692E630070472DE9EC
:102FD000FC4704460D4617461E46002001908046D9
:102FE00081466068B0F5827F0DD1A06858B9042091
:102FF00084F851003B462A4629462046009600F0B8
:1030000005FABDE8FC8700BF94F85000012801D103
:103010000220F6E7012084F8500000BFFFF73EF9D8
:10302000804694F85100012802D04FF00209D6E002
:1030300005B117B94FF00109D1E0042084F851001F
:1030400000206065A563A787E7872063A086E086E8
:1030500020646064A06AB0F5005F11D100BF2068F1
:1030600000684DF6FF71084021680860206800681C
:1030700040F400502168086000BFE08F401EE087E8
:10308000A068B0F5004F05D12068006820F48040AA
:10309000216808602068006800F04000402805D0E2
:1030A0002068006840F0400021680860E068E8B9E6
:1030B00018E02068806800F0010038B12068007BCB
:1030C00028706D1CE08F401EE0870BE03EB1701C45
:1030D00040B1FFF7E3F8A0EB0800B04202D34FF095
:1030E00003097CE0E08F0028E3D11CE018E02068B1
:1030F000806800F0010038B12068C0682880AD1CED
:10310000E08F401EE0870BE03EB1701C40B1FFF73E
:10311000C5F8A0EB0800B04202D34FF003095EE00F
:10312000E08F0028E3D1A06AB0F5005F32D12068BB
:10313000006840F48050216808603346012211463F
:103140002046CDF8008000F031FD10B14FF00309AA
:1031500045E0E068B0F5006F03D12068C0682880C2
:1031600002E02068007B2870334601221146204689
:10317000CDF8008000F01AFD30B1606D40F0020023
:1031800060654FF003092AE02068C06880B20190B2
:10319000BDF804006068B0F5827F0DD1A068B0F57D
:1031A000004F03D0A068B0F5806F05D1206800689B
:1031B00020F04000216808602068806800F010005E
:1031C000102807D1606D40F0020060654FF6EF7087
:1031D00021688860606D08B14FF0010900BF0120CF
:1031E00084F8510000BF002084F8500000BF48461A
:1031F00007E700002DE9F84304460D4617461E4632
:103200004FF00008C146A06818B1A068B0F5004FA3
:1032100000D104E040F2C51174A001F0A6F800BF8F
:1032200094F85000012802D10220BDE8F883012063
:1032300084F8500000BFFFF731F8804694F8510041
:10324000012802D04FF00209C6E005B117B94FF0CE
:103250000109C1E0032084F8510000206065256366
:10326000A786E786A063A087E08760642064A068E3
:10327000B0F5004F05D12068006840F48040216817
:103280000860A06AB0F5005F0ED100BF206800683A
:103290004DF6FF710840216808602068006840F41E
:1032A00000502168086000BF2068006800F04000FE
:1032B000402805D02068006840F040002168086080
:1032C000E068B0F5006F2AD1606810B1E08E012887
:1032D00006D128882168C860AD1CE08E401EE086BB
:1032E00019E02068806800F00200022807D12888D1
:1032F0002168C860AD1CE08E401EE0860BE03EB148
:10330000701C40B1FEF7CAFFA0EB0800B04202D328
:103310004FF0030960E0E08E0028E2D129E0606808
:1033200010B1E08E012806D12878216808736D1C41
:10333000E08E401EE08619E02068806800F0020000
:10334000022807D12878216808736D1CE08E401E82
:10335000E0860BE03EB1701C40B1FEF79FFFA0EB92
:103360000800B04202D34FF0030935E0E08E002898
:10337000E2D13346012202212046CDF8008000F040
:1033800015FC10B14FF0030926E0424631462046B5
:1033900000F0F8FB20B14FF00109202060651BE030
:1033A000A06850B900BF002000902068C06800905D
:1033B00020688068009000BF00BFA06AB0F5005F81
:1033C00005D12068006840F4805021680860606D75
:1033D00008B14FF0010900BF012084F8510000BF7F
:1033E000002084F8500000BF48461EE770726F6AE4
:1033F0006563745C48414C5C73746D333266347839
:10340000785F68616C5F7370692E63002DE9FF5F00
:1034100004460D4616461F46DDF838804FF0000A78
:1034200000200390029081464FF0010B0190A068AC
:1034300000B904E040F23A31ABA000F096FF00BFC3
:1034400094F85000012803D1022004B0BDE8F09F99
:10345000012084F8500000BFFEF720FF814694F859
:1034600051A060680390BAF1010F0BD00398B0F53A
:10347000827F04D1A06810B9BAF1040F02D00220F3
:10348000019027E10DB106B117B90120019021E1AA
:1034900094F85100012802D1052084F85100002041
:1034A0006065A663E787A7872563E786A78620640C
:1034B0006064A06AB0F5005F0ED100BF20680068AC
:1034C0004DF6FF710840216808602068006840F4EC
:1034D00000502168086000BF2068006800F04000CC
:1034E000402805D02068006840F04000216808604E
:1034F000E068B0F5006F4FD1606810B1E08E012830
:1035000006D128882168C860AD1CE08E401EE08688
:103510003BE0BBF1000F1CD0E08ED0B1206880688A
:1035200000F00200022814D128882168C860AD1C70
:10353000E08E401EE0864FF0000BE08E48B9A06A96
:10354000B0F5005F05D12068006840F48050216824
:103550000860E08F68B12068806800F0010040B129
:103560002068C0683080B61CE08F401EE0874FF0B6
:10357000010B08F1010040B1FEF790FEA0EB09003D
:10358000404502D303200190A4E0E08E0028C0D182
:10359000E08F0028BDD14EE0606810B1E08E0128B8
:1035A00006D12878216808736D1CE08E401EE086E5
:1035B0003BE0BBF1000F1CD0E08ED0B120688068EA
:1035C00000F00200022814D115F8010B21680873DD
:1035D000E08E401EE0864FF0000BE08E48B9A06AF6
:1035E000B0F5005F05D12068006840F48050216884
:1035F0000860E08F68B12068806800F0010040B189
:103600002068C06806F8010BE08F401EE0874FF08D
:10361000010B08F1010040B1FEF740FEA0EB0900EC
:10362000404502D30320019054E0E08E0028C0D131
:10363000E08F0028BDD1A06AB0F5005F15D14346E8
:10364000012211462046CDF8009000F0AFFA30B1CB
:10365000606D40F002006065032001903AE0206850
:10366000C06880B20290BDF808002068806800F051
:103670001000102809D1606D40F0020060654FF61F
:10368000EF702168886001200190434601220221E9
:103690002046CDF8009000F089FA10B10320019087
:1036A00018E04A464146204600F06CFA20B101205D
:1036B0000190202060650DE0A06850B900BF002097
:1036C00000902068C068009020688068009000BF6B
:1036D00000BF00BF012084F8510000BF002084F823
:1036E000500000BF0198B0E670726F6A6563745C49
:1036F00048414C5C73746D3332663478785F68612E
:103700006C5F7370692E630010B50446042C00D002
:1037100004B904E040F2DB110BA000F026FE042CFB
:1037200008D14FF0E020006940F004004FF0E021A4
:10373000086107E04FF0E020006920F004004FF03E
:10374000E021086110BD000070726F6A6563745CEF
:1037500048414C5C73746D3332663478785F6861CD
:103760006C5F636F727465782E630000704701466A
:103770000020704710B5FFF7F9FF10BD10B50446E3
:103780002068C06820F490702168C8602068406993
:1037900020F00100216848612068406900F0400085
:1037A00068B12068406920F0400021684861606B82
:1037B00028B10020616B0865606BFEF709F90020F5
:1037C000E085202084F83A00002010BD10B50446A2
:1037D0002068C06820F0C0002168C8602068406987
:1037E00000F0800068B12068406920F08000216806
:1037F0004861206B28B10020216B0865206BFEF723
:10380000E7F80020E084202084F83900002010BD73
:103810007047000010B504460CB9012010BDA06926
:10382000002826D040492068884207D03F492068B8
:10383000884203D03E492068884200D104E04FF41A
:1038400080713CA000F091FDA06958B1A069B0F56D
:10385000807F07D0A069B0F5007F03D0A069B0F5E4
:10386000407F00D117E040F2011132A000F07DFD51
:1038700011E02D492068884207D02C4920688842F1
:1038800003D02B492068884200D104E040F20511A2
:1038900028A000F06AFDA06818B1A068B0F5805FAC
:1038A00000D104E040F2071122A000F05EFDE069C3
:1038B00018B1E069B0F5004F00D104E04FF4847115
:1038C0001CA000F052FD94F8390028B9002084F8BB
:1038D0003800204600F040F8242084F839002068A1
:1038E000C06820F400502168C860204600F0FCFA4F
:1038F0002068006920F490402168086120684069D0
:1039000020F02A00216848612068C06840F4005017
:103910002168C8600020E063202084F8390084F822
:103920003A0000207AE70000001001400044004007
:103930000014014070726F6A6563745C48414C5CAE
:1039400073746D3332663478785F68616C5F75616B
:1039500072742E63000000007047000077B581B0DC
:103960000446154694F83A00202850D1029800B138
:1039700015B9012004B070BD00BF94F838000128CB
:1039800001D10220F6E7012084F8380000BF029838
:10399000A062A5850020E063222084F83A001D483B
:1039A000616BC8631C48616B08641C48616BC86428
:1039B0000020616B086502AE32682368191D2B4632
:1039C000606BFEF7FDF900BF0020009020680068E2
:1039D000009020684068009000BF00BF00BF00203A
:1039E00084F8380000BF2068C06840F48070216807
:1039F000C8602068406940F0010021684861206883
:103A0000406940F04000216848610020B2E7022090
:103A1000B0E700001D3E0008633E0008CD3D0008F1
:103A200070477047F7B50446154694F839002028CA
:103A30003DD1019800B10DB90120FEBD00BF94F841
:103A40003800012801D10220F7E7012084F838006E
:103A500000BF01982062A584E5840020E063212056
:103A600084F839001348216BC8631348216B08643C
:103A70001248216BC8640020216B086501AE2368E1
:103A80001A1D31682B46206BFEF79AF96FF0400043
:103A90002168086000BF002084F8380000BF20685B
:103AA000406940F08000216848610020C5E702209D
:103AB000C3E70000713E0008A73E0008CD3D0008A6
:103AC0007047704702480068C0F30220704700004A
:103AD0000CED00E010B5002807DA0A07140E054ABD
:103AE00000F00F031B1FD45403E00A07130E024A11
:103AF000135410BD18ED00E000E400E070B504467A
:103B00000D46042101A000F01FFF70BD504F4E472D
:103B10000000000070B504460D46082101A000F029
:103B200013FF70BD524553455256454400000000F6
:103B300070B504460D46082101A000F005FF70BDD8
:103B400052455345525645440000000070B50446A6
:103B50000D46092107A000F0F7FE00BF08480068E5
:103B6000006800F040004028F8D1012000F03CFF40
:103B700070BD0000504F574552204F464600000090
:103B800058000020F8B504460D4616462B46002284
:103B900080212046009600F009F828B1606D40F0C1
:103BA000200060650320F8BD0020FCE72DE9F0410E
:103BB00004460E4617461D46DDF818803FE0681C97
:103BC000E0B32DB1FEF76AFBA0EB0800A84236D3A4
:103BD0002068406820F0E000216848606068B0F527
:103BE000827F0DD1A068B0F5004F03D0A068B0F57A
:103BF000806F05D12068006820F0400021680860CF
:103C0000A06AB0F5005F0ED100BF206800684DF6D5
:103C1000FF710840216808602068006840F4005087
:103C20002168086000BF012084F8510000BF002017
:103C300084F8500000BF0320BDE8F081FFE7206852
:103C400080683040B04201D1012000E00020B8423D
:103C5000B5D10020F0E710B5FEF726FBFFF78AFD8F
:103C600010BD000010B592B000BF00200090384891
:103C7000006840F08000364908600846006800F09F
:103C80008000009000BF00BF00BF002000903048BF
:103C90001030006840F080502D491031086008460F
:103CA000006800F08050009000BF00BF00BF0020FF
:103CB00000902848006820F4404040F40040254926
:103CC00008600846006800F44040009000BF00BF54
:103CD000012006900004079002200C9041050D91F0
:103CE00008210E9154210F9102211091042111916C
:103CF00006A8FEF7A1FD18B13A2117A000F02CFB91
:103D00000E20019002200290002003904FF480507A
:103D1000049000200590022101A8FEF7BFFB18B116
:103D200048210DA000F018FBFEF70AFD4FF47A7150
:103D3000B0FBF1F42046FFF71AFD0420FFF7E4FC86
:103D400000221146501EFEF713FB12B010BD0000FA
:103D5000303802400070004070726F6A6563745CB6
:103D60006D61696E2E6300001448006840F47000B5
:103D7000124908601248006840F0010010490860CC
:103D800000200F49083108600D4800680D490840BF
:103D90000B4908600C48091D0860081F006820F4E2
:103DA0008020091F0860002005490C3108604FF091
:103DB00000600249803908607047000088ED00E02B
:103DC00000380240FFFFF6FE1030002470B50646B2
:103DD0000025B46B20684069C0F3C01594F8390021
:103DE000212805D125B10020E084204600F072F89A
:103DF00020684069C0F3801594F83A00222805D164
:103E000025B10020E085204600F054F8E06B40F03A
:103E10001000E0632046FFF7FBFC70BD70B505465F
:103E2000AC6B2868006800F48070B0B90020E085B1
:103E30002068C06820F480702168C86020684069EC
:103E400020F00100216848612068406920F04000AE
:103E500021684861202084F83A002046FFF7E0FD01
:103E600070BD70B50446A56B2846FFF7DAFD70BD3E
:103E700070B50546AC6B2868006800F4807070B9B6
:103E80000020E0842068406920F0800021684861BB
:103E90002068C06840F040002168C86002E0204609
:103EA000FFF70EFE70BD70B50446A56B2846FFF700
:103EB00008FE70BD0168C96821F490710268D16084
:103EC0000168496921F0010102685161202180F8EF
:103ED0003A1070470168C96821F0C0010268D160DA
:103EE000202180F8391070472DE9F0410446002563
:103EF000EF496068884200D204E040F68511EDA0E9
:103F000000F033FAE06818B1E068B0F5005F00D166
:103F100004E040F68611E7A000F027FA206938B1E6
:103F20002069B0F5806F03D02069B0F5C06F00D173
:103F300004E040F68711DFA000F017FA4FF6F371A6
:103F40006069084010B9606900B104E040F688116A
:103F5000D8A000F00AFA2068056925F44055E06809
:103F60000543206805612068C56849F20C608543F7
:103F70002169A068084361690843E1690843054372
:103F80002068C5602068456925F44075A06905432F
:103F900020684561E069B0F5004F7CD1CE492068CA
:103FA000884203D0CD49206888425DD1FEF7DEFB10
:103FB00000EBC00101EB001061684900B0FBF1F0BB
:103FC0006421B0FBF1F00601FEF7D0FB00EBC0016D
:103FD00001EB001061684900B0FBF1F7FEF7C6FB8A
:103FE00000EBC00101EB001061684900B0FBF1F08B
:103FF0006421B0FBF1F000EBC00101EB0010A7EB76
:104000008000322101EBC0006421B0FBF1F000F030
:10401000F80006EB4006FEF7A9FB00EBC00101EB40
:10402000001061684900B0FBF1F7FEF79FFB00EB61
:10403000C00101EB001061684900B0FBF1F06421A0
:10404000B0FBF1F000EBC00101EB0010A7EB80002A
:10405000322101EBC0006421B0FBF1F000F0070059
:1040600030442168886020E1FEF770FB00EBC0015E
:1040700001EB001061684900B0FBF1F06421B0FB76
:10408000F1F00601FEF762FB00EBC00101EB00104E
:104090006168490000E047E0B0FBF1F7FEF756FB2E
:1040A00000EBC00101EB001061684900B0FBF1F0CA
:1040B0006421B0FBF1F000EBC00101EB0010A7EBB5
:1040C0008000322101EBC0006421B0FBF1F000F070
:1040D000F80006EB4006FEF739FB00EBC00101EBF0
:1040E000001061684900B0FBF1F7FEF72FFB00EB11
:1040F000C00101EB001061684900B0FBF1F06421E0
:10410000B0FBF1F000EBC00101EB0010A7EB800069
:10411000322101EBC0006421B0FBF1F000F0070098
:10412000304421688860C0E06B492068884203D031
:104130006A49206888425CD1FEF718FB00EBC00199
:1041400001EB001061688900B0FBF1F6FEF70EFB91
:1041500000EBC00101EB001061688900B0FBF1F0D9
:104160006421B0FBF1F000EBC00101EB0010A6EB05
:104170008000322101EB00106421B0FBF1F000F06F
:10418000F006FEF7F3FA00EBC00101EB00106168E6
:104190008900B0FBF1F06421B0FBF1F006EB0016F2
:1041A000FEF7E4FA00EBC00101EB00106168890042
:1041B000B0FBF1F7FEF7DAFA00EBC00101EB0010FB
:1041C00061688900B0FBF1F06421B0FBF1F000EB15
:1041D000C00101EB0010A7EB8000322101EB0010C1
:1041E0006421B0FBF1F000F00F00304421688860DA
:1041F0005BE0FEF7ABFA00EBC00101EB0010616879
:104200008900B0FBF1F6FEF7A1FA00EBC00101EB6B
:10421000001061688900B0FBF1F06421B0FBF1F09F
:1042200000EBC00101EB0010A6EB8000322101EB96
:1042300000106421B0FBF1F000F0F006FEF786FA02
:1042400000EBC00101EB001061688900B0FBF1F0E8
:104250006421B0FBF1F006EB0016FEF777FA00EBF5
:10426000C00101EB001061688900B0FBF1F7FEF7B7
:104270006DFA00EBC00101EB001061688900B0FB32
:10428000F1F06421B0FBF1F000EBC00101EB001094
:10429000A7EB8000322101EB00106421B0FBF1F0AC
:1042A00000F00F00304421688860BDE8F081000014
:1042B000A137A00070726F6A6563745C48414C5C02
:1042C00073746D3332663478785F68616C5F7561E2
:1042D00072742E63000000000010014000140140C1
:1042E00008B51B480068006800F04000402818D15D
:1042F000C0431749096808601548FFF767FA144872
:104300000068C06840F0400011490968C860114861
:10431000006830B10F480068FBF7E7FF00200D4947
:1043200008600B480068006800F0100010280ED1EB
:1043300000BF002000900648006800680090044814
:1043400000684068009000BF00BF00F0D9F908BDC8
:10435000580000201000002000BFFEE730380A2877
:1043600001D2012070470020704700BFFEE7000027
:1043700010B50748FFF702FA402106480068FCF72D
:10438000D3FA4022034801680148FFF7E7FA10BD5D
:10439000580000200C00002000B587B000BF0020AE
:1043A00001906A48006840F00100684908600846CA
:1043B000006800F00100019000BF00BF07200690D8
:1043C000022003900C20029001200490032005900D
:1043D00002A95F48FDF75EFD00BF002001905B4829
:1043E0001030006840F40030584910310860084629
:1043F000006800F40030019000BF00BF55485649E6
:1044000008604FF47A304860002153488160C160F1
:1044100001610C21416100218161C161FFF7FAF95D
:1044200018B133214DA0FFF797FF00BF0020019086
:104430004648006840F40010444908600846006897
:1044400000F40010019000BF00BF4D484D490860C6
:104450004FF00060486000214A488160C1604FF41D
:1044600080610161002141618161C1614FF440318E
:10447000016200214162FDF701FB18B1452137A01F
:10448000FFF76AFF00BF3F483349486308463D498C
:10449000886300BF3A4818303B4908604FF000601D
:1044A00048604021384881600021C1604FF480613C
:1044B0000161002141618161C1614FF440310162BC
:1044C00000214162FDF7DAFA18B1562123A0FFF767
:1044D00043FF00BF2C482049086308462A498863E7
:1044E00000BF4020FBF7D2FE284908604021274842
:1044F0000068FCF719FA18480068C06840F05000DE
:1045000015490968C8606FF04000134909680860E0
:1045100000BF0020019010480068006801900E481C
:1045200000684068019000BF00BF002211462620AD
:10453000FDF71EFF2620FDF7F3FE40221348016819
:104540000548FFF70BFA07B000BD00003038024005
:1045500000000240004400405800002070726F6A62
:104560006563745C6D6F64756C65735C636F6E73AB
:104570006F6C655C636F6E736F6C652E630000001B
:104580008860024098000020F80000200C00002005
:10459000704770B505460C463DB1012D09D0022D7E
:1045A0000BD1204600F04AFB07E0204600F078F9E6
:1045B00003E0204600F06CF900BF00BF70BD0000B2
:1045C0000148008880B270475400002000B587B0D1
:1045D00000BF002001901648006840F00200144916
:1045E00008600846006800F00200019000BF00BFAC
:1045F000012003900002029000200490059002A97F
:104600000C48FDF747FC00224FF480710948FDF784
:1046100015FE4FF40070029002A90648FDF73AFC1F
:1046200000224FF400710348FDF708FE07B000BDFB
:10463000303802400004024070B505460C4600BF09
:10464000104800680028FBD1A01CFBF71FFE0D4995
:104650000860A11C0B480068FCF766F92246294651
:1046600008480068FCF7ACF8012207A1054800687B
:10467000FCF7A6F8601C82B2024801680348FFF705
:10468000D1F970BD100000200A0000005800002081
:10469000FDF712FEFFF7E6FA00F0D2F8002000F076
:1046A000A3F9FFF793FF0021084600F07DF90021F0
:1046B000012000F079F9FFF76FFE00F01BF800F021
:1046C000A3F9232102A0FFF7B7FF00E000BFFDE739
:1046D0005448495320495320414C504841205645A5
:1046E0005253494F4E20534142524520504F524A57
:1046F0004543540010B500F035FAFFF749FF10BDEF
:104700002DE9F0414948006800784D2803D0FFF7B3
:104710002FFEBDE8F0810A2144480068FCF746F806
:1047200010B9FFF725FEF4E7002740480068461C53
:104730000024002567E02C213046FCF737F8071EDF
:1047400045D10A213046FCF731F80746641CA10028
:104750002846FBF7F1FD0546B91B481CFBF796FD03
:10476000611E45F82100BA1B511C621E55F822003B
:10477000FCF7DAF8BA1B611E55F821003146FCF748
:104780005CF84FF000081BE0FFF7F2FD284A52F8F2
:1047900028102868FCF712F930B9264850F828206C
:1047A00029462046904710E0214908F1010051F8C0
:1047B000200018B9042120A000F0C6F808F1010873
:1047C0001B4850F828000028DED100BF1CE0641C04
:1047D000A1002846FBF7B0FD0546B91B481CFBF7B6
:1047E00055FD611E45F82100BA1B511C621E55F88B
:1047F0002200FCF799F8BA1B611E55F821003146DA
:10480000FCF71BF87E1C96E700BF4FF0000805E0A0
:1048100055F82800FBF769FD08F10108A045F7DB12
:104820002846FBF762FD00BF73E700000C00002084
:104830001C000020380000203430340A0000000042
:1048400000B587B000BF002001900F48006840F01D
:1048500002000D4908600846006800F0020001905F
:1048600000BF00BF012003900820029000200490A8
:10487000059002A90548FDF70DFB01220821034818
:10488000FDF7DCFC07B000BD3038024000040240F8
:1048900010B50446224606213B2000F009F810BD61
:1048A00010B5044622460621432000F001F810BD51
:1048B0002DE9F04107460D46144647F080001F4998
:1048C00008700020487000261FE000224FF480513D
:1048D0001B48FDF7B3FC4FF0FF330122174919487D
:1048E000FEF788FCA1194FF0FF3301221548FEF7AF
:1048F0006EFB012211031248FDF7A0FC0F4800785F
:10490000401C0E490870701CC6B2AE42DDDB284662
:1049100005EBD0714910A5EB410161B900200021E0
:1049200007E0215C421CA25C2254421CA154821C60
:10493000D0B20628F5DBBDE8F08100005000002071
:10494000000402405801002070B505460C4600BF27
:10495000124800680028FBD1E01CFBF797FC0F49C8
:104960000860E11C0D480068FBF7DEFF53200B498F
:10497000096808702246294608480068FBF720FFAE
:10498000012207A105480068FBF71AFFA01C82B2AC
:10499000024801680348FFF745F870BD1000002089
:1049A0000A0000005800002070B506460C460CB9FD
:1049B000002502E0012C00D1012516B1012E0ED1F7
:1049C00006E02A464FF480710648FDF737FC06E002
:1049D0002A464FF400710348FDF730FC00BF00BFCA
:1049E00070BD00000004024070B505460DB90124F9
:1049F00002E0012D00D10024224608210148FDF7E4
:104A00001DFC70BD0004024000B5A3B000BF002033
:104A100001904548006840F001004349086008469D
:104A2000006800F00100019000BF00BF03201F904C
:104A300001201E9000202090032021901EA93B48B9
:104A4000FDF728FA00BF00200190374814300068B5
:104A500040F480703449143108600846006800F45E
:104A60008070019000BF00BF3148324908604FF4A8
:104A70008030486001212F4881610021C1600162BE
:104A8000016341612C4981620021C1620121C16140
:104A9000002181600161FCF79FFD18B1292127A049
:104AA000FFF75AFC00201A901D9001201B90072050
:104AB0001C901AA91F48FCF783FC00BF002001903E
:104AC0001948006840F480001749086008460068EB
:104AD00000F48000019000BF00BF20480290002039
:104AE000039000210491059106914FF40061079114
:104AF000890008914911099100210A910B9102A89E
:104B0000FCF7BCFF18B144210CA0FFF725FC00BF47
:104B100002A8084988630846109000BF0122104986
:104B2000FCF782FE23B000BD303802400000024096
:104B300000200140B00100200100000F70726F6A78
:104B40006563745C6D6F64756C65735C73686F63CB
:104B50006B5C73686F636B2E63000000106402402F
:104B60005400002000B587B000BF002001902F48FE
:104B7000006840F002002D4908600846006800F017
:104B80000200019000BF00BF0520069002200390A4
:104B90004FF460400290002004900320059002A989
:104BA0002348FDF777F9012003900003029002A942
:104BB0001F48FDF76FF9012211031D48FDF73EFB69
:104BC00000BF0020019019481030006840F4804078
:104BD0001649103108600846006800F480400190D2
:104BE00000BF00BF13481449086028211248C16162
:104BF0000121416102210161002181620721C1621D
:104C00000021C160816001624FF482700A494860EE
:104C10004FF400710848816100214162FEF7C0F83D
:104C200080216B2000F012F807B000BD3038024040
:104C300000040240003800405801002010B504462E
:104C4000224601217520FFF733FE10BD70B50446E2
:104C50000D460B480470457000224FF480510948FE
:104C6000FDF7ECFA4FF0FF33022205490648FEF744
:104C7000C1FA012211030348FDF7E0FA70BD0000FC
:104C80005000002000040240580100204FF0407006
:104C9000E1EE100A70470000000000000000010271
:104CA00003040607080900000000010203040006CF
:104CB0001016000610163031323334353637383995
:104CC0004142434445464030580030313233343558
:104CD00036373839616263646566403078000000B9
:104CE000302E333A31332F30322F3230313800000A
:104CF000474554444154410053455453544154454D
:104D00000000000050494E47000000005348555431
:104D1000444F574E000000005345544E554D4245F8
:104D2000520000004745545354415455530000006D
:104D3000504D00080000002058000000D00100087D
:104D4000A84D00085800002000080000EC010008F1
:104D50000024F40000000000E04C00080000000007
:104D6000000000000000000000000000044D0008EA
:104D7000F84C0008F04C00080C4D0008184D0008D5
:104D8000244D000800000000FD3A0008313B0008F7
:104D9000651000084D3B0008153B0008F1120008A3
:084DA00000000000000000000B
:040000050800024DA0
:00000001FF
