:020000040800F2
:10000000C00F00205D0200086502000867020008BA
:10001000690200086B0200086D0200080000000081
:100020000000000000000000000000006F02000857
:10003000710200080000000073020008CD2F0008C4
:1000400077020008770200087702000877020008AC
:10005000770200087702000877020008770200089C
:10006000770200087702000877020008770200088C
:10007000770200087702000877020008770200087C
:1000800077020008770200087702000800000000ED
:10009000000000000000000000000000A91100089E
:1000A000770200087702000877020008770200084C
:1000B0004131000877020008770200087702000843
:1000C000770200087702000877020008770200082C
:1000D0007702000877020008C5360008000000001B
:1000E000770200087702000877020008000000008D
:1000F000000000000000000000000000770200087F
:10010000000000007702000877020008770200086C
:1001100000000000000000000000000000000000DF
:1001200077020008770200087702000877020008CB
:10013000770200080000000000000000000000003E
:10014000000000000000000000000000770200082E
:10015000770200087702000877020008770200089B
:10016000770200087702000800000000000000008D
:10017000000000000000000000000000000000007F
:1001800000000000770200080000000000000000EE
:100190007702000800F002F800F051F80AA090E899
:1001A000000C82448344AAF10107DA4501D100F032
:1001B00046F8AFF2090EBAE80F0013F0010F18BFAE
:1001C000FB1A43F0010318479C490000BC4900009A
:1001D000103A24BF78C878C1FAD8520724BF30C873
:1001E00030C144BF04680C60704700000023002445
:1001F00000250026103A28BF78C1FBD8520728BF37
:1002000030C148BF0B607047642900F0BF81782976
:1002100000F0F881002070471FB504F043FC9DE812
:10022000030000F04BFC00F0D1FD04000020002191
:1002300004F022FC401C60601FBD10B510BD00F032
:10024000A0FD1146FFF7E8FF03F0C8FC00F0D0FD69
:1002500003B4FFF7F2FF03BC00F000FE094880473B
:1002600009480047FEE7FEE7FEE7FEE7FEE7FEE798
:10027000FEE7FEE7FEE7FEE704480549054A064BB0
:1002800070470000DD30000895010008C00900201B
:10029000C00F0020C00B0020C00B002070B5064628
:1002A00000F0ECFB056806F10B0020F00704B442F7
:1002B0009CBF002070BD2B466A68BAB11068A0428E
:1002C00010D304F1080188423CBF5068586007D33E
:1002D0005168101941601168091B01605860146071
:1002E000101D70BD13465268002AE7D121462846EA
:1002F00000F0D0FB0028DED170BD70B50446051FAC
:1003000000F0BCFB0068002C14BF446870BD002CDA
:1003100018BFAC423CBF20466468F8D301680A1895
:10032000AA4218BF456003D12A68054611440160FE
:1003300028684119A1421CBF6C6070BD616869608A
:1003400021680844286070BD70B50D460646041F3C
:1003500000F094FBD0F800C0C5B1E6B105F10B0088
:1003600020F00703AB423CBF002070BD20689842DC
:1003700038BFDCF8042013D3C11A08292FD3E018A2
:1003800040F8041B2360FFF7B8FF28E03046FFF772
:10039000B4FF002070BD2846BDE87040FFF77EBF67
:1003A000002A18BFA2423CBF94465268F8D30119F4
:1003B000914216D111680844984212D3C11A0829F3
:1003C0003CBF2060506808D35168E0184160216844
:1003D00012681144C91A01602360CCF80400201D82
:1003E00070BD181FFFF75AFF050007D021680A1FCC
:1003F000211D00F07CFA201DFFF77FFF284670BD0D
:1004000053EA020C00F069802DE9F04B4FF0000632
:10041000002B1FBFB3FA83F503FA05F424FA05F69F
:100420005E4012BF1643B2FA82F502FA05F4C5F136
:1004300020051EBF22FA05FC44EA0C04203556EACA
:10044000044C4FEA144418BF641C4FF000084FF0EE
:100450000009904271EB030C39D3002919BFB1FA9E
:1004600081F701FA07F6B0FA80F700FA07F6C7F14C
:1004700020071EBF20FA07FC46EA0C062037B6FB11
:10048000F4FCA7EB0507103F07F01F0BCBF120068C
:100490000CFA0BFB2CFA06F644BFB3460026202FBD
:1004A000A4BF5E464FF0000B5BEA060C08BF4FF09E
:1004B000010B19EB0B09ABFB027C48EB0608C01BD8
:1004C00006FB02CC0BFB03CC71EB0C01C1E70B4626
:1004D000024641464846BDE8F08B13B54FF0000098
:1004E0004FF00001AFF30080BDE81C4070470000F2
:1004F0000FB41CB5074B06AA7B44694600900598CB
:1005000000F071FB0020694600F080FB1CBC5DF828
:1005100014FB00001107000070B5044685690068EF
:10052000C10601D5302600E02026C00707D070BDE7
:10053000D4E9012130469047206A401C20626D1E9C
:10054000F6D570BD70B5044685690078C00707D13F
:1005500070BDD4E9012120209047206A401C206210
:100560006D1EF6D570BD09684A0501D540B27047C9
:10057000C905FCD500B2704709684A0501D5C0B26B
:100580007047C905FCD580B2704700002DE9F041E5
:100590000646002410687529314616A510D0FFF7CD
:1005A000E2FF002802DA404213A507E031688A071B
:1005B00001D512A502E0490704D511A5012401E0E7
:1005C000FFF7DAFF00210A2206F1240709E0B0FB59
:1005D000F2FCB0FBF2F302FB1C00303078541846FA
:1005E000491C0028F3D123462A463046BDE8F04195
:1005F00000F09ABA000000002D0000002B0000005F
:100600002000000070B504460D4621461068FFF733
:10061000B3FF2188090502D50F4A7A4402E00E4A49
:100620007A440E32002104F1240305E000F00F06A5
:100630000009965D5E54491C0028F7D120780023FC
:10064000000704D5702D02D009B1022311322046D3
:10065000BDE8704000F068BAB04400002DE9F047F2
:100660004FF0000A89460446C0F820A02046E16801
:100670008847002876D0252806D0D4E90121904764
:10068000206A401C2062F1E7E16820460026884786
:10069000C4F81CA005460027C4F818A02A2D09D0CC
:1006A000284603F065F838B304EB8708303DC8F8F6
:1006B000185019E059F8041B204604EB8702916199
:1006C000E1688847012F054618D1E069002820DA43
:1006D00026F020061DE0D8F8180000EB800005EB9E
:1006E00040003038C8F818002046E16888470546C1
:1006F00003F03EF80028EED1012F0AD02E2D08D1AC
:100700002046E16888477F1C0546022F46F02006F8
:10071000C4DBA069002803DA404246F00106A0616C
:10072000F00701D026F010066C2D0AD0682D08D0F5
:100730004C2D39D06A2D35D0742D35D07A2D33D04B
:1007400016E0E1682F4620468847B84205460AD1A0
:100750006C2F27D04FF48060E1680643204688471D
:10076000054605E027E06C2F1AD04FF48070064351
:100770000DB3A5F14100192802D8203546F40066D2
:100780004A462946204626604E46FFF73DFD80B189
:1007900001280BD0F61D26F0070000F1080965E7D7
:1007A0004020E4E78020D7E70020D5E706F10409E0
:1007B0005CE7284661E7206ABDE8F08770B5064629
:1007C00000F060F90468054630460A22002100F076
:1007D00022FA2C6070BD401ECAB210F8011F8A4276
:1007E00002D00029F9D10020704710B5431E13F83C
:1007F000014F002CFBD105E011F8014B002C03F850
:10080000014B03D0521EF7D20021197010BD10B554
:10081000431C02E010F8011B71B18107FAD14FF0BF
:10082000013202C88C1A8C4314EAC211F9D0C01AE2
:100830000A0603D0C01E10BDC01A10BD0A0401D0A4
:10084000801E10BD0902FCD0401E10BD421E12F8D1
:10085000013F002BFBD111F8013B002B02F8013BBB
:10086000F9D17047032A40F2308010F0030C00F0F9
:10087000158011F8013BBCF1020F624498BF11F8DA
:1008800001CB00F8013B38BF11F8013BA2F1040293
:1008900098BF00F801CB38BF00F8013B11F003030B
:1008A00000F02580083AC0F0088051F8043B083A6F
:1008B00051F804CBA0E80810F5E7121D5CBF51F811
:1008C000043B40F8043BAFF30080D20724BF11F88B
:1008D000013B11F801CB48BF11F8012B24BF00F8F0
:1008E000013B00F801CB48BF00F8012B704710B561
:1008F000203AC0F00B80B1E81850203AA0E8185018
:10090000B1E81850A0E81850BFF4F5AF5FEA027CD8
:1009100024BFB1E81850A0E8185044BF18C918C047
:10092000BDE810405FEA827C24BF51F8043B40F8E8
:10093000043B08BF7047D20728BF31F8023B48BFCD
:1009400011F8012B28BF20F8023B48BF00F8012B0B
:10095000704702F0FF0343EA032242EA024200F03A
:1009600002B84FF000020429C0F0128010F0030C0E
:1009700000F01B80CCF1040CBCF1020F18BF00F892
:10098000012BA8BF20F8022BA1EB0C0100F00DB841
:100990005FEAC17C24BF00F8012B00F8012B48BF9F
:1009A00000F8012B70474FF0000200B51346944643
:1009B0009646203922BFA0E80C50A0E80C50B1F1B7
:1009C0002001BFF4F7AF090728BFA0E80C5048BFCB
:1009D0000CC05DF804EB890028BF40F8042B08BF69
:1009E000704748BF20F8022B11F0804F18BF00F865
:1009F000012B70474FF0013C50F8042B51F8043B99
:100A00009A4221D1A2EB0C03934313EACC1317D1E2
:100A100050F8042B51F8043B9A4215D1A2EB0C0379
:100A2000934313EACC130BD150F8042B51F8043B39
:100A30009A4209D1A2EB0C03934313EACC13DBD007
:100A40004FF00000704700BFD01A01BAB1FA81F12F
:100A500001F0180122FA01F0CB40C1F12001DBB214
:100A6000C0B2C01A2CFA01F3D11A914311EAC31192
:100A7000E6D17047704770477047000000487047E4
:100A800068090020004870476009002070477047DF
:100A90007047704738B504460A4600206946AFF3F0
:100AA0000080002808BF38BD02460099204600F0AB
:100AB000F7F8012038BD012000F05BB9F8B5AFF3BD
:100AC0000080054600200C46102000BF0646A819ED
:100AD000A0420DD9324669460020AFF300800700DE
:100AE00008BF00F046F90098A04218BF0546C41997
:100AF000FFF7C4FF05600746F01D20F00700461908
:100B0000284600F00AF8B44208BFF8BDA21B3146DF
:100B10003868BDE8F84000F0C3B800210160C0E9C2
:100B200001107047102070472DE9F0470D46994697
:100B30009246044600F124080168880604D5E0695D
:100B400021F01001216000E00120A84201DD471BD7
:100B500000E00027A1697A1902EB0900081AA061D8
:100B60002078C00602D42046FFF7D6FC002608E015
:100B7000D4E901211AF806009047206A401C761C2F
:100B800020624E45F4DB2078C0060AD52046FFF7E8
:100B9000C3FC06E0D4E9012130209047206A401CC4
:100BA0002062381EA7F10107F4DC07E0D4E9012137
:100BB00018F805009047206A401C2062281EA5F105
:100BC0000105F3DC2046FFF7BDFC2078000602D5C6
:100BD0000220BDE8F0870120FBE7000001694A1C04
:100BE00002610878704700B58FB0CDE9013100216E
:100BF000059105497944CDE9031011466846FFF790
:100C00002DFD0FB000BD0000E5FFFFFF0A6802F8F0
:100C1000010B0A6070472DE9F04791460F46804668
:100C20000446002614F8015B2DB100F031F800688D
:100C3000405DC007F6D12B2D02D02D2D18D0641E9B
:100C40004A463946204600F045F827B13968A142A6
:100C500001D1C7F800804FF0020471050BD5404266
:100C6000002803DDFFF70EFF0460A007BDE8F08752
:100C700046F48066E4E70028F8DAFFF703FF046033
:100C80006FF00040F2E70000004870476009002064
:100C900010B500F09BF8001D10BD00BFDD3D000049
:100CA000034640688C46002818BF88423CBF034674
:100CB0004068F8D318681844884207D00CF1030044
:100CC00020F00700001D411A521A0146081D0A6053
:100CD000FFF713BB2DE9F05F824615468B460027D0
:100CE0000AF10104B9460078302801D09DB113E023
:100CF00014F8010B0127782803D0582801D045B1FA
:100D00000AE00DB1102D07D1002714F8010B1025B2
:100D100002E0082500E00A250026B0460EE005FBAB
:100D2000080005FB06F101271FFA80F801EB1046C9
:100D3000B6F5803F00D3B94614F8010B294600F000
:100D400049F80028EBDABBF1000F05D00FB1641EA3
:100D500000E05446CBF80040B9F1000F06D0FFF791
:100D600091FE02210160C81EBDE8F09F48EA0640DE
:100D7000FAE710B500F04AF8BDE8104000F041B8BD
:100D800070477546FFF780FFAE460500694653463B
:100D900020F00700854618B020B5FFF76DFABDE8D2
:100DA00020404FF000064FF000074FF000084FF0D2
:100DB000000B21F00701AC46ACE8C009ACE8C00963
:100DC000ACE8C009ACE8C0098D46704700487047E0
:100DD000800900203A2800D2303820F02002412A31
:100DE00001D3A2F13700884201D34FF0FF307047A2
:100DF00010B50446AFF300802046BDE81040FFF771
:100E000027BA002801D000F029B8704710B5012892
:100E100005D0002103A000F027F8012010BD09A192
:100E2000F8E7000053494752544D454D3A204F755D
:100E300074206F662068656170206D656D6F7279D2
:100E4000000000003A2048656170206D656D6F728A
:100E50007920636F7272757074656400014918209F
:100E6000ABBEFEE72600020070B505460C460A2020
:100E700000E06D1C00F011F835B128780028F8D199
:100E800002E0641C00F009F814B120780028F8D1C1
:100E9000BDE870400A20AFF3008008B569468DF8C0
:100EA00000000320ABBE08BD70B50546AC6B206CDE
:100EB00000F0500050BB206C40F4007020642068AB
:100EC000806800F04050E8B9A069D8B92068C06ACD
:100ED00000F4700020B12068806800F4806088B958
:100EE0002068406820F0200021684860206C20F4D1
:100EF00080702064206C00F4805018B9206C40F0A1
:100F000001002064204600F0BBFB03E0A06BC16C35
:100F10002846884770BD70B50546AC6B40202064FC
:100F2000606C40F004006064204600F0ABFB70BDD4
:100F300070B50446A56B284600F0A3FB70BD000009
:100F400054494A6822F440324A604A6843681A4366
:100F50004A600268526822F4807203685A6002682C
:100F60005368026943EA022203685A6002685268C1
:100F700022F0407203685A600268526883681A431C
:100F800003685A600268926822F4006203689A60FB
:100F900002689268C3681A4303689A603E4B826A8B
:100FA0009A4218D00268926822F0706203689A60D0
:100FB00002689268836A1A4303689A6002689268BA
:100FC00022F0405203689A6002689268C36A1A432A
:100FD00003689A600BE00268926822F0706203680E
:100FE0009A600268926822F0405203689A60026830
:100FF000926822F0020203689A600268936882692C
:1010000043EA420203689A60026AA2B10268526827
:1010100042F4006203685A600268526822F4604237
:1010200003685A6002685368426A521E43EA4232B9
:1010300003685A6005E00268526822F4006203689F
:101040005A600268D26A22F470020368DA620268A7
:10105000D36A828B521E43EA02520368DA62026844
:10106000926822F4007203689A6002689368026BC7
:1010700043EA422203689A600268926822F480621E
:1010800003689A6002689368426943EA82220368AF
:101090009A607047002301400100000F0146087864
:1010A00010381823B0FBF3F20848805CC865032AA7
:1010B00005D908686FF30900001D886503E008681A
:1010C0006FF309008865886D70470000C64A000804
:1010D000014600208A6A8B69CBB932B1012A0DD052
:1010E000022A03D0032A10D10EE000BFCB6A03F01E
:1010F0008073B3F1807F00D1012007E0CB6AB3F1A8
:10110000C07F00D1012001E000E000BF34E08B6926
:10111000B3F5005F1AD132B1012A07D0022A03D0F9
:10112000032A11D10AE000BF01200EE0CB6A03F0D0
:101130008073B3F1807F00D1012006E0CB6AB3F168
:10114000C07F00D1012000E000BF15E032B1012ACC
:1011500005D0022A04D0032A0CD103E000BF00BF4F
:10116000012008E0CB6A03F08073B3F1807F00D1E7
:10117000012000E000BF00BF704730B5046824685C
:1011800024F4802405682C60046863608468402C23
:1011900004D10468A2600468E16003E00468A1600F
:1011A0000468E26030BD000010B54FF48070114952
:1011B000086011480468002007E00F4A411C52F8FB
:1011C000211042F82010411CC8B20328F5DB0A4860
:1011D000C4604FF49672C168742003F00DF907489B
:1011E0000078032804DA05480078401C0349087099
:1011F00010BD0000143C01406C080020600000207D
:101200002DE9F047AAB006460C46042E01DC022E5A
:1012100007DA0122072158A003F042F92AB0BDE8FD
:10122000F0874FF00008C1460127BA46012527E0A4
:1012300054F8250052A1FFF7DDFB10B94FF001086B
:101240001CE054F8250050A1FFF7D4FB18B94FF06B
:101250000108002712E054F825004DA1FFF7CAFB52
:1012600010B94FF0010909E054F825004BA1FFF730
:10127000C1FB18B94FF001094FF0000A681CC5B254
:10128000B542D5DB642111A8FFF78DFB11A82168B9
:10129000FFF7DCFA342104A8FFF785FBB8F1000F53
:1012A00045D000200290039002A902F033FC5FB108
:1012B000BDF90C000090BDF90A30BDF908203AA133
:1012C00004A8FFF715F90AE0BDF90C000090BDF97C
:1012D0000A30BDF908203BA104A8FFF709F904A9C9
:1012E00011A8FFF7B3FA00200290039002A9012091
:1012F00002F010FC5FB1BDF90C000090BDF90A309E
:10130000BDF9082036A104A8FFF7F2F80AE0BDF9FC
:101310000C000090BDF90A30BDF9082037A104A8DF
:10132000FFF7E6F804A911A8FFF790FA00BFB9F19A
:10133000000F15D002F00CFC0546BAF1000F05D0E5
:101340002A4635A104A8FFF7D3F804E02A4635A1C0
:1013500004A8FFF7CDF804A911A8FFF777FA00BF9A
:1013600011A8FFF754FA85B20022294611A803F00C
:1013700097F800BF52E700004152474345525200E0
:101380004D454D53484558004D454D534445430048
:1013900053484F434B4845580000000053484F43C3
:1013A0004B444543000000002C47583A2534685808
:1013B0002C47593A253468582C475A3A25346858EE
:1013C000000000002C47583A253668642C47593AEB
:1013D000253668642C475A3A2536686400000000B8
:1013E0002C41583A253468582C41593A25346858CC
:1013F0002C415A3A25346858000000002C41583AD4
:10140000253668642C41593A253668642C415A3A8D
:1014100025366864000000002C53484F434B3A25A2
:10142000580000002C53484F434B3A2564000000FD
:1014300070B594B006460C4650216846FFF7B3FAE3
:1014400068462168FFF702FA012527E054F82500D5
:1014500019A1FFF7CFFA80B919A16846FFF7F6F98D
:1014600002F01EFC20B117A16846FFF7EFF913E068
:1014700018A16846FFF7EAF90EE054F825001AA112
:10148000FFF7B8FA40B90EA16846FFF7DFF9184830
:1014900001686846FFF7DAF9681CC5B2B542D5DBCA
:1014A0006846FFF7B4F985B200222946684602F083
:1014B000F7FF14B070BD00004D454D530000000013
:1014C0002C0000004D454D535F415641494C41426F
:1014D0004C4500004D454D535F4E4F545F415641C2
:1014E000494C41424C45000056455253494F4E002D
:1014F0000800002038B502460020009000BF92F896
:101500003C00012801D1022038BD012082F83C00B6
:1015100000BF0868092816D91068C0680C780A3C12
:1015200004EB44050724AC40A0431468E0600C7849
:101530000A3C04EB44048868A0401468E468204333
:101540001468E06013E0106800690C7804EB44054F
:101550000724AC40A043146820610C7804EB4404D9
:101560008868A04014682469204314682061486892
:10157000072817D21068406B0C79641E04EB8405B1
:101580001F24AC40A04314686063088880B20C79C3
:10159000641E04EB8404A0401468646B2043146848
:1015A000606331E048680D2817D21068006B0C7931
:1015B000E41F04EB84051F24AC40A043146820639F
:1015C000088880B20C79E41F04EB8404A0401468FE
:1015D000246B20431468206316E01068C06A0C79FD
:1015E0000D3C04EB84051F24AC40A0431468E0626A
:1015F000088880B20C790D3C04EB8404A040146888
:10160000E46A20431468E062194B1A4C1068A04247
:1016100006D10868122803D1586840F48000586049
:10162000144C1068A0421CD10868102802D0086829
:10163000112816D1586840F4000058600868102836
:101640000FD10D4800680D4CB0FBF4F000EB8000AA
:101650004000009002E00098401E00900098002892
:10166000F9D100BF002082F83C0000BF00BF4BE76B
:1016700000230140002001400000002040420F00F4
:10168000704770477047000070B5044600250CB9DC
:10169000012070BD1549A06A884200D000BF206CAF
:1016A00030B90020606484F83C00204600F020F847
:1016B000206C00F0100088B9206C20F4885040F0B5
:1016C000020020642046FFF73BFC00206064206C91
:1016D00020F0020040F00100206400E0012500BF7E
:1016E000002084F83C0000BF2846D2E70100000F2C
:1016F00070470000F8B504460D46164600200090DD
:1017000000BF94F83C00012801D10220F8BD01205F
:1017100084F83C0000BF2068806800F00100A0B998
:101720002068806840F00100216888603C480068BB
:101730003C49B0FBF1F000EB4000009002E0009863
:10174000401E009000980028F9D12068806800F0C1
:101750000100002862D0206C40F20161884340F40F
:10176000807020642068406800F4806028B1206C9C
:1017700020F4005040F480502064206C00F480502D
:1017800020B1606C20F00600606401E0002060641D
:1017900000BF002084F83C0000BF234F2348A16B0A
:1017A000C8632348A16B08642248A16BC8646FF02A
:1017B0002200216808602068406840F0806021684D
:1017C00048602068806840F48070216888602268E2
:1017D00002F14C0133462A46A06B00F0FBF8786812
:1017E00000F01F0058B92068806800F0405028B908
:1017F0002068806840F08040216888600EE00E49D3
:10180000206888420AD12068806800F0405028B9DA
:101810002068806840F0804021688860002075E77B
:101820000000002040420F0000230140A90E0008E4
:10183000310F0008170F00080020014070B5044662
:10184000A56D00F007FA064694F83500022808D086
:101850008020606500BF002084F8340000BF0120B4
:1018600070BD2068006820F01600216808602068BC
:10187000406920F0800021684861206C08B9A06CA4
:1018800028B12068006820F00800216808602068FE
:10189000006820F00100216808600FE000F0DAF92C
:1018A000801B05280AD92020606500BF002084F82D
:1018B000340000BF032084F83500D1E720680068B9
:1018C00000F001000028E9D194F85C103F20884026
:1018D000A86000BF002084F8340000BF012084F815
:1018E00035000020BCE700002DE9F041044600254A
:1018F00000F0B0F9074614B90120BDE8F081606A34
:1019000000B100BF00BF002084F8340000BF0220F7
:1019100084F835002068006820F001002168086024
:101920000AE000F097F9C01B052805D92020606562
:10193000032084F83500E0E72068006800F001002B
:101940000028EED12068056821480540D4E901014E
:101950000843E16808432169084361690843A169B4
:101960000843E1690843216A08430543606A042883
:1019700003D1D4E90B0108430543206805602068C2
:10198000456925F00705606A0543606A04280DD1A2
:10199000A06A0543E06A48B12046FFF799FB28B1E9
:1019A00040206065012084F83500A6E72068456185
:1019B0002046FFF773FB064694F85C103F208840F2
:1019C000B06000206065012084F83500002094E7B5
:1019D0003F8010F02DE9F04704460D4616461F469D
:1019E0004FF00008D4F8589000BF94F83400012854
:1019F00002D10220BDE8F087012084F8340000BF46
:101A000094F8350001282BD1022084F835000020FD
:101A100060653B46324629462046FFF7AEFB94F808
:101A20005C103F208840C9F808002068006840F03A
:101A30001600216808602068406940F08000216835
:101A40004861206C28B12068006840F008002168D7
:101A500008602068006840F001002168086006E026
:101A600000BF002084F8340000BF4FF00208404659
:101A7000C0E70000F8B503460A4600250024002010
:101A80000021CDE0012606FA01F5166806EA0504F4
:101A9000AC4273D15668022E02D05668122E13D172
:101AA000CF0803F1200656F827004E07F70E0F2641
:101AB000BE40B0434F07FF0E1669BE403043CF080B
:101AC00003F1200646F8270018684F000326BE40A1
:101AD000B043167906F003064F00BE40304318604D
:101AE0005668012E08D05668022E05D05668112E71
:101AF00002D05668122E13D198684F000326BE40BC
:101B0000B0434F00D668BE40304398605868012605
:101B10008E40B0431679C6F300168E4030435860AD
:101B2000D8684F000326BE40B0434F009668BE40C1
:101B30003043D860566806F08056B6F1805F6ED1AB
:101B400000BF00260096384E366846F48046364F71
:101B50003E603E46366806F48046009600BF00BFF1
:101B6000324E8F0856F827008E07370F0F26BE40DB
:101B7000B0432F4EB34202D1002615E04FE02D4E68
:101B8000B34201D101260FE02B4EB34201D1022610
:101B90000AE02A4EB34201D1032605E0284EB342A3
:101BA00001D1042600E007268F073F0FBE403043D7
:101BB0001E4E8F0846F82700224E3068A043566814
:101BC00006F48036B6F5803F00D120431D4E3060CC
:101BD000361D3068A043566806F40036B6F5003F5F
:101BE00000D12043174E361D3060361D3068A043AB
:101BF000566806F48016B6F5801F00D12043114EBA
:101C000008363060361D3068A043566806F400166A
:101C1000B6F5001F00D120430A4E0C363060491C37
:101C20001029FFF42FAFF8BD4438024008380140B6
:101C3000000002400004024000080240000C024084
:101C400000100240003C01400AB1816101E00B0438
:101C5000836170470148006870470000040000205D
:101C600002480068401C01490860704704000020D9
:101C700010B50D48006840F400700B490860084634
:101C8000006840F4806008600846006840F4807096
:101C90000860032000F07AF80F2000F007F800F049
:101CA00019F8002010BD0000003C024070B5044649
:101CB000074800684FF47A71B0FBF1F5284600F050
:101CC00000FE00222146501E00F021F8002070BDC9
:101CD000000000207047000000BF00F01F0201213B
:101CE0009140034A430942F8231000BF70470000A7
:101CF00080E100E000BF00F01F0201219140420995
:101D0000920002F1E022C2F8001100BF70472DE9F5
:101D1000F05F80460D461646002700F03DFF07465F
:101D200039462A46334601F00700C0F1070ABAF1E6
:101D3000040F02D94FF0040A01E0C0F1070AD146AE
:101D400000F1040ABAF1070F02D24FF0000A01E0D5
:101D5000A0F1030AD4464FF0010A0AFA09FAAAF1DF
:101D6000010A0AEA020A0AFA0CFA4FF0010B0BFA0E
:101D70000CFBABF1010B0BEA030B4AEA0B04214607
:101D8000404600F011FFBDE8F09F000000BF00F0EA
:101D90000702064B19684FF6FF031940044B0B432B
:101DA00043EA0221014B196000BF70470CED00E0CF
:101DB0000000FA0570B504460D460CB9012070BD4F
:101DC0005848006800F00F00A84209D255490D702C
:101DD0000846006800F00F00A84201D00120EEE79D
:101DE000207800F0020002281DD1207800F00400C5
:101DF000042805D14C48006840F4E0504A49086086
:101E0000207800F00800082805D14748006840F411
:101E10006040454908604448006820F0F000A1682F
:101E2000084341490860207800F00100A8B36068C9
:101E3000012807D13C4808380068C0F34040B8B9D1
:101E40000120BCE76068022802D06068032807D13F
:101E5000354808380068C0F3406048B90120AEE753
:101E6000314808380068C0F3400008B90120A6E7EF
:101E70002D48006820F00300616808432A49086083
:101E8000FFF7E8FE064609E0FFF7E4FE801B41F29B
:101E90008831884202D9032091E707E02248006890
:101EA00000F00C006168B0EB810FEDD11D480068B7
:101EB00000F00F00A84209D91A490D7008460068C1
:101EC00000F00F00A84201D0012078E7207800F050
:101ED0000400042807D11448006820F4E050E168A9
:101EE000084311490860207800F00800082808D14C
:101EF0000D48006820F46040216940EAC1000A49A9
:101F0000086000F03DF808490968C1F30311074A69
:101F1000515CC840064908600F20FFF7C7FE00204B
:101F20004DE70000003C024008380240AE4A00087D
:101F300000000020014800687047000000000020F9
:101F400000B5FFF7F7FF04490968C1F38221034A8E
:101F5000515CC84000BD000008380240BE4A00087D
:101F600000B5FFF7E7FF04490968C1F34231034AAE
:101F7000515CC84000BD000008380240BE4A00085D
:101F80002DE9F047002400250026A14625480068D9
:101F900000F00C0020B1042805D008283AD105E053
:101FA000DFF8849039E0DFF8809036E01D48001FAC
:101FB000006800F03F041B48001F006800F4800028
:101FC00078B119481749091F0968C1F38811A0FBA6
:101FD00001700146224600233846FEF711FA0546F5
:101FE0000EE011480F49091F0968C1F38811A0FBD1
:101FF00001700146224600233846FEF701FA0546E5
:102000000848001F0068C0F30140401C4600B5FBB3
:10201000F6F902E0DFF8109000BF00BF4846BDE8C7
:10202000F0870000083802400024F40038B5044668
:102030000CB9012038BD207800F00100002874D0D0
:10204000F848006800F00C0004280DD0F54800683E
:1020500000F00C00082813D1F248001F006800F4BB
:102060008000B0F5800F0BD1EE4808380068C0F34F
:102070004040002859D06068002856D10120D9E797
:1020800000BF6068B0F5803F08D1E64808380068B6
:1020900040F48030E349083908601EE06068B0F51C
:1020A000A02F0DD1DF480838006840F48020DD49BA
:1020B000083908600846006840F4803008600CE089
:1020C000D8480838006820F48030D64908390860BC
:1020D0000846006820F48020086000BF606890B166
:1020E000FFF7B8FD054606E0FFF7B4FD401B642886
:1020F00001D903209EE7CB4808380068C0F3404070
:102100000028F1D011E0FFF7A5FD054606E0FFF736
:10211000A1FD401B642801D903208BE7C148083882
:102120000068C0F340400028F1D1207800F00200A0
:1021300002285FD1BB48006800F00C0058B1B948D4
:10214000006800F00C0008281CD1B648001F006889
:1021500000F48000B0B9B34808380068C0F340000C
:1021600020B1E068012801D0012063E7AD480838BC
:10217000006820F0F800216940EAC100A949083947
:10218000086037E0E06800B30120A7490860FFF766
:1021900061FD054606E0FFF75DFD401B022801D901
:1021A000032047E79F4808380068C0F34000002834
:1021B000F1D09C480838006820F0F800216940EA16
:1021C000C10098490839086014E000209649086069
:1021D000FFF740FD054606E0FFF73CFD401B0228E7
:1021E00001D9032026E78F4808380068C0F3400073
:1021F0000028F1D1207800F0080008282CD160696F
:10220000A8B1012089490860FFF724FD054606E0D2
:10221000FFF720FD401B022801D903200AE781486F
:102220006C300068C0F340000028F1D014E00020BA
:102230007E490860FFF70EFD054606E0FFF70AFD40
:10224000401B022801D90320F4E676486C30006870
:10225000C0F340000028F1D1207800F004000428E9
:102260007FD100BF002000906E483830006840F0F9
:1022700080506C49383108600846006800F0805092
:10228000009000BF00BF6A48006840F48070684951
:102290000860FFF7DFFC054606E0FFF7DBFC401BAC
:1022A000022801D90320C5E66148006800F4807067
:1022B0000028F2D000BFA068012808D15948683032
:1022C000006840F001005749683108601DE0A068CF
:1022D00005280DD153486830006840F0040051498A
:1022E000683108600846006840F0010008600CE0B2
:1022F0004C486830006820F001004A4968310860A5
:102300000846006820F00400086000BFA068A0B183
:10231000FFF7A0FC054608E0FFF79CFC401B41F2DC
:102320008831884201D9032084E63E48683000683D
:10233000C0F340000028EFD013E0FFF78BFC054608
:1023400008E0FFF787FC401B41F28831884201D941
:1023500003206FE6334868300068C0F3400000286F
:10236000EFD1A069B8B32F48006800F00C0008282E
:1023700060D0A06902283ED100202B490866FFF7F3
:1023800069FC054606E0FFF765FC401B022801D901
:1023900003204FE6234808380068C0F34060002857
:1023A000F1D1D4E907010843616A40EA81110122B1
:1023B000A06AC2EB500041EA00412C20005D41EAD6
:1023C00000601849091F0860012017490866FFF7D7
:1023D00041FC054607E02FE0FFF73CFC401B0228CC
:1023E00001D9032026E60F4808380068C0F3406092
:1023F0000028F1D020E000200B490866FFF72AFCF6
:10240000054606E0FFF726FC401B022801D9032001
:1024100010E6044808380068C0F340600028F1D195
:102420000AE007E00838024000004742800E4742B9
:10243000007000400120FDE50020FBE510B50446DA
:10244000A06C10B1A06CFFF7F9F9E06C10B1E06C72
:10245000FFF7F4F92068406820F003002168486025
:10246000012084F85100002010BD10B504460CB9BD
:10247000012010BD022084F851002068006820F07F
:10248000400021680860204600F05BF8002060658D
:1024900084F8510000BF84F8500000BF00BFE8E797
:1024A000704710B504460CB9012010BD606A00B930
:1024B00000BFA06AB0F5005F00D100BF94F85100E2
:1024C00028B9002084F85000204600F03BF8022094
:1024D00084F851002068006820F0400021680860FE
:1024E000D4E901010843E1680843216908436169AF
:1024F0000843218B01F400710843E1690843216A14
:102500000843A16A0843216808600421A06901EA20
:102510001040616A084321684860A06AB0F5005F16
:1025200002D12168E06A08612068C06920F4006077
:102530002168C86100206065012084F851000020F6
:10254000B3E770477047704770472DE9F84304467A
:102550000D4617461E464FF00008C14600BF94F8CE
:102560005000012802D10220BDE8F883012084F840
:10257000500000BFFFF76EFB804694F85100012821
:1025800002D04FF00209C6E005B117B94FF00109BA
:10259000C1E0032084F85100002060652563A78610
:1025A000E786A063A087E08760642064A068B0F538
:1025B000004F05D12068006840F480402168086021
:1025C000A06AB0F5005F0ED100BF206800684DF62C
:1025D000FF710840216808602068006840F40050DE
:1025E0002168086000BF2068006800F040004028B3
:1025F00005D02068006840F0400021680860E0686D
:10260000B0F5006F2AD1606810B1E08E012806D1C4
:1026100028882168C860AD1CE08E401EE08619E065
:102620002068806800F00200022807D1288821680D
:10263000C860AD1CE08E401EE0860BE03EB1701C11
:1026400040B1FFF707FBA0EB0800B04202D34FF008
:10265000030960E0E08E0028E2D129E0606810B153
:10266000E08E012806D12878216808736D1CE08E61
:10267000401EE08619E02068806800F00200022811
:1026800007D12878216808736D1CE08E401EE08613
:102690000BE03EB1701C40B1FFF7DCFAA0EB080084
:1026A000B04202D34FF0030935E0E08E0028E2D1BA
:1026B0003346012202212046CDF8008000F031FC93
:1026C00010B14FF0030926E042463146204600F0A3
:1026D00043FB20B14FF00109202060651BE0A0689A
:1026E00050B900BF002000902068C06800902068AA
:1026F0008068009000BF00BFA06AB0F5005F05D100
:102700002068006840F4805021680860606D08B15E
:102710004FF0010900BF012084F8510000BF0020E4
:1027200084F8500000BF48461EE700002DE9F0473E
:1027300004460E4617461D464FF00008C146C246E5
:1027400000BF94F85000012802D10220BDE8F087B4
:10275000012084F8500000BF94F85180D4F8049010
:10276000B8F1010F0AD0B9F5827F04D1A06810B981
:10277000B8F1040F02D04FF0020A7AE00EB107B1AF
:1027800015B94FF0010A74E094F85100012802D104
:10279000052084F85100002060652663A586E58643
:1027A000A763A587E58720646064A06AB0F5005F31
:1027B0000ED100BF206800684DF6FF710840216807
:1027C00008602068006840F400502168086000BF7D
:1027D00094F85100042806D12948E16C086429487E
:1027E000E16CC86305E02848E16C08642748E16CA7
:1027F000C8632748E16CC8640020E16C0865E38F7A
:10280000D4F800C00CF10C01A26BE06CFFF7E2F809
:102810002068406840F00100216848600020A16CF9
:102820000864A16CC863A16CC864A16C0865E38EE0
:10283000D4F800C00CF10C02216BA06CFFF7CAF8B1
:102840002068006800F04000402805D0206800683B
:1028500040F04000216808602068406840F0200097
:10286000216848602068406840F0020021684860A4
:1028700000BF00BF002084F8500000BF504665E74D
:10288000A92D0008C52D0008B72D00087B2E0008D3
:10289000812D000870477047042808D14FF0E021CF
:1028A000096941F004014FF0E022116107E04FF0A7
:1028B000E021096921F004014FF0E0221161704725
:1028C000704701460020704710B5FFF7F9FF10BDB3
:1028D00010B504460CB9012010BD94F8390028B990
:1028E000002084F83800204600F00CF8022084F81C
:1028F0003900211D206800F04BFC012084F83900CC
:102900000020E9E770470146022081F83900086895
:10291000006840F001000A681060012081F8390069
:102920000020704710B504462068C06820F49070FD
:102930002168C8602068406920F001002168486172
:102940002068406900F0400068B12068406920F0CC
:10295000400021684861606B28B10020616B086508
:10296000606BFEF76BFF0020E085202084F83A00C2
:10297000002010BD10B504462068C06820F0C000DB
:102980002168C8602068406900F0800068B1206854
:10299000406920F0800021684861206B28B1002048
:1029A000216B0865206BFEF749FF0020E0842020A2
:1029B00084F83900002010BD704710B504460CB9EA
:1029C000012010BDA06900B100E000BF94F83900FB
:1029D00028B9002084F83800204600F027F8242089
:1029E00084F839002068C06820F400502168C8606D
:1029F000204600F0B3FC2068006920F49040216874
:102A000008612068406920F02A0021684861206838
:102A1000C06840F400502168C8600020E0632020B6
:102A200084F8390084F83A000020CAE770470000B3
:102A300077B581B00446154694F83A00202850D165
:102A4000029800B115B9012004B070BD00BF94F820
:102A50003800012801D10220F6E7012084F838006F
:102A600000BF0298A062A5850020E063222084F8C0
:102A70003A001D48616BC8631C48616B08641C48C0
:102A8000616BC8640020616B086502AE3268236820
:102A9000191D2B46606BFEF79DFF00BF00200090C4
:102AA00020680068009020684068009000BF00BF68
:102AB00000BF002084F8380000BF2068C06840F4E0
:102AC00080702168C8602068406940F0010021687A
:102AD00048612068406940F040002168486100205A
:102AE000B2E70220B0E7000091320008D7320008B8
:102AF0004132000870477047F7B50446154694F810
:102B0000390020283DD1019800B10DB90120FEBD4A
:102B100000BF94F83800012801D10220F7E7012016
:102B200084F8380000BF01982062A584E584002065
:102B3000E063212084F839001348216BC8631348EF
:102B4000216B08641248216BC8640020216B086562
:102B500001AE23681A1D31682B46206BFEF73AFF41
:102B60006FF040002168086000BF002084F8380042
:102B700000BF2068406940F0800021684861002063
:102B8000C5E70220C3E70000E53200081B33000858
:102B9000413200087047704702480068C0F30220C5
:102BA000704700000CED00E010B5002807DA0A07B6
:102BB000140E054A00F00F031B1FD45403E00A074C
:102BC000130E024A135410BD18ED00E000E400E0BB
:102BD00070B504460D460022042102A001F060FCFD
:102BE00070BD0000504F4E470000000070B58EB021
:102BF00006460C46342101A8FDF7D5FE01A8216840
:102C0000FDF724FE0AA101A8FDF720FE01A8FDF7AB
:102C1000FEFD85B20022294601A801F041FC0123F6
:102C20001A4604A1184601F093FA0EB070BD0000D8
:102C30002C4F4B004445430070B590B005460C4600
:102C4000022D04D0012206211EA001F029FC34210E
:102C500003A8FDF7A8FE00200190029003A82168B8
:102C6000FDF7F4FD19A103A8FDF7F0FD6068FDF77D
:102C7000CEFDC0B28DF804000320616800F04AFF69
:102C8000012004E0002162681154411CC8B29DF883
:102C900004108142F6DC606802780DA101A8FDF7FE
:102CA00027FC032201A903A8FDF79FFD03A8FDF758
:102CB000AEFD86B20022314603A801F0F1FB10B050
:102CC00070BD000041524745525200002C000000E8
:102CD000253268580000000070B504460D460122F8
:102CE0000F2102A001F0DCFB70BD00004E4F54200C
:102CF000494D504C454D454E5445440070B5044631
:102D00000D4600220F2102A001F0CAFB70BD000099
:102D10004E4F5420494D504C454D454E544544006E
:102D200070B504460D460122092107A001F0B8FB49
:102D300000BF08480068006800F040004028F8D153
:102D4000012001F037FC70BD504F574552204F46CF
:102D50004600000074000020F8B504460D461646F3
:102D60002B46002280212046009600F0DAF828B198
:102D7000606D40F0200060650320F8BD0020FCE796
:102D800070B50546AC6B2068406820F003002168F0
:102D90004860606D40F010006065012084F85100CB
:102DA0002046FFF77DFB70BD70B50446A56B284635
:102DB000FFF7CAFB70BD70B50446A56B2846FFF748
:102DC0006AFD70BD7CB50546AC6B00260020019005
:102DD000FEF740FF06462868006800F4807000286F
:102DE00046D1A06AB0F5005F11D1642301221146DB
:102DF0002046009600F095F818B1606D40F0020092
:102E000060652068C06880B20190BDF80400206849
:102E1000406820F00300216848606068B0F5827F58
:102E20000DD1A068B0F5004F03D0A068B0F5806F59
:102E300005D12068006820F040002168086000206B
:102E4000E087012084F851002068806800F01000BD
:102E5000102807D1606D40F0020060654FF6EF70FA
:102E600021688860606D18B12046FFF719FB7CBDB2
:102E70002046FFF768FB00BFF9E77CB50546AC6B61
:102E8000002600200190FEF7E5FE0646286800684F
:102E900000F4807000283FD1A06AB0F5005F11D126
:102EA0006423012211462046009600F03AF818B13A
:102EB000606D40F0020060652068C06800B201905B
:102EC000BDF90400324664212046FFF745FF18B1E2
:102ED000606D40F0200060652068406820F00300CD
:102EE000216848600020E086E087012084F85100D6
:102EF0002068806800F01000102807D1606D40F055
:102F0000020060654FF6EF7021688860606D18B14F
:102F10002046FFF7C5FA7CBD2046FFF7BBFC00BF8B
:102F2000F9E72DE9F04104460E4617461D46DDF847
:102F300018803FE0681CE0B32DB1FEF78BFEA0EBDC
:102F40000800A84236D32068406820F0E0002168DD
:102F500048606068B0F5827F0DD1A068B0F5004F81
:102F600003D0A068B0F5806F05D12068006820F01C
:102F7000400021680860A06AB0F5005F0ED100BF74
:102F8000206800684DF6FF710840216808602068DD
:102F9000006840F400502168086000BF012084F8F8
:102FA000510000BF002084F8500000BF0320BDE89E
:102FB000F081FFE7206880683040B04201D10120F5
:102FC00000E00020B842B5D10020F0E710B5FEF7D0
:102FD00047FEFFF779FC10BD10B592B000BF00208E
:102FE00000903848006840F0800036490860084684
:102FF000006800F08000009000BF00BF00BF00200C
:10300000009030481030006840F080502D49103159
:1030100008600846006800F08050009000BF00BFC4
:1030200000BF002000902848006820F4404040F491
:103030000040254908600846006800F440400090C0
:1030400000BF00BF012006900004079002200C90F2
:1030500041050D9108210E9150210F9102211091EF
:103060000421119106A8FEF7E1FF18B13B2117A03A
:1030700000F07CFB0E2001900220029000200390C3
:103080004FF48050049000200590022101A8FEF723
:1030900091FE18B149210DA000F068FBFEF74AFF30
:1030A0004FF47A71B0FBF1F42046FFF70AFC0420DC
:1030B000FFF7F2FB00221146501EFEF728FE12B069
:1030C00010BD0000303802400070004070726F6A1E
:1030D0006563745C6D61696E2E630000144800685E
:1030E00040F47000124908601248006840F0010086
:1030F0001049086000200F49083108600D48006839
:103100000D4908400B4908600C48091D0860081F5C
:10311000006820F48020091F0860002005490C3158
:1031200008604FF000600249803908607047000075
:1031300088ED00E000380240FFFFF6FE103000246A
:1031400010B56FF001000F49096808610E4800686A
:10315000401C0D4908601C20FEF7BEFD0B480068AE
:1031600058B10A48046805E020688047606800B9E3
:1031700001E06468F8E700BF00BF1C20FEF7BAFD5D
:1031800010BD0000240900206C0000207000002009
:1031900000220268234B98420BD0B0F1804F08D038
:1031A000214B984205D0214B984202D0204B9842A7
:1031B00001D1012300E000231BB122F070024B6813
:1031C0001A43184B984214D0B0F1804F11D0164BCF
:1031D00098420ED0154B98420BD0154B984208D010
:1031E000144B984205D0144B984202D0134B98428E
:1031F00001D1012300E000231BB122F44072CB680F
:103200001A4302608B68C3620B688362054B984265
:1032100001D1012300E000230BB10B6903630123FB
:103220004361704700000140000400400008004076
:10323000000C0040004001400044014000480140B3
:1032400070B506460025B46B20684069C0F3C01510
:1032500094F83900212805D125B10020E0842046CA
:1032600000F072F820684069C0F3801594F83A00C5
:10327000222805D125B10020E085204600F054F831
:10328000E06B40F01000E0632046FFF795FB70BD57
:1032900070B50546AC6B2868006800F48070B0B962
:1032A0000020E0852068C06820F480702168C86034
:1032B0002068406920F00100216848612068406969
:1032C00020F0400021684861202084F83A00204620
:1032D000FFF710FC70BD70B50446A56B2846FFF7DC
:1032E0000AFC70BD70B50546AC6B2868006800F438
:1032F000807070B90020E0842068406920F0800070
:10330000216848612068C06840F040002168C860BA
:1033100002E02046FFF73EFC70BD70B50446A56B89
:103320002846FFF738FC70BD0168C96821F4907128
:103330000268D1600168496921F0010102685161A8
:10334000202180F83A1070470168C96821F0C00157
:103350000268D160202180F8391070472DE9F041D2
:10336000044600252068056925F44055E0680543BA
:10337000206805612068C56849F20C6085432169B1
:10338000A068084361690843E16908430543206870
:10339000C5602068456925F44075A069054320682B
:1033A0004561E069B0F5004F7ED1C449206888428C
:1033B00003D0C349206888425DD1FEF7D1FD00EB00
:1033C000C00101EB001061684900B0FBF1F064211D
:1033D000B0FBF1F00601FEF7C3FD00EBC00101EB0D
:1033E000001061684900B0FBF1F7FEF7B9FD00EB92
:1033F000C00101EB001061684900B0FBF1F06421ED
:10340000B0FBF1F000EBC00101EB0010A7EB800076
:10341000322101EBC0006421B0FBF1F000F0F800B4
:1034200006EB4006FEF79CFD00EBC00101EB00102F
:1034300061684900B0FBF1F7FEF792FD00EBC001B7
:1034400001EB001061684900B0FBF1F06421B0FBB2
:10345000F1F000EBC00101EB0010A7EB800032217E
:1034600001EBC0006421B0FBF1F000F00700304434
:103470002168886020E1FEF763FD00EBC00101EBED
:10348000001061684900B0FBF1F06421B0FBF1F07D
:103490000601FEF755FD00EBC00101EB001061686D
:1034A0004900B0FBF1F700E045E0FEF749FD00EB15
:1034B000C00101EB001061684900B0FBF1F064212C
:1034C000B0FBF1F000EBC00101EB0010A7EB8000B6
:1034D000322101EBC0006421B0FBF1F000F0F800F4
:1034E00006EB4006FEF72CFD00EBC00101EB0010DF
:1034F00061684900B0FBF1F7FEF722FD00EBC00167
:1035000001EB001061684900B0FBF1F06421B0FBF1
:10351000F1F000EBC00101EB0010A7EB80003221BD
:1035200001EBC0006421B0FBF1F000F00700304473
:1035300021688860C0E061492068884203D0604902
:10354000206888425CD1FEF70BFD00EBC00101EB67
:10355000001061688900B0FBF1F6FEF701FD00EB99
:10356000C00101EB001061688900B0FBF1F064213B
:10357000B0FBF1F000EBC00101EB0010A6EB800006
:10358000322101EB00106421B0FBF1F000F0F006F5
:10359000FEF7E6FC00EBC00101EB0010616889005A
:1035A000B0FBF1F06421B0FBF1F006EB0016FEF782
:1035B000D7FC00EBC00101EB001061688900B0FB93
:1035C000F1F7FEF7CDFC00EBC00101EB00106168E4
:1035D0008900B0FBF1F06421B0FBF1F000EBC00119
:1035E00001EB0010A7EB8000322101EB00106421F9
:1035F000B0FBF1F000F00F003044216888605BE020
:10360000FEF79EFC00EBC00101EB00106168890031
:10361000B0FBF1F6FEF794FC00EBC00101EB0010EB
:1036200061688900B0FBF1F06421B0FBF1F000EBC0
:10363000C00101EB0010A6EB8000322101EB00106D
:103640006421B0FBF1F000F0F006FEF779FC00EB2E
:10365000C00101EB001061688900B0FBF1F064214A
:10366000B0FBF1F006EB0016FEF76AFC00EBC001C0
:1036700001EB001061688900B0FBF1F7FEF760FC18
:1036800000EBC00101EB001061688900B0FBF1F0B4
:103690006421B0FBF1F000EBC00101EB0010A7EBDF
:1036A0008000322101EB00106421B0FBF1F000F04A
:1036B0000F00304421688860BDE8F08100100140AF
:1036C0000014014008B51E480068006800F0400082
:1036D00040281ED1C0431A49096808601848FFF7FE
:1036E00049F920B140F2111116A000F03FF814483A
:1036F0000068C06840F0400011490968C8601A4875
:10370000006830B118480068FCF7F7FD0020164942
:1037100008600B480068006800F0100010280ED107
:1037200000BF002000900648006800680090044830
:1037300000684068009000BF00BF00F0C9FA08BDF3
:103740007400002070726F6A6563745C6D6F6475DD
:103750006C65735C636F6E736F6C655C636F6E73C7
:103760006F6C652E630000001000002000BFFEE7B4
:1037700030380A2801D2012070470020704700002D
:1037800070B505460820FCF789FD0446256003480E
:10379000006860600148046070BD00007000002097
:1037A00010B50C48FFF7BEF818B1AC210AA0FFF71E
:1037B000DDFF402111480068FDF7D3F840220F4893
:1037C00001680448FFF734F918B1B12102A0FFF7EE
:1037D000CDFF10BD7400002070726F6A6563745C69
:1037E0006D6F64756C65735C636F6E736F6C655C35
:1037F000636F6E736F6C652E630000000C00002019
:1038000000B587B000BF002001906948006840F013
:103810000100674908600846006800F00100019057
:1038200000BF00BF07200690022003900C200290EA
:10383000012004900320059002A95E48FEF71AF9C2
:1038400000BF002001905A481030006840F400305A
:103850005749103108600846006800F400300190B4
:1038600000BF00BF5448554908604FF4E12048604C
:10387000002152488160C16001610C214161002139
:103880008161C161FFF799F818B131214CA0FFF7B0
:103890006DFF00BF002001904548006840F4001013
:1038A000434908600846006800F40010019000BF1A
:1038B00000BF4C484C4908604FF000604860002150
:1038C00049488160C1604FF480610161002141611C
:1038D0008161C16101624162FEF706F818B14221BF
:1038E00037A0FFF743FF00BF3F483449486308460D
:1038F0003D49886300BF3B4818303C4908604FF0A1
:10390000006048604021394881600021C1604FF467
:1039100080610161002141618161C1610162416297
:10392000FDF7E2FF18B1532125A0FFF71FFF00BFED
:103930002E482249086308462C49886300BF40206E
:10394000FCF7ACFC2A490860402129480068FDF7D3
:1039500008F81A480068C06840F050001749096824
:10396000C8606FF0400015490968086000BF00207A
:103970000190124800680068019010480068406893
:10398000019000BF00BF0F220E212620FEF7BFF9D5
:103990002620FEF7AFF94022154801680748FFF7D7
:1039A00047F818B1642106A0FFF7E0FE07B000BD9C
:1039B0003038024000000240004400407400002003
:1039C00070726F6A6563745C6D6F64756C65735C4F
:1039D000636F6E736F6C655C636F6E736F6C652E77
:1039E0006300000088600240B40000201401002041
:1039F0000C00002038B504460A4800682044401CEA
:103A000000900F2200211C20FEF781F900BF05491C
:103A1000009809688842FAD20F2211461C20FEF74E
:103A200076F938BD6C00002008B500BF002000907A
:103A30002C48006840F400102A49086008460068D5
:103A400000F40010009000BF00BF2748274908601D
:103A500000204860002125488160C1604FF48061EA
:103A60000161002141618161C1614FF40031016256
:103A700000214162FDF738FF18B1AD211CA0FFF70E
:103A800075FE00BF19482149C86408461749886374
:103A900000BF154818301E490860002048604021CA
:103AA0001B4881600021C1604FF4806101610021E9
:103AB00041618161C1614FF40031016200214162C5
:103AC000FDF712FF18B1BE2109A0FFF74FFE00BF9E
:103AD0000F480E49886408460D49886300BFFEF709
:103AE000ADFC08BD3038024058600240CC010020D7
:103AF00070726F6A6563745C6D6F64756C65735C1E
:103B00006D656D735C6D656D732E630074010020CF
:103B10002C02002070B505460C4655B1012D0CD085
:103B2000022D02D0032D10D10BE0204600F054FFEF
:103B30000BE0204600F028FC07E0204600F0FEFBEA
:103B400003E0204600F046FC00BF00BF70BD00004F
:103B50000148008880B270476800002000B587B037
:103B600000BF002001901648006840F00200144990
:103B700008600846006800F00200019000BF00BF26
:103B8000012003900002029000200490059002A9F9
:103B90000C48FDF76FFF00224FF480710948FEF7D3
:103BA00053F84FF40070029002A90648FDF762FF37
:103BB00000224FF400710348FEF746F807B000BD3D
:103BC00030380240000402400348006808B1012078
:103BD00070470020FCE7000010000020FEF748F8C6
:103BE000FFF7FAF90320FEF7D1F800F0A5FE00F088
:103BF00087FA002000F0DEFCFFF702FE01222321FD
:103C000009A000F04DFCFFF7A9FF0021084600F0D5
:103C1000B1FC0021012000F0ADFC00F017F800F02D
:103C2000D9FC00E000BFFDE7544849532049532028
:103C3000414C5048412056455253494F4E20534124
:103C400042524520504F524A4543540010B500207F
:103C50000BE0C0EB001101EB81010E4A02EB810188
:103C60000D4A42F82010411CC8B20428F1DB4FF481
:103C70007A7000F06DFDFFF7D7FEC820FFF7BAFE9F
:103C800000F0C4F844F6206000F062FD0348FFF73E
:103C900077FD10BDBA0300206C080020A941000880
:103CA00038B50020009000240DE0684600F094FE36
:103CB0009DF80000712801D1012038BD3220FFF7A6
:103CC00099FE601C84B2322CEFDB0020F5E7000087
:103CD0002DE9F0414948006800784D2803D0FFF7EE
:103CE0005FFDBDE8F0810A2144480068FCF773FDE0
:103CF00010B9FFF755FDF4E7002740480068461C5F
:103D00000024002568E02C213046FCF764FD071EE6
:103D100046D10A213046FCF75EFD0746641CA1002F
:103D20002846FCF711FB0546B91B481CFCF7B6FA00
:103D3000611E45F82100BA1B511C621E55F8220075
:103D4000FCF70FFEBA1B611E55F821003146FCF747
:103D500089FD4FF000081CE0FFF722FD284A52F8C9
:103D600028102868FCF746FE30B9264850F828206D
:103D700029462046904711E0214908F1010051F8F9
:103D8000200020B9012203211FA000F089FB08F1C7
:103D900001081B4850F828000028DDD100BF1CE0B6
:103DA000641CA1002846FCF7CFFA0546B91B481C45
:103DB000FCF774FA611E45F82100BA1B511C621E03
:103DC00055F82200FCF7CDFDBA1B611E55F8210005
:103DD0003146FCF747FD7E1C95E700BF4FF0000819
:103DE00005E055F82800FCF788FA08F10108A0451D
:103DF000F7DB2846FCF781FA00BF72E70C000020D1
:103E00001C000020400000203430340010B5012296
:103E1000102169A000F044FBFFF742FF28B90122FE
:103E20001F216AA000F03CFB10BD01221B216FA0E6
:103E300000F036FB80216B2000F0D6FD0122092125
:103E400071A000F02DFBC820FFF7D4FD06216B20E8
:103E500000F0CAFDC820FFF7CDFDFFF721FF28B90C
:103E600001221E216BA000F01BFBDDE701221A21BD
:103E700070A000F015FB022410E0402040EAC400CE
:103E8000C1B21A2000F0B0FD0A20FFF7B3FD0122F5
:103E90000A216FA000F004FB601CC4B2072CECDD0B
:103EA00040211A2000F0A0FD0A20FFF7A3FD012207
:103EB0000A2167A000F0F4FA00211B2000F094FD15
:103EC0000A20FFF797FD01220F2164A000F0E8FA15
:103ED0000A211D2000F088FD0A20FFF78BFD01223A
:103EE0000E2162A000F0DCFA05216A2000F07CFDC2
:103EF0000A20FFF77FFD01220C2160A000F0D0FA1C
:103F000040216A2000F070FD0A20FFF773FD0122B6
:103F10000F215EA000F0C4FA0121722000F064FDC0
:103F20000A20FFF767FD01220F215CA000F0B8FA1C
:103F30000A20FFF75FFD2C21732000F055FD0A20B9
:103F4000FFF758FD01220F2158A000F0A9FAF9212E
:103F5000192000F049FD0A20FFF74CFD012209213C
:103F600056A000F09DFA1021372000F03DFD0A20F8
:103F7000FFF740FD01220B2153A000F091FA102120
:103F8000382000F031FD0A20FFF734FD0122122114
:103F900050A000F085FA7821232000F025FD0122B1
:103FA0000B2151A000F07CFA0122092151A000F060
:103FB00077FA00BF38E7000074727920746F2073BD
:103FC00065747570206D7075000000006D7075204F
:103FD0006E6F742061636365737361626C652062E8
:103FE00065666F7265207265736574006D7075200B
:103FF00061636365737361626C65206265666F728D
:1040000065207265736574007265736574206D70E8
:10401000750000006D7075206E6F742061636365BC
:10402000737361626C65206166746572207265737A
:10403000657400006D707520616363657373616200
:104040006C6520616674657220726573657400002A
:1040500073657420636F6E66696700007365742012
:104060006779726F20636F6E66696700736574208D
:1040700061636320636F6E666967000072657365D4
:10408000742070657269706800000000656E61627E
:104090006C6520737069206669666F0073657420B3
:1040A0006669666F2073697A65206800736574209D
:1040B0006669666F2073697A65206C007365742089
:1040C000737264697600000073657420696E7420F1
:1040D00070696E0073657420696E7470696E207407
:1040E0006F206669666F00006669666F20656E61A5
:1040F000626C6500736574757020656E6400000005
:1041000000B587B000BF002001900F48006840F064
:1041100002000D4908600846006800F002000190A6
:1041200000BF00BF012003900820029000200490EF
:10413000059002A90548FDF79DFC012208210348CE
:10414000FDF782FD07B000BD303802400004024098
:104150002DE9F04105460C4616461F460C480570F1
:1041600084B10CA12046FCF745FC18B968200A4927
:10417000087007E009A12046FCF73CFC10B9642058
:10418000054908700648067006480770BDE8F081CA
:10419000610000204845580062000020444543006B
:1041A000630000206400002070B598B0FFF70CFD9C
:1041B00008B118B070BD4148007800B9F9E7002097
:1041C0003E4908703E48007800286FD0502104A86E
:1041D000FCF7E9FB00253B48007878B138480078C7
:1041E000C0F10400384951F820503548007850B1EA
:1041F00033480078401E3249087004E03248C568F0
:1042000000202F49087000BF30480068806800F027
:1042100080008028F8D0002445E02D4800786828E8
:1042200019D105EB4400408905EB4401098905EBF0
:104230004402D28805EB44039B88CDE90032CDE9E6
:10424000021005EB4400438835F8142021A104A88E
:10425000FCF74EF91CE01E480078642818D105EBE5
:104260004400418905EB4400028905EB4400C08805
:1042700005EB44039B88CDE90030CDE9022105EB35
:104280004400438835F814201FA104A8FCF730F936
:1042900004A8FCF7BCFA86B20122314604A800F05B
:1042A000FFF8A01D84B2962CB7DB00BF224800782F
:1042B00010B101200149087000BF7AE761000020B9
:1042C00060000020630000206C08002074010020C2
:1042D0006200002047583A253468582C47593A253F
:1042E0003468582C475A3A253468582C41583A2596
:1042F0003468582C41593A253468582C415A3A258B
:104300003468580A0000000047583A253668642C83
:1043100047593A253668642C475A3A253668642C42
:1043200041583A253668642C41593A253668642C40
:10433000415A3A25366864006400002010B50446EE
:10434000FFF7AEFC00B910BD012221463C2000F071
:1043500053F80122611C3B2000F04EF80122A11C01
:104360003E2000F049F80122E11C3D2000F044F815
:104370000122211D402000F03FF80122611D3F2055
:1043800000F03AF800BFDEE710B50446FFF788FCFE
:1043900000B910BD01222146442000F02DF8012271
:1043A000611C432000F028F80122A11C462000F0E7
:1043B00023F80122E11C452000F01EF80122211DF6
:1043C000482000F019F80122611D472000F014F880
:1043D00000BFDEE770B50446FFF762FC00B970BDB0
:1043E0002046FCF7EBF9C5B201222146284600F031
:1043F00003F800BFF3E7000070B505460E4614460B
:1044000000BF1D480068806800F080008028F8D058
:10441000FF22611C1948FCF79CFA45F080001749FF
:10442000087000224FF480511548FDF70DFC601C08
:1044300083B2124A11461048FEF778F920B140F2D3
:10444000611110A0FFF792F900BF0B480068806867
:1044500000F080008028F8D00748FDF7EFFF012228
:1044600011030748FDF7F0FB22460449491C30467A
:10447000FCF7F8F970BD0000740100208C020020E8
:104480000004024070726F6A6563745C6D6F6475DE
:104490006C65735C6D656D735C6D656D732E63002B
:1044A00070B506460C46154600BF23480068002834
:1044B000FBD115B9A01C84B201E0601C84B2204677
:1044C000FBF7ECFE1C4908600846006828B900228A
:1044D00008211AA0FFF7E4FF1BE07DB9214616482A
:1044E0000068FCF73EFA5320134909680870A21EC1
:1044F000314611480068FCF778F90AE021460E4879
:104500000068FCF72EFA621E31460B480068FCF783
:104510006CF901220CA108480068FCF766F92246F4
:10452000054801680948FEF7E7FA18B1992108A083
:10453000FFF71CF970BD0000100000204D454D46EE
:1045400041554C54000000000A0000007400002097
:1045500070726F6A6563745C6D6F64756C65735CB3
:10456000636F6E736F6C655C636F6E736F6C652EDB
:104570006300000070B506460C460CB9002502E049
:10458000012C00D1012516B1012E0ED106E02A46DC
:104590004FF480710648FDF757FB06E02A464FF4BA
:1045A00000710348FDF750FB00BF00BF70BD000065
:1045B0000004024070B505460DB9012402E0012D4A
:1045C00000D10024224608210148FDF73DFB70BDC3
:1045D0000004024000B58BB000BF002001904C48A1
:1045E000006840F001004A4908600846006800F091
:1045F0000100019000BF00BF03200790012006903A
:10460000002008900320099006A94248FDF732FADD
:1046100000BF002001903E481430006840F48070D4
:104620003B49143108600846006800F4807001902E
:1046300000BF00BF3848394908604FF480304860F7
:104640000121364881610021C160016201210163BD
:104650004161334981620021C1620121C1610021B0
:1046600081600161FDF710F818B12A212DA0FFF734
:104670007DF8002002900590012003900620049010
:1046800002A92648FCF736FF18B1342125A0FFF710
:104690006DF800BF002001901D48006840F48000C4
:1046A0001B4908600846006800F48000019000BFC4
:1046B00000BF2448244908600020486000212248A7
:1046C0008160C16001614FF40061416189008161D5
:1046D0004911C1614902016200214162FDF704F9FB
:1046E00018B144210FA0FFF741F800BF16480B494D
:1046F000886308461449886300BF01221349FCF708
:10470000F9FF18B14B2107A0FFF730F80BB000BD3F
:104710003038024000000240002001407C080020A8
:104720000100000F70726F6A6563745C6D6F647571
:104730006C65735C73686F636B5C73686F636B2E1F
:104740006300000010640240C408002068000020DC
:1047500010B586B0044600BF00200090694800688C
:1047600040F00200674908600846006800F0020057
:10477000009000BF00BF00BF002000900846006806
:1047800040F0010008600846006800F00100009059
:1047900000BF00BF05200590022002904FF460404A
:1047A0000190002003900320049001A95648FDF7D2
:1047B00061F9012002900003019001A95248FDF720
:1047C00059F9012211035048FDF73EFA4F48029073
:1047D0004FF48070019001A94D48FDF74BF90F226D
:1047E0000A211720FDF793FA1720FDF783FA01201D
:1047F00002904002019001A94548FDF73BF90022D3
:104800004FF400714248FDF71FFA00BF00200090EE
:104810003C481030006840F480403A49103108604C
:104820000846006800F48040009000BF00BF39488F
:104830003949086044F62060844203D30021364899
:10484000C16137E042F21070844203D3082132483C
:10485000C1612FE041F28830844203D310212E48F9
:10486000C16127E040F6C410844203D318212A48CE
:10487000C1611FE040F2E240844203D32021264878
:10488000C16117E0B4F51C7F03D928212248C1611A
:1048900010E0B4F59C7F03D330211F48C16109E0CB
:1048A0009C2C03D338211C48C16103E083211BA049
:1048B000FEF75CFF012118484161022101610021DE
:1048C00081620721C1620021C160816001624FF4F1
:1048D0008270114948604FF400710F4881610021D6
:1048E0004162FDF7C2FD18B191210CA0FEF73EFF19
:1048F0000948FDF7D6FD18B1952108A0FEF736FF4F
:1049000006B010BD30380240000402400000111013
:1049100000000240003800407401002070726F6A8D
:104920006563745C6D6F64756C65735C6D656D73E8
:104930005C6D656D732E630008B500BF00200090AC
:104940001B48006840F001001949086008460068EB
:1049500000F00100009000BF00BF08061549086084
:10496000811514480161002181604FF47A71C160A2
:104970001420104948600846FDF7AAFF18B1292104
:104980000DA0FEF7F3FE0B480068C06840F0010080
:1049900008490968C8600F2211461C20FDF7B7F9C5
:1049A0001C20FDF7A7F90348FDF7ADFF08BD000087
:1049B000403802402409002070726F6A6563745C9D
:1049C0006D6F64756C65735C74696D6572735C742E
:1049D000696D6572732E630010B50446012221468D
:1049E0007520FFF709FD10BD70B504460D4600BFE8
:1049F00017480068806800F080008028F8D0FF2207
:104A000002211448FBF7A5FF1248047045700022EC
:104A10004FF480511048FDF717F9642302220D4925
:104A20000B48FDF792FD20B140F24D110BA0FEF7AF
:104A30009DFE00BF06480068806800F08000802866
:104A4000F8D0012211030448FDF7FEF870BD000004
:104A5000740100208C0200200004024070726F6A12
:104A60006563745C6D6F64756C65735C6D656D73A7
:104A70005C6D656D732E630010B500290AD008784F
:104A8000002807D005487844FBF7B4FF002801D080
:104A9000002010BD0248784410BD0000FE00000058
:104AA000F60000004FF04070E1EE100A7047000081
:104AB00000000000000001020304060708090000CE
:104AC0000000010203040006101600061016303123
:104AD0003233343536373839414243444546403025
:104AE00058003031323334353637383961626364D7
:104AF0006566403078000000302E35663A31332F3D
:104B000030342F323031380047455444415441004D
:104B100053455453544154450000000050494E47FA
:104B20000000000053485554444F574E0000000009
:104B30005052494E544649464F0000005345544E8A
:104B4000554D4245520000005245414452454749A7
:104B500053544552000000004745545354415455A6
:104B600053000000944C0008000000207400000076
:104B7000D0010008084D0008740000204C0F000010
:104B8000EC0100081001000043000000F8FFFFFFE7
:104B90000040404040404040404041414141414050
:104BA0004040404040404040404040404040404005
:104BB0004005020202020202020202020202020294
:104BC0000220202020202020202020020202020299
:104BD00002029090909090901010101010101010F1
:104BE00010101010101010101010101002020202FD
:104BF0000202888888888888080808080808080841
:104C0000080808080808080808080808020202023C
:104C10004000000000000000000000000000000054
:104C20000000000000000000000000000000000084
:104C30000000000000000000000000000000000074
:104C40000000000000000000000000000000000064
:104C50000000000000000000000000000000000054
:104C60000000000000000000000000000000000044
:104C70000000000000000000000000000000000034
:104C80000000000000000000000000000000000024
:104C9000000000000024F40000000000F84A0008B2
:104CA0000000000000000000000000000000000004
:104CB0001C4B0008104B0008084B0008244B000850
:104CC0003C4B0008584B0008304B0008484B00088C
:104CD00000000000D12B0008FD2C00080112000884
:104CE000212D0008D92C000831140008ED2B0008F4
:104CF000392C0008000068000000000000000000DF
:084D00000000000000000000AB
:040000050800025D90
:00000001FF
