:020000040800F2
:10000000A8890020050300080D0300080D2D000835
:100010001103000813030008150300080000000086
:100020000000000000000000000000004502000881
:100030001903000800000000A1020008B52E000806
:100040001F0300081F0300081F0300081F03000808
:100050001F0300081F0300081F0300081F030008F8
:100060001F0300081F0300081F0300081F030008E8
:100070001F0300081F0300081F0300081F030008D8
:100080001F0300081F0300081F03000800000000F2
:100090000000000000000000000000001F03000836
:1000A0001F0300081F0300081F0300081F030008A8
:1000B0001F0300081F0300081F0300081F03000898
:1000C0001F0300081F0300081F0300081F03000888
:1000D0001F0300081F03000861350008000000002E
:1000E0001F0300081F0300081F0300080000000092
:1000F0000000000000000000000000001F030008D6
:10010000000000001F0300081F0300081F03000871
:1001100000000000000000000000000000000000DF
:10012000F90C00081F0300081F0300081F03000844
:100130001F03000800000000000000000000000095
:100140000000000000000000000000001F03000885
:100150001F0300081F0300081F0300081F030008F7
:100160001F0300081F03000800000000000000003B
:10017000000000000000000000000000000000007F
:10018000000000001F030008000000000000000045
:100190001F03000800F002F800F044F80AA090E8FD
:1001A000000C82448344AAF10107DA4501D100F032
:1001B00039F8AFF2090EBAE80F0013F0010F18BFBB
:1001C000FB1A43F001031847E462000004630000D7
:1001D000103A24BF78C878C1FAD8520724BF30C873
:1001E00030C144BF04680C60704700000023002445
:1001F00000250026103A28BF78C1FBD8520728BF37
:1002000030C148BF0B607047642900F061817829D4
:1002100000F09A81002070471FB506F0F5F81FBD69
:1002200010B510BD00F035FC1146FFF7F5FF03F0E7
:10023000FFFA00F053FC03B4FFF7F2FF03BC00F039
:100240005BFC00002C4B19680868B0E8F04F80F3A5
:100250000988BFF36F8F4FF0000080F3118870475B
:100260000000000008480068006880F308884FF02C
:10027000000080F3148862B661B6BFF34F8FBFF3FE
:100280006F8F00DF00BF00BF08ED00E0DFF80C005B
:10029000016841F470010160704700BF88ED00E023
:1002A000EFF30980BFF36F8F134B1A681EF0100F26
:1002B00008BF20ED108A20E9F04F106009B44FF01C
:1002C000B00080F31188BFF34F8FBFF36F8F05F03D
:1002D000E5F84FF0000080F3118809BC1968086840
:1002E000B0E8F04F1EF0100F08BFB0EC108A80F39A
:1002F0000988BFF36F8F70475C000020EFF3058023
:10030000704700000948804709480047FEE7FEE7BC
:10031000FEE7FEE7FEE7FEE7FEE7FEE7FEE7FEE7B5
:1003200004480549054A064B70470000C92F0008DC
:1003300095010008A8830020A8890020A885002036
:10034000A885002053EA020C00F069802DE9F04BEB
:100350004FF00006002B1FBFB3FA83F503FA05F434
:1003600024FA05F65E4012BF1643B2FA82F502FA8D
:1003700005F4C5F120051EBF22FA05FC44EA0C0471
:10038000203556EA044C4FEA144418BF641C4FF061
:1003900000084FF00009904271EB030C39D300299B
:1003A00019BFB1FA81F701FA07F6B0FA80F700FA3F
:1003B00007F6C7F120071EBF20FA07FC46EA0C0625
:1003C0002037B6FBF4FCA7EB0507103F07F01F0B27
:1003D000CBF120060CFA0BFB2CFA06F644BFB34611
:1003E0000026202FA4BF5E464FF0000B5BEA060CF0
:1003F00008BF4FF0010B19EB0B09ABFB027C48EB7C
:100400000608C01B06FB02CC0BFB03CC71EB0C01F6
:10041000C1E70B46024641464846BDE8F08B13B59E
:100420004FF000004FF00001AFF30080BDE81C402A
:10043000704700000FB41CB5074B06AA7B44694601
:100440000090059800F00DFB0020694600F01CFBB1
:100450001CBC5DF814FB00004906000070B50446A2
:1004600085690068C10601D5302600E02026C00756
:1004700007D070BDD4E9012130469047206A401C66
:1004800020626D1EF6D570BD70B504468569007892
:10049000C00707D170BDD4E9012120209047206A10
:1004A000401C20626D1EF6D570BD09684A0501D555
:1004B00040B27047C905FCD500B2704709684A05CB
:1004C00001D5C0B27047C905FCD580B270470000A5
:1004D0002DE9F0410646002410687529314616A51D
:1004E00010D0FFF7E2FF002802DA404213A507E030
:1004F00031688A0701D512A502E0490704D511A584
:10050000012401E0FFF7DAFF00210A2206F12407A7
:1005100009E0B0FBF2FCB0FBF2F302FB1C00303050
:1005200078541846491C0028F3D123462A46304601
:10053000BDE8F04100F037BA000000002D000000D7
:100540002B0000002000000070B504460D46214637
:100550001068FFF7B3FF2188090502D50F4A7A44D6
:1005600002E00E4A7A440E32002104F1240305E031
:1005700000F00F060009965D5E54491C0028F7D173
:1005800020780023000704D5702D02D009B1022382
:1005900011322046BDE8704000F005BAD05E000080
:1005A0002DE9F0474FF0000A89460446C0F820A024
:1005B0002046E1688847002876D0252806D0D4E96F
:1005C00001219047206A401C2062F1E7E168204643
:1005D00000268847C4F81CA005460027C4F818A0C8
:1005E0002A2D09D0284603F019F838B304EB870800
:1005F000303DC8F8185019E059F8041B204604EBA8
:1006000087029161E1688847012F054618D1E069AA
:10061000002820DA26F020061DE0D8F8180000EBAC
:10062000800005EB40003038C8F818002046E1682B
:100630008847054602F0F2FF0028EED1012F0AD0CC
:100640002E2D08D12046E16888477F1C0546022FE1
:1006500046F02006C4DBA069002803DA404246F0D9
:100660000106A061F00701D026F010066C2D0AD01B
:10067000682D08D04C2D39D06A2D35D0742D35D049
:100680007A2D33D016E0E1682F4620468847B842DD
:1006900005460AD16C2F27D04FF48060E1680643ED
:1006A00020468847054605E027E06C2F1AD04FF416
:1006B000807006430DB3A5F14100192802D82035FA
:1006C00046F400664A462946204626604E46FFF715
:1006D0009BFD80B101280BD0F61D26F0070000F12C
:1006E000080965E74020E4E78020D7E70020D5E748
:1006F00006F104095CE7284661E7206ABDE8F08757
:10070000401ECAB210F8011F8A4202D00029F9D156
:100710000020704710B5431E13F8014F002CFBD189
:1007200005E011F8014B002C03F8014B03D0521ED9
:10073000F7D20021197010BD10B5431C02E010F86B
:10074000011B71B18107FAD14FF0013202C88C1A36
:100750008C4314EAC211F9D0C01A0A0603D0C01E95
:1007600010BDC01A10BD0A0401D0801E10BD0902C0
:10077000FCD0401E10BD421E12F8013F002BFBD1E1
:1007800011F8013B002B02F8013BF9D17047032A15
:1007900040F2308010F0030C00F0158011F8013B9E
:1007A000BCF1020F624498BF11F801CB00F8013B85
:1007B00038BF11F8013BA2F1040298BF00F801CB49
:1007C00038BF00F8013B11F0030300F02580083A20
:1007D000C0F0088051F8043B083A51F804CBA0E877
:1007E0000810F5E7121D5CBF51F8043B40F8043BCC
:1007F000AFF30080D20724BF11F8013B11F801CB01
:1008000048BF11F8012B24BF00F8013B00F801CBD1
:1008100048BF00F8012B704710B5203AC0F00B809C
:10082000B1E81850203AA0E81850B1E81850A0E8F4
:100830001850BFF4F5AF5FEA027C24BFB1E818504E
:10084000A0E8185044BF18C918C0BDE810405FEABE
:10085000827C24BF51F8043B40F8043B08BF70473A
:10086000D20728BF31F8023B48BF11F8012B28BF3F
:1008700020F8023B48BF00F8012B704702F0FF034D
:1008800043EA032242EA024200F002B84FF00002BB
:100890000429C0F0128010F0030C00F01B80CCF192
:1008A000040CBCF1020F18BF00F8012BA8BF20F800
:1008B000022BA1EB0C0100F00DB85FEAC17C24BF54
:1008C00000F8012B00F8012B48BF00F8012B7047FE
:1008D0004FF0000200B5134694469646203922BFD9
:1008E000A0E80C50A0E80C50B1F12001BFF4F7AF24
:1008F000090728BFA0E80C5048BF0CC05DF804EB06
:10090000890028BF40F8042B08BF704748BF20F873
:10091000022B11F0804F18BF00F8012B7047000028
:100920004FF0013C50F8042B51F8043B9A4221D17E
:10093000A2EB0C03934313EACC1317D150F8042B0A
:1009400051F8043B9A4215D1A2EB0C03934313EAEE
:10095000CC130BD150F8042B51F8043B9A4209D127
:10096000A2EB0C03934313EACC13DBD04FF000004F
:10097000704700BFD01A01BAB1FA81F101F0180135
:1009800022FA01F0CB40C1F12001DBB2C0B2C01AA3
:100990002CFA01F3D11A914311EAC311E6D1704741
:1009A0007047704770472DE9F0470D4699469246CB
:1009B000044600F124080168880604D5E06921F0A6
:1009C0001001216000E00120A84201DD471B00E08A
:1009D0000027A1697A1902EB0900081AA0612078A2
:1009E000C00602D42046FFF739FD002608E0D4E90E
:1009F00001211AF806009047206A401C761C2062EC
:100A00004E45F4DB2078C0060AD52046FFF726FDC8
:100A100006E0D4E9012130209047206A401C206282
:100A2000381EA7F10107F4DC07E0D4E9012118F82A
:100A300005009047206A401C2062281EA5F1010590
:100A4000F3DC2046FFF720FD2078000602D50220C7
:100A5000BDE8F0870120FBE701694A1C02610878C4
:100A6000704700B58FB0CDE90131002105910549EE
:100A70007944CDE9031011466846FFF791FD0FB0A8
:100A800000BD0000E5FFFFFF0A6802F8010B0A60E5
:100A90007047754600F02CF8AE460500694653468F
:100AA00020F00700854618B020B5FFF739FCBDE8F7
:100AB00020404FF000064FF000074FF000084FF0C5
:100AC000000B21F00701AC46ACE8C009ACE8C00956
:100AD000ACE8C009ACE8C0098D46704710B50446C3
:100AE000AFF300802046BDE81040FFF7A4BB000034
:100AF000004870474883002001491820ABBEFEE73C
:100B000026000200704770B50546AC6B206C00F003
:100B1000500050BB206C40F4007020642068806856
:100B200000F04050E8B9A069D8B92068C06A00F464
:100B3000700020B12068806800F4806088B9206867
:100B4000406820F0200021684860206C20F480700C
:100B50002064206C00F4805018B9206C40F0010033
:100B60002064204600F0A2FD03E0A06BC16C284683
:100B7000884770BD70B50546AC6B40202064606C42
:100B800040F004006064204600F092FD70BD70B536
:100B90000446A56B284600F08AFD70BD54494A689A
:100BA00022F440324A604A6843681A434A60026845
:100BB000526822F4807203685A60026853680269BE
:100BC00043EA022203685A600268526822F04072C7
:100BD00003685A600268526883681A4303685A605F
:100BE0000268926822F4006203689A600268926860
:100BF000C3681A4303689A603E4B826A9A4218D0CF
:100C00000268926822F0706203689A6002689268D3
:100C1000836A1A4303689A600268926822F040521D
:100C200003689A6002689268C36A1A4303689A600C
:100C30000BE00268926822F0706203689A600268B2
:100C4000926822F0405203689A600268926822F02B
:100C5000020203689A6002689368826943EA42026A
:100C600003689A60026AA2B10268526842F40062A4
:100C700003685A600268526822F4604203685A604E
:100C800002685368426A521E43EA423203685A605D
:100C900005E00268526822F4006203685A60026844
:100CA000D26A22F470020368DA620268D36A828B25
:100CB000521E43EA02520368DA620268926822F422
:100CC000007203689A6002689368026B43EA4222EA
:100CD00003689A600268926822F4806203689A60EE
:100CE00002689368426943EA822203689A60704707
:100CF000002301400100000F10B55D4800685D4908
:100D0000884205D95B485438006800F010001BE0A9
:100D1000574800685849884205D9564858380068ED
:100D200000F0100010E052480068534960398842D2
:100D300005D95148B838406800F0100004E04E482A
:100D4000B838006800F0100010B3494800684949FD
:100D5000884204D9102047494C39086018E04448BB
:100D600000684549884204D910204249503908603A
:100D70000EE03F48006840496039884204D910209D
:100D80003D49B839C86003E010203B49B839886054
:100D9000374800683749884205D9364854380068D2
:100DA00000F020001BE0324800683349884205D932
:100DB00030485838006800F0200010E02C480068E7
:100DC0002D496039884205D92B48B838406800F071
:100DD000200004E02848B838006800F0200000280F
:100DE00045D0234800682349884204D9202021495E
:100DF0004C39086018E01E4800681F49884204D931
:100E000020201C49503908600EE0194800681A4932
:100E10006039884204D920201749B839C86003E0F6
:100E200020201549B8398860144800F01DFD18B11C
:100E30008A2113A002F0E8FB19480468002007E0AB
:100E4000174A411C52F8211042F82010411CC8B228
:100E50000328F5DB1248C4601922C168074800F076
:100E60005FFC18B1942106A002F0CEFB00BF10BDBC
:100E70000C09002058640240B8600240C4080020F9
:100E800070726F6A6563745C6D6F64756C65735CBA
:100E900073686F636B5C73686F636B2E6300000035
:100EA000700A00200146087810381823B0FBF3F2CE
:100EB0000848805CC865032A05D908686FF30900F3
:100EC000001D886503E008686FF309008865886D78
:100ED000704700002A640008014600208A6A8B6976
:100EE000CBB932B1012A0DD0022A03D0032A10D186
:100EF0000EE000BFCB6A03F08073B3F1807F00D1B6
:100F0000012007E0CB6AB3F1C07F00D1012001E0EE
:100F100000E000BF34E08B69B3F5005F1AD132B155
:100F2000012A07D0022A03D0032A11D10AE000BF08
:100F300001200EE0CB6A03F08073B3F1807F00D113
:100F4000012006E0CB6AB3F1C07F00D1012000E0B0
:100F500000BF15E032B1012A05D0022A04D0032ACD
:100F60000CD103E000BF00BF012008E0CB6A03F012
:100F70008073B3F1807F00D1012000E000BF00BF8B
:100F8000704730B50468246824F4802405682C6018
:100F9000046863608468402C04D10468A26004681B
:100FA000E16003E00468A1600468E26030BD000015
:100FB0002DE9F04FB9B081460E464FF06E086E270E
:100FC0004FF06F0A012431E056F82400D6A1FFF754
:100FD000A7FC10B94FF0680826E056F82400D4A109
:100FE000FFF79EFC10B94FF064081DE056F824008E
:100FF000D1A1FFF795FC08B9682715E056F8240041
:10100000D0A1FFF78DFC08B964270DE056F8240045
:10101000CFA1FFF785FC38B156F82400CEA1FFF729
:101020007FFC08B94FF0620A601CC4B24C45CBDBB0
:10103000642120A8FFF74CFC20A83168FFF79BFB38
:1010400050210CA8FFF744FCBAF16F0F60D1B8F142
:101050006E0F3AD0002009900A900B9009A802F078
:1010600095FBB8F1680F14D1BDF82E00BDF82C2007
:10107000BDF82A10BDF82830CDE90031CDE90220B5
:10108000BDF82630BDF82420B5A10CA8FFF7D2F991
:1010900016E0B8F1640F13D1BDF82E00BDF82C2076
:1010A000BDF82A10BDF82830CDE90031CDE9022085
:1010B000BDF82630BDF82420B6A10CA8FFF7BAF978
:1010C0000CA920A8FFF757FB00BF6E2F16D002F027
:1010D00079FB0446682F05D12246BBA10CA8FFF777
:1010E000A9F906E0642F04D12246BAA10CA8FFF7A3
:1010F000A1F90CA920A8FFF73EFB00BF20A8FFF72D
:101100001BFB84B20022214620A802F0F9FF07E170
:10111000BAF1620FFBD120A8FFF70EFB84B20022C8
:10112000214620A802F0ECFF85A000788DF8800011
:1011300003F0DAFE002408E002F024FB50F824005B
:1011400008A941F82400601CC4B2042CF4DB00247C
:1011500008E002F033FB50F8240004A941F8240011
:10116000601CC4B2042CF4DB03F0E8FE0024D3E0DE
:101170000025CCE0B8F16E0F7DD0B8F1680F45D1F5
:1011800008A850F8240005EB4501052202EB4101B7
:1011900030F8110008A951F8241005EB450204238A
:1011A00003EB420231F8121008AA52F8242005EB92
:1011B00045034FF0030C0CEB430332F8132008AB4C
:1011C00053F8243005EB450C4FF0020B0BEB4C0CA5
:1011D00033F81C30CDE90032CDE9021008A850F8F0
:1011E000240005EB45014FF0010C0CEB410130F8F8
:1011F000113008A850F8240005EB4501490030F8EB
:10120000112077A10CA8FFF715F949E0B8F1640F98
:1012100046D108A850F8240005EB4501052202EB51
:10122000410130F8110008A951F8241005EB4502DE
:10123000042303EB420231F8121008AA52F82420CA
:1012400005EB45034FF0030C0CEB430332F813207E
:1012500008AB53F8243005EB450C4FF0020B0BEBB9
:101260004C0C33F81C30CDE90032CDE9021008A84F
:1012700050F8240000E01DE005EB45014FF0010CA3
:101280000CEB410130F8113008A850F8240005EBB0
:101290004501490030F811205DA10CA8FFF7CAF8FC
:1012A0000CA920A8FFF767FA6E2F03D064A120A82D
:1012B000FFF761FA6E2F1AD0682F09D104A850F8F1
:1012C000240030F815205FA10CA8FFF7B3F80AE05E
:1012D000642F08D104A850F8240030F815205CA130
:1012E0000CA8FFF7A7F80CA920A8FFF744FA20A83C
:1012F000FFF722FA1FFA80FB0122594620A802F0CC
:10130000FFFE0FA000788DF88000681CC5B2192D73
:10131000FFF630AF601CC4B2032CFFF629AF00BF4C
:1013200039B0BDE8F08F00004D454D534845580099
:101330004D454D534445430053484F434B48455852
:101340000000000053484F434B4445430000000059
:101350004F4E434500000000425546460000000045
:101360002C41583A253468582C41593A253468584C
:101370002C415A3A253468582C47583A2534685835
:101380002C47593A253468582C475A3A253468581E
:10139000000000002C41583A253668642C41593A27
:1013A000253668642C415A3A253668642C47583AE9
:1013B000253668642C47593A253668642C475A3AD2
:1013C00025366864000000002C53484F434B3A25F3
:1013D000346858002C53484F434B3A253668640014
:1013E00041583A253468582C41593A253468582CCC
:1013F000415A3A253468582C47583A253468582CB5
:1014000047593A253468582C475A3A2534685800C9
:1014100041583A253668642C41593A253668642C7F
:10142000415A3A253668642C47583A253668642C68
:1014300047593A253668642C475A3A25366864007D
:101440002C00000053484F434B3A253468580000A5
:1014500053484F434B3A25366864000070B594B04A
:1014600006460C4650216846FFF732FA6846216866
:10147000FFF781F9012527E054F8250019A1FFF7AE
:101480004FFA80B919A16846FFF775F902F07EFAA4
:1014900020B117A16846FFF76EF913E018A168465E
:1014A000FFF769F90EE054F825001AA1FFF738FAA2
:1014B00040B90EA16846FFF75EF918480168684612
:1014C000FFF759F9681CC5B2B542D5DB6846FFF78E
:1014D00033F985B200222946684602F011FE14B0A5
:1014E00070BD00004D454D53000000002C00000071
:1014F0004D454D535F415641494C41424C450000DA
:101500004D454D535F4E4F545F415641494C41420A
:101510004C45000056455253494F4E0008000020EC
:1015200038B502460020009000BF92F83C00012828
:1015300001D1022038BD012082F83C0000BF0868BC
:10154000092816D91068C0680C780A3C04EB4405D9
:101550000724AC40A0431468E0600C780A3C04EB1C
:1015600044048868A0401468E46820431468E0607C
:1015700013E0106800690C7804EB44050724AC40C4
:10158000A043146820610C7804EB44048868A040F0
:10159000146824692043146820614868072817D21A
:1015A0001068406B0C79641E04EB84051F24AC406A
:1015B000A04314686063088880B20C79641E04EB51
:1015C0008404A0401468646B20431468606331E0B5
:1015D00048680D2817D21068006B0C79E41F04EBE3
:1015E00084051F24AC40A04314682063088880B29F
:1015F0000C79E41F04EB8404A0401468246B20439E
:101600001468206316E01068C06A0C790D3C04EB86
:1016100084051F24AC40A0431468E062088880B2AF
:101620000C790D3C04EB8404A0401468E46A204368
:101630001468E062194B1A4C1068A04206D1086881
:10164000122803D1586840F480005860144C106888
:10165000A0421CD10868102802D00868112816D1B1
:10166000586840F400005860086810280FD10D48F1
:1016700000680D4CB0FBF4F000EB800040000090DF
:1016800002E00098401E009000980028F9D100BFA9
:10169000002082F83C0000BF00BF4BE70023014060
:1016A000002001400000002040420F0070477047BA
:1016B0007047000070B5044600250CB9012070BDCC
:1016C0001549A06A884200D000BF206C30B90020C4
:1016D000606484F83C00204600F020F8206C00F0A4
:1016E000100088B9206C20F4885040F0020020647B
:1016F0002046FFF753FA00206064206C20F00200BF
:1017000040F00100206400E0012500BF002084F8C3
:101710003C0000BF2846D2E70100000F70470000E0
:10172000F8B504460D4616460020009000BF94F818
:101730003C00012801D10220F8BD012084F83C00C2
:1017400000BF2068806800F00100A0B920688068B0
:1017500040F00100216888603C4800683C49B0FBCB
:10176000F1F000EB4000009002E00098401E009075
:1017700000980028F9D12068806800F00100002856
:1017800062D0206C40F20161884340F48070206494
:101790002068406800F4806028B1206C20F400507C
:1017A00040F480502064206C00F4805020B1606CC4
:1017B00020F00600606401E00020606400BF0020AB
:1017C00084F83C0000BF234F2348A16BC863234823
:1017D000A16B08642248A16BC8646FF022002168E5
:1017E00008602068406840F0806021684860206898
:1017F000806840F4807021688860226802F14C01A2
:1018000033462A46A06B00F031F9786800F01F00DB
:1018100058B92068806800F0405028B92068806876
:1018200040F08040216888600EE00E4920688842C0
:101830000AD12068806800F0405028B9206880688C
:1018400040F0804021688860002075E7000000209B
:1018500040420F0000230140070B00088F0B0008D7
:10186000750B00080020014070B50446002500BF3C
:1018700094F83C00012801D1022070BD012084F8B9
:101880003C0000BF2068806820F00100216888606B
:101890002068806800F00100A8B92068806820F402
:1018A000807021688860A06B00F014F805462068FD
:1018B000406820F0806021684860206C20F48850E7
:1018C00040F00100206400BF002084F83C0000BF0D
:1018D0002846D2E770B50446A56D00F007FA064623
:1018E00094F83500022808D08020606500BF0020F1
:1018F00084F8340000BF012070BD2068006820F02B
:101900001600216808602068406920F08000216886
:101910004861206C08B9A06C28B12068006820F0EC
:101920000800216808602068006820F00100216834
:1019300008600FE000F0DAF9801B05280AD92020A2
:10194000606500BF002084F8340000BF032084F8E5
:101950003500D1E72068006800F001000028E9D1D7
:1019600094F85C103F208840A86000BF002084F8F5
:10197000340000BF012084F835000020BCE70000DF
:101980002DE9F0410446002500F0B0F9074614B9EE
:101990000120BDE8F081606A00B100BF00BF0020F7
:1019A00084F8340000BF022084F835002068006805
:1019B00020F00100216808600AE000F097F9C01BE0
:1019C000052805D920206065032084F83500E0E76C
:1019D0002068006800F001000028EED1206805684A
:1019E00021480540D4E901010843E1680843216921
:1019F000084361690843A1690843E1690843216A12
:101A000008430543606A042803D1D4E90B01084365
:101A10000543206805602068456925F00705606A70
:101A20000543606A04280DD1A06A0543E06A48B105
:101A30002046FFF751FA28B140206065012084F864
:101A40003500A6E7206845612046FFF72BFA0646D9
:101A500094F85C103F208840B06000206065012051
:101A600084F83500002094E73F8010F02DE9F0471E
:101A700004460D4616461F464FF00008D4F858900D
:101A800000BF94F83400012802D10220BDE8F0879D
:101A9000012084F8340000BF94F8350001282BD1D0
:101AA000022084F83500002060653B463246294616
:101AB0002046FFF766FA94F85C103F208840C9F88A
:101AC00008002068006840F016002168086020685F
:101AD000406940F0800021684861206C28B120688E
:101AE000006840F00800216808602068006840F045
:101AF00001002168086006E000BF002084F834007F
:101B000000BF4FF002084046C0E70000F8B50346AA
:101B10000A460025002400200021CDE0012606FA17
:101B200001F5166806EA0504AC4273D15668022E28
:101B300002D05668122E13D1CF0803F1200656F8B2
:101B400027004E07F70E0F26BE40B0434F07FF0E8B
:101B50001669BE403043CF0803F1200646F827003F
:101B600018684F000326BE40B043167906F00306FE
:101B70004F00BE40304318605668012E08D05668AA
:101B8000022E05D05668112E02D05668122E13D19F
:101B900098684F000326BE40B0434F00D668BE4051
:101BA00030439860586801268E40B0431679C6F3DA
:101BB00000168E4030435860D8684F000326BE4060
:101BC000B0434F009668BE403043D860566806F078
:101BD0008056B6F1805F6ED100BF00260096384E69
:101BE000366846F48046364F3E603E46366806F418
:101BF0008046009600BF00BF324E8F0856F827007F
:101C00008E07370F0F26BE40B0432F4EB34202D18E
:101C1000002615E04FE02D4EB34201D101260FE022
:101C20002B4EB34201D102260AE02A4EB34201D123
:101C3000032605E0284EB34201D1042600E0072622
:101C40008F073F0FBE4030431E4E8F0846F82700D7
:101C5000224E3068A043566806F48036B6F5803FC1
:101C600000D120431D4E3060361D3068A0435668B9
:101C700006F40036B6F5003F00D12043174E361D5E
:101C80003060361D3068A043566806F48016B6F5FD
:101C9000801F00D12043114E08363060361D306859
:101CA000A043566806F40016B6F5001F00D1204385
:101CB0000A4E0C363060491C1029FFF42FAFF8BDD6
:101CC000443802400838014000000240000402404D
:101CD00000080240000C024000100240003C01409D
:101CE0000AB1816101E00B0483617047014800681B
:101CF000704700000400002001460020704700BF2C
:101D000000F01F02012191404209920002F1E022FD
:101D1000C2F8001100BF70472DE9F05F80460D4604
:101D20001646002700F0F8FF074639462A46334694
:101D300001F00700C0F1070ABAF1040F02D94FF011
:101D4000040A01E0C0F1070AD14600F1040ABAF121
:101D5000070F02D24FF0000A01E0A0F1030AD446B7
:101D60004FF0010A0AFA09FAAAF1010A0AEA020A7C
:101D70000AFA0CFA4FF0010B0BFA0CFBABF1010B5A
:101D80000BEA030B4AEA0B042146404600F0CCFF65
:101D9000BDE8F09F00BF00F00702064B19684FF640
:101DA000FF031940044B0B4343EA0221014B196026
:101DB00000BF70470CED00E00000FA0570B5044666
:101DC0000D460CB9012070BD5848006800F00F00A6
:101DD000A84209D255490D700846006800F00F006E
:101DE000A84201D00120EEE7207800F0020002288E
:101DF0001DD1207800F00400042805D14C4800686B
:101E000040F4E0504A490860207800F008000828B3
:101E100005D14748006840F460404549086044489F
:101E2000006820F0F000A16808434149086020786C
:101E300000F00100A8B36068012807D13C480838C9
:101E40000068C0F34040B8B90120BCE760680228D0
:101E500002D06068032807D1354808380068C0F30D
:101E6000406048B90120AEE7314808380068C0F347
:101E7000400008B90120A6E72D48006820F00300C3
:101E8000616808432A490860FFF730FF064609E009
:101E9000FFF72CFF801B41F28831884202D90320D2
:101EA00091E707E02248006800F00C006168B0EBA1
:101EB000810FEDD11D48006800F00F00A84209D93C
:101EC0001A490D700846006800F00F00A84201D0C2
:101ED000012078E7207800F00400042807D1144896
:101EE000006820F4E050E168084311490860207858
:101EF00000F00800082808D10D48006820F4604070
:101F0000216940EAC1000A49086000F03DF808492B
:101F10000968C1F30311074A515CC84006490860CB
:101F20000F20FFF7E9FE00204DE70000003C0240D3
:101F300008380240126400080000002001480068D0
:101F4000704700000000002000B5FFF7F7FF0449CC
:101F50000968C1F38221034A515CC84000BD0000FA
:101F6000083802402264000800B5FFF7E7FF044983
:101F70000968C1F34231034A515CC84000BD00000A
:101F800008380240226400082DE9F04700240025AB
:101F90000026A1462548006800F00C0020B1042866
:101FA00005D008283AD105E0DFF8849039E0DFF861
:101FB000809036E01D48001F006800F03F041B4879
:101FC000001F006800F4800078B119481749091F04
:101FD0000968C1F38811A0FB017001462246002365
:101FE0003846FEF7AFF905460EE011480F49091FC4
:101FF0000968C1F38811A0FB017001462246002345
:102000003846FEF79FF905460848001F0068C0F3F0
:102010000140401C4600B5FBF6F902E0DFF81090E5
:1020200000BF00BF4846BDE8F08700000838024006
:102030000024F40038B504460CB9012038BD2078DE
:1020400000F00100002874D0F848006800F00C008F
:1020500004280DD0F548006800F00C00082813D1C2
:10206000F248001F006800F48000B0F5800F0BD12B
:10207000EE4808380068C0F34040002859D0606836
:10208000002856D10120D9E700BF6068B0F5803F35
:1020900008D1E6480838006840F48030E349083940
:1020A00008601EE06068B0F5A02F0DD1DF48083849
:1020B000006840F48020DD4908390860084600685F
:1020C00040F4803008600CE0D8480838006820F4FC
:1020D0008030D649083908600846006820F480201E
:1020E000086000BF606890B1FFF700FE054606E09B
:1020F000FFF7FCFD401B642801D903209EE7CB4875
:1021000008380068C0F340400028F1D011E0FFF724
:10211000EDFD054606E0FFF7E9FD401B642801D907
:1021200003208BE7C14808380068C0F3404000280E
:10213000F1D1207800F0020002285FD1BB4800688E
:1021400000F00C0058B1B948006800F00C000828F5
:102150001CD1B648001F006800F48000B0B9B34835
:1021600008380068C0F3400020B1E068012801D0C1
:10217000012063E7AD480838006820F0F8002169C5
:1021800040EAC100A9490839086037E0E06800B3B7
:102190000120A7490860FFF7A9FD054606E0FFF703
:1021A000A5FD401B022801D9032047E79F480838B6
:1021B0000068C0F340000028F1D09C48083800684F
:1021C00020F0F800216940EAC10098490839086008
:1021D00014E0002096490860FFF788FD054606E0F8
:1021E000FFF784FD401B022801D9032026E78F4812
:1021F00008380068C0F340000028F1D1207800F0D2
:10220000080008282CD16069A8B10120894908601C
:10221000FFF76CFD054606E0FFF768FD401B02284E
:1022200001D903200AE781486C300068C0F3400000
:102230000028F1D014E000207E490860FFF756FD29
:10224000054606E0FFF752FD401B022801D9032096
:10225000F4E676486C300068C0F340000028F1D105
:10226000207800F0040004287FD100BF00200090F7
:102270006E483830006840F080506C493831086052
:102280000846006800F08050009000BF00BF6A4818
:10229000006840F4807068490860FFF727FD054634
:1022A00006E0FFF723FD401B022801D90320C5E605
:1022B0006148006800F480700028F2D000BFA06878
:1022C000012808D159486830006840F0010057499A
:1022D000683108601DE0A06805280DD153486830BA
:1022E000006840F004005149683108600846006801
:1022F00040F0010008600CE04C486830006820F0B5
:1023000001004A49683108600846006820F004006E
:10231000086000BFA068A0B1FFF7E8FC054608E030
:10232000FFF7E4FC401B41F28831884201D90320C9
:1023300084E63E4868300068C0F340000028EFD0D3
:1023400013E0FFF7D3FC054608E0FFF7CFFC401B86
:1023500041F28831884201D903206FE63348683062
:102360000068C0F340000028EFD1A069B8B32F483F
:10237000006800F00C00082860D0A06902283ED157
:1023800000202B490866FFF7B1FC054606E0FFF781
:10239000ADFC401B022801D903204FE62348083832
:1023A0000068C0F340600028F1D1D4E90701084378
:1023B000616A40EA81110122A06AC2EB500041EA41
:1023C00000412C20005D41EA00601849091F0860A7
:1023D000012017490866FFF789FC054607E02FE052
:1023E000FFF784FC401B022801D9032026E60F4892
:1023F00008380068C0F340600028F1D020E00020D9
:102400000B490866FFF772FC054606E0FFF76EFC15
:10241000401B022801D9032010E604480838006850
:10242000C0F340600028F1D10AE007E0083802401C
:1024300000004742800E4742007000400120FDE549
:102440000020FBE510B504460CB9012010BD0220A8
:1024500084F851002068006820F04000216808607E
:10246000204600F05AF80020606584F8510000BF53
:1024700084F8500000BF00BFE8E710B504460CB96F
:10248000012010BD606A00B900BFA06AB0F5005F0E
:1024900000D100BF94F8510028B9002084F8500002
:1024A000204600F03BF8022084F8510020680068C4
:1024B00020F0400021680860D4E901010843E16888
:1024C00008432169084361690843218B01F40071C5
:1024D0000843E1690843216A0843A16A0843216867
:1024E00008600421A06901EA1040616A084321687C
:1024F0004860A06AB0F5005F02D12168E06A086117
:102500002068C06920F400602168C861002060650F
:10251000012084F851000020B3E7704770472DE98F
:10252000F84304460D4617461E464FF00008C146C4
:1025300000BF94F85000012802D10220BDE8F883C2
:10254000012084F8500000BFFFF7D0FB804694F8CC
:102550005100012802D04FF00209C6E005B117B9B9
:102560004FF00109C1E0032084F8510000206065AC
:102570002563A786E786A063A087E0876064206460
:10258000A068B0F5004F05D12068006840F4804095
:1025900021680860A06AB0F5005F0ED100BF206816
:1025A00000684DF6FF7108402168086020680068E7
:1025B00040F400502168086000BF2068006800F007
:1025C0004000402805D02068006840F040002168A5
:1025D0000860E068B0F5006F2AD1606810B1E08E45
:1025E000012806D128882168C860AD1CE08E401EF5
:1025F000E08619E02068806800F00200022807D118
:1026000028882168C860AD1CE08E401EE0860BE083
:102610003EB1701C40B1FFF769FBA0EB0800B0426F
:1026200002D34FF0030960E0E08E0028E2D129E0F8
:10263000606810B1E08E012806D1287821680873FF
:102640006D1CE08E401EE08619E02068806800F076
:102650000200022807D12878216808736D1CE08EDB
:10266000401EE0860BE03EB1701C40B1FFF73EFB20
:10267000A0EB0800B04202D34FF0030935E0E08E32
:102680000028E2D13346012202212046CDF8008005
:1026900000F0BAFB10B14FF0030926E04246314684
:1026A000204600F09DFB20B14FF00109202060651D
:1026B0001BE0A06850B900BF002000902068C068EF
:1026C000009020688068009000BF00BFA06AB0F54D
:1026D000005F05D12068006840F4805021680860E0
:1026E000606D08B14FF0010900BF012084F851006E
:1026F00000BF002084F8500000BF48461EE72DE9C7
:10270000FF5F04460D4616461F46DDF838804FF041
:10271000000A00200390029081464FF0010B0190C7
:1027200000BF94F85000012803D1022004B0BDE896
:10273000F09F012084F8500000BFFFF7D7FA8146D0
:1027400094F851A060680390BAF1010F0BD0039880
:10275000B0F5827F04D1A06810B9BAF1040F02D09D
:102760000220019027E10DB106B117B901200190B7
:1027700021E194F85100012802D1052084F851008C
:1027800000206065A663E787A7872563E786A7869D
:1027900020646064A06AB0F5005F0ED100BF2068BD
:1027A00000684DF6FF7108402168086020680068E5
:1027B00040F400502168086000BF2068006800F005
:1027C0004000402805D02068006840F040002168A3
:1027D0000860E068B0F5006F4FD1606810B1E08E1E
:1027E000012806D128882168C860AD1CE08E401EF3
:1027F000E0863BE0BBF1000F1CD0E08ED0B120683A
:10280000806800F00200022814D128882168C8607E
:10281000AD1CE08E401EE0864FF0000BE08E48B904
:10282000A06AB0F5005F05D12068006840F48050D0
:1028300021680860E08F68B12068806800F00100BE
:1028400040B12068C0683080B61CE08F401EE08731
:102850004FF0010B08F1010040B1FFF747FAA0EB80
:102860000900404502D303200190A4E0E08E002837
:10287000C0D1E08F0028BDD14EE0606810B1E08E7D
:10288000012806D12878216808736D1CE08E401E4F
:10289000E0863BE0BBF1000F1CD0E08ED0B1206899
:1028A000806800F00200022814D115F8010B21689D
:1028B0000873E08E401EE0864FF0000BE08E48B9B2
:1028C000A06AB0F5005F05D12068006840F4805030
:1028D00021680860E08F68B12068806800F001001E
:1028E00040B12068C06806F8010BE08F401EE08709
:1028F0004FF0010B08F1010040B1FFF7F7F9A0EB31
:102900000900404502D30320019054E0E08E0028E6
:10291000C0D1E08F0028BDD1A06AB0F5005F15D10D
:102920004346012211462046CDF8009000F06CFA93
:1029300030B1606D40F002006065032001903AE024
:102940002068C06880B20290BDF8080020688068E6
:1029500000F01000102809D1606D40F002006065A1
:102960004FF6EF70216888600120019043460122F4
:1029700002212046CDF8009000F046FA10B1032065
:10298000019018E04A464146204600F029FA20B15D
:1029900001200190202060650DE0A06850B900BFC3
:1029A000002000902068C068009020688068009037
:1029B00000BF00BF00BF012084F8510000BF00200D
:1029C00084F8500000BF0198B0E6024600BF92F8BC
:1029D0003800012801D102207047012082F8380018
:1029E00000BF022082F839001068406820F07000B3
:1029F00013685860106840680B6818431368586083
:102A00001068806820F08000136898601068806803
:102A10004B68184313689860012082F8390000BFA2
:102A2000002082F8380000BF00BFD5E710B504468B
:102A30000CB9012010BD94F8390028B9002084F8A1
:102A40003800204600F00CF8022084F83900211DDF
:102A5000206800F0EBFA012084F839000020E9E753
:102A600070470146022081F8390000BF0868006AFB
:102A700041F21112104050B90868006A92101040DB
:102A800028B90868006820F001000A68106000BFDB
:102A9000012081F839000020704710B504462068F5
:102AA000C06820F490702168C8602068406920F0F8
:102AB0000100216848612068406900F0400068B169
:102AC0002068406920F0400021684861606B28B1AF
:102AD0000020616B0865606BFEF7FCFE0020E0855E
:102AE000202084F83A00002010BD10B5044620686C
:102AF000C06820F0C0002168C8602068406900F00C
:102B0000800068B12068406920F080002168486139
:102B1000206B28B10020216B0865206BFEF7DAFEE0
:102B20000020E084202084F83900002010BD704788
:102B300010B504460CB9012010BDA06900B100E039
:102B400000BF94F8390028B9002084F838002046E6
:102B500000F027F8242084F839002068C06820F4A9
:102B600000502168C860204600F046FB20680069DC
:102B700020F49040216808612068406920F02A0014
:102B8000216848612068C06840F400502168C8602E
:102B90000020E063202084F8390084F83A00002007
:102BA000CAE7704777B581B00446154694F83A00F5
:102BB000202850D1029800B115B9012004B070BD91
:102BC00000BF94F83800012801D10220F6E7012067
:102BD00084F8380000BF0298A062A5850020E06359
:102BE000222084F83A001D48616BC8631C48616B61
:102BF00008641C48616BC8640020616B086502AE04
:102C000032682368191D2B46606BFEF72FFF00BF4B
:102C100000200090206800680090206840680090C4
:102C200000BF00BF00BF002084F8380000BF20684C
:102C3000C06840F480702168C8602068406940F036
:102C40000100216848612068406940F04000216827
:102C500048610020B2E70220B0E700002D310008F3
:102C600073310008DD30000870477047F7B504463F
:102C7000154694F8390020283DD1019800B10DB9CE
:102C80000120FEBD00BF94F83800012801D10220C8
:102C9000F7E7012084F8380000BF01982062A5847E
:102CA000E5840020E063212084F839001348216B7B
:102CB000C8631348216B08641248216BC864002064
:102CC000216B086501AE23681A1D31682B46206B05
:102CD000FEF7CCFE6FF040002168086000BF0020C6
:102CE00084F8380000BF2068406940F08000216807
:102CF00048610020C5E70220C3E7000081310008D9
:102D0000B7310008DD3000087047704700210846E1
:102D100001F06EFA00BFFEE702480068C0F302202F
:102D2000704700000CED00E010B5002807DA0A0734
:102D3000140E054A00F00F031B1FD45403E00A07CA
:102D4000130E024A135410BD18ED00E000E400E039
:102D500070B504460D460022042102A001F0D0F90E
:102D600070BD0000504F4E470000000070B5044693
:102D70000D4601220F2102A001F0C2F970BD000032
:102D80004E4F5420494D504C454D454E54454400FE
:102D900070B504460D4600220F2102A001F0B0F9E3
:102DA00070BD00004E4F5420494D504C454D454E8E
:102DB0005445440070B504460D460122092105A082
:102DC00001F09EF9192002F055F9022001F038FABD
:102DD00070BD0000504F574552204F46460000003E
:102DE000F8B504460D4616462B46002280212046A3
:102DF000009600F009F828B1606D40F02000606591
:102E00000320F8BD0020FCE72DE9F04104460E4602
:102E100017461D46DDF818803FE0681CE0B32DB171
:102E2000FEF764FFA0EB0800A84236D32068406894
:102E300020F0E000216848606068B0F5827F0DD125
:102E4000A068B0F5004F03D0A068B0F5806F05D141
:102E50002068006820F0400021680860A06AB0F592
:102E6000005F0ED100BF206800684DF6FF7108407A
:102E7000216808602068006840F4005021680860FC
:102E800000BF012084F8510000BF002084F85000EA
:102E900000BF0320BDE8F081FFE720688068304074
:102EA000B04201D1012000E00020B842B5D100209D
:102EB000F0E7000010B500BFB02080F31188BFF329
:102EC0004F8FBFF36F8F00BF03F064F818B14FF05E
:102ED00080500449086000BF002080F3118800BFC3
:102EE00010BD000004ED00E000B593B000BF00206D
:102EF00001902F48006840F080002D490860084686
:102F0000006800F08000019000BF00BF00BF0020FB
:102F1000019027481030006840F08050244910315B
:102F200008600846006800F08050019000BF00BFB4
:102F300000BF002001901F48006820F4404040F48A
:102F400000401C4908600846006800F440400190B9
:102F500000BF00BF012007900004089002200D90E0
:102F600041050E9108210F915021109102211191DC
:102F70000421129107A8FFF75DF818B17D210EA07A
:102F800000F042FB0F2002900220039000200490EA
:102F90004FF48050059000200690022102A8FEF711
:102FA0000DFF18B1892104A000F02EFB13B000BD65
:102FB000303802400070004070726F6A6563745C64
:102FC0006D61696E2E6300001448006840F4700063
:102FD000124908601248006840F00100104908607A
:102FE00000200F49083108600D4800680D4908406D
:102FF0000B4908600C48091D0860081F006820F490
:103000008020091F0860002005490C3108604FF03E
:1030100000600249803908607047000088ED00E0D8
:1030200000380240FFFFF6FE103000240022026844
:10303000234B98420BD0B0F1804F08D0214B9842DF
:1030400005D0214B984202D0204B984201D1012358
:1030500000E000231BB122F070024B681A43184BAA
:10306000984214D0B0F1804F11D0164B98420ED038
:10307000154B98420BD0154B984208D0144B9842F0
:1030800005D0144B984202D0134B984201D1012332
:1030900000E000231BB122F44072CB681A430260A7
:1030A0008B68C3620B688362054B984201D1012390
:1030B00000E000230BB10B690363012343617047F8
:1030C000000001400004004000080040000C0040E7
:1030D00000400140004401400048014070B50646F0
:1030E0000025B46B20684069C0F3C01594F839001E
:1030F000212805D125B10020E084204600F072F897
:1031000020684069C0F3801594F83A00222805D160
:1031100025B10020E085204600F054F8E06B40F037
:103120001000E0632046FFF702FD70BD70B5054654
:10313000AC6B2868006800F48070B0B90020E085AE
:103140002068C06820F480702168C86020684069E9
:1031500020F00100216848612068406920F04000AB
:1031600021684861202084F83A002046FFF77CFD62
:1031700070BD70B50446A56B2846FFF776FD70BD9F
:1031800070B50546AC6B2868006800F4807070B9B3
:103190000020E0842068406920F0800021684861B8
:1031A0002068C06840F040002168C86002E0204606
:1031B000FFF7AAFD70BD70B50446A56B2846FFF762
:1031C000A4FD70BD0168C96821F490710268D160E6
:1031D0000168496921F0010102685161202180F8EC
:1031E0003A1070470168C96821F0C0010268D160D7
:1031F000202180F8391070472DE9F0410446002560
:103200002068056925F44055E0680543206805619C
:103210002068C56849F20C6085432169A0680843AD
:1032200061690843E169084305432068C560206877
:10323000456925F44075A069054320684561E0694A
:10324000B0F5004F7ED1C4492068884203D0C349FD
:10325000206888425DD1FEF787FE00EBC00101EBDC
:10326000001061684900B0FBF1F06421B0FBF1F09F
:103270000601FEF779FE00EBC00101EB001061686A
:103280004900B0FBF1F7FEF76FFE00EBC00101EB68
:10329000001061684900B0FBF1F06421B0FBF1F06F
:1032A00000EBC00101EB0010A7EB8000322101EB25
:1032B000C0006421B0FBF1F000F0F80006EB40061E
:1032C000FEF752FE00EBC00101EB001061684900FF
:1032D000B0FBF1F7FEF748FE00EBC00101EB001078
:1032E00061684900B0FBF1F06421B0FBF1F000EB44
:1032F000C00101EB0010A7EB8000322101EBC00000
:103300006421B0FBF1F000F00700304421688860D0
:1033100020E1FEF719FE00EBC00101EB001061682F
:103320004900B0FBF1F06421B0FBF1F00601FEF7BB
:103330000BFE00EBC00101EB001061684900B0FB1F
:10334000F1F700E045E0FEF7FFFD00EBC00101EB07
:10335000001061684900B0FBF1F06421B0FBF1F0AE
:1033600000EBC00101EB0010A7EB8000322101EB64
:10337000C0006421B0FBF1F000F0F80006EB40065D
:10338000FEF7E2FD00EBC00101EB001061684900AF
:10339000B0FBF1F7FEF7D8FD00EBC00101EB001028
:1033A00061684900B0FBF1F06421B0FBF1F000EB83
:1033B000C00101EB0010A7EB8000322101EBC0003F
:1033C0006421B0FBF1F000F0070030442168886010
:1033D000C0E061492068884203D060492068884283
:1033E0005CD1FEF7C1FD00EBC00101EB001061688C
:1033F0008900B0FBF1F6FEF7B7FD00EBC00101EB71
:10340000001061688900B0FBF1F06421B0FBF1F0BD
:1034100000EBC00101EB0010A6EB8000322101EBB4
:1034200000106421B0FBF1F000F0F006FEF79CFD07
:1034300000EBC00101EB001061688900B0FBF1F006
:103440006421B0FBF1F006EB0016FEF78DFD00EBFA
:10345000C00101EB001061688900B0FBF1F7FEF7D5
:1034600083FD00EBC00101EB001061688900B0FB37
:10347000F1F06421B0FBF1F000EBC00101EB0010B2
:10348000A7EB8000322101EB00106421B0FBF1F0CA
:1034900000F00F003044216888605BE0FEF754FDC7
:1034A00000EBC00101EB001061688900B0FBF1F690
:1034B000FEF74AFD00EBC00101EB001061688900D6
:1034C000B0FBF1F06421B0FBF1F000EBC00101EBC7
:1034D0000010A6EB8000322101EB00106421B0FB4C
:1034E000F1F000F0F006FEF72FFD00EBC00101EB5C
:1034F000001061688900B0FBF1F06421B0FBF1F0CD
:1035000006EB0016FEF720FD00EBC00101EB0010FA
:1035100061688900B0FBF1F7FEF716FD00EBC00112
:1035200001EB001061688900B0FBF1F06421B0FB91
:10353000F1F000EBC00101EB0010A7EB800032219D
:1035400001EB00106421B0FBF1F000F00F003044FB
:1035500021688860BDE8F08100100140001401403E
:1035600008B51D480068006800F04000402818D1E8
:10357000C0431949096808601748FFF7B6FA18B13F
:10358000FF2116A000F040F813480068C06840F022
:10359000400011490968C86000211948006802F01C
:1035A00023FA0D480068006800F01000102811D1BF
:1035B00000BF00200090084800680068009006489E
:1035C00000684068009000BF00BF00210D480068FF
:1035D00001F00AFE08BD0000BC00002070726F6A96
:1035E0006563745C6D6F64756C65735C636F6E733B
:1035F0006F6C655C636F6E736F6C652E63000000AB
:10360000200000201C00002008B50C4600BF0094DC
:103610000021012000F0ECFD00BFFEE730380A2851
:1036200001D2012070470020704738B5002000907B
:1036300000240FE001226946752000F0E9FC9DF8A6
:103640000000712801D1012038BD0A2001F012FDCF
:10365000601C84B20A2CEDDB0020F5E710B50C48A5
:10366000FFF71BFA18B1ED210AA0FFF7CDFF4021AB
:1036700011480068FDF70AF940220F480168044824
:10368000FFF790FA18B1F22102A0FFF7BDFF10BDBD
:10369000BC00002070726F6A6563745C6D6F647546
:1036A0006C65735C636F6E736F6C655C636F6E7378
:1036B0006F6C652E630000000C0000200EB5022028
:1036C0008DF804000020029002F05EFC00900023C0
:1036D0005A1E69460448006802F0C6F84FF0FF31F0
:1036E000012000F019FF0EBD5800002010B5194848
:1036F000FEF7BAF818B1AC2117A0FFF785FF002438
:1037000015E004EBC40101EB04111B4A02EB41007C
:103710003221FDF7BBF804EBC40000EB041016499E
:1037200001EB4000154941F82400601CC4B2042C90
:10373000E7DB4FF461701249096848620F481922AB
:10374000C1680448FDF7ECFF18B1B92102A0FFF7EA
:103750005BFF10BDC408002070726F6A6563745C03
:103760006D6F64756C65735C73686F636B5C7368B5
:103770006F636B2E63000000A8090020700A002010
:103780006C09002000487047B40800203EB504468C
:1037900001208DF80400029402F0F6FB0090002353
:1037A0005A1E69460448006802F05EF84FF0FF3187
:1037B000012000F0B1FE3EBD5800002000487047D7
:1037C000700A00200448C06832300449096849681A
:1037D000A0EB410000887047700A00200C0900200F
:1037E00000B587B000BF002001900F48006840F08E
:1037F00002000D4908600846006800F002000190D0
:1038000000BF00BF012003904FF4407002900020E1
:103810000490059002A90548FEF778F901210220DD
:1038200000F0E6FC07B000BD303802400004024062
:103830001CB5FFF7D5FF012000F002FDFFF754FB98
:103840000320FEF7A7FA0020042103468222CDE9D7
:10385000001031A1334802F0E5FA012803D02F21EE
:1038600031A0FFF7D1FE3448012100234FF402724A
:10387000CDE9001031A1344802F0D4FA012803D078
:10388000362129A0FFF7C0FE002004210346822232
:10389000CDE900102DA1304802F0C4FA012803D070
:1038A0003F2121A0FFF7B0FE0020012103464FF485
:1038B0008272CDE9001029A12B4802F0B3FA012849
:1038C00003D0452118A0FFF79FFE002002210346E8
:1038D0008222CDE9001025A1274802F0A3FA012891
:1038E00003D04B2110A0FFF78FFE00F0BBFC00209F
:1038F000012103468222CDE9001020A1224802F0D6
:1039000091FA012803D0582107A0FFF77DFE01F0AE
:1039100079FD00E000BFFDE7436F6E736F6C654992
:103920006E697400E545000870726F6A6563745CC7
:103930006D61696E2E6300001C000020436F6E7382
:103940006F6C65576F726B00414800084D656D7371
:10395000496E6974000000000D4A00084D656D73E2
:10396000576F726B00000000B54C00084D656D7319
:1039700053796E63000000008D4C00085379737416
:10398000656D53796E6B0000595000081FB500201B
:1039900003908DF8040003A8029002F0F5FA00905D
:1039A00000235A1E69460848006801F05DFF4FF089
:1039B000FF31012000F0B0FD9DF80C0010B1012096
:1039C00004B010BD0020FBE7580000202DE9F041B5
:1039D00005460E461C4807681C480068001D00F09C
:1039E000D5FD50B91948006890F82C100120884086
:1039F00017490968814316480160681C38B936B117
:103A000012480168091D134800F0F4FF1AE07C1900
:103A10000E4800684460BC4207D20C480168091D8A
:103A20000D48006800F0CCFF0CE008480168091D53
:103A30000A48006800F0C4FF09480068844201D2C7
:103A400007480460BDE8F081700000205C000020A1
:103A500074000020340B002064000020600000206F
:103A60008C00002010B5044601F03EFA244800689E
:103A7000401C234908602348006840B9214804607D
:103A80000846006801280DD100F072F90AE01E48CE
:103A9000006838B91B480068C06AE16A884201D8EA
:103AA0001848046019480068401C18490860084616
:103AB0000068606494F82C1001208840144909685B
:103AC000084313490860E16A01EB8101114A02EBE6
:103AD0008100211D00F08EFF01F030FA0A480068D5
:103AE00068B108480068C06AE16A884207D24FF0AE
:103AF000805009490860BFF34F8FBFF36F8F10BD2F
:103B00006C0000205C00002078000020880000206D
:103B100074000020800A002004ED00E010B516E0DB
:103B200001F0E2F90C48C068C468201D00F02EFDC9
:103B30000A480068401E0949086009480068401E9C
:103B40000749086001F0FAF9204600F05EF80448E1
:103B500000680028E4D110BD200B00206C0000207C
:103B60006800002070B504460D46206C70B1216CD1
:103B7000E0680844E0606168E068884201D320683A
:103B8000E0602846226CE168FCF701FE70BD2DE97B
:103B9000F04104460F4615464FF00008A66B206C16
:103BA00040B9206860BB606802F098FA8046002047
:103BB000606025E07DB93946226CA068FCF7E7FD1E
:103BC000216CA0680844A060D4E90110884217D392
:103BD0002068A06014E03946226CE068FCF7D7FD4D
:103BE000216CE068401AE0602168E068884203D2F6
:103BF000216C6068401AE060022D01D106B1761E8A
:103C0000701CA0634046BDE8F08110B50446206BEF
:103C100001F0B2F9204601F0AFF910BD01464A6A41
:103C200022B10A6B1268C2F1050000E00020704763
:103C30000A4A22F007000A4A10600022084B5A6024
:103C400047F2F872074B5A6000221A60014647F2A9
:103C5000F8724A601A460A6070470000500B002054
:103C6000A4000020AC00002000BFFFF757FF06486B
:103C700000680128F9D94FF0805004490860BFF36B
:103C80004F8FBFF36F8FF0E7800A002004ED00E054
:103C90002DE9F04106460D4617469846069C0DB99B
:103CA000246000E02760E66325640121204601F0DE
:103CB0008FFD84F84C80BDE8F0812DE9F05F8246ED
:103CC0000F4690469B460A9E0C9C4FEA8801A5220F
:103CD000206BFCF7D3FDA8F10100216B01EB8009FB
:103CE00029F0070909F0070008B9012000E00020C9
:103CF00050B900BFB02080F31188BFF34F8FBFF3DE
:103D00006F8F00BF00BFFEE7002507E0795D04F17B
:103D100034004155785D00B902E06D1C0F2DF5D3DC
:103D200000BF002142200155052E00D30426E66283
:103D3000E66400202065201D00F03FFE04F118001D
:103D400000F03BFE2461C6F10500A0616462002022
:103D5000606584F858005A465146484600F042F9DA
:103D600020600B9808B10B980460BDE8F09F00003C
:103D700010B5002407E004EB84010F4A02EB810038
:103D800000F00EFE641C052CF5D30C4800F008FE74
:103D90000B4800F005FE0B4800F002FE0A4800F058
:103DA000FFFD0A4800F0FCFD04480949086004488A
:103DB0000849086010BD0000800A0020E40A0020C5
:103DC000F80A00200C0B0020200B0020340B0020F0
:103DD000600000206400002070B5054601F084F802
:103DE000A86B08B9012400E0002401F0A7F82046E0
:103DF00070BD70B5054601F077F8A86BE96B884295
:103E000001D1012400E0002401F098F8204670BDA3
:103E10000A490968096809B9012100E0002121B1B6
:103E20004FF0FF31064A116006E004490968C9688D
:103E3000C868034A416811607047000060000020B4
:103E40008C0000200E480068401C08B9012000E0EA
:103E5000002050B900BFB02080F31188BFF34F8F0E
:103E6000BFF36F8F00BF00BFFEE700BFB02080F33D
:103E70001188BFF34F8FBFF36F8F00BF00BFFEE706
:103E80009800002070B5044601F02EF894F94550D2
:103E900010E0606A08B9012000E0002038B904F1A0
:103EA000240002F0E3F918B101F098F900E003E012
:103EB000681E45B2002DECDC00BFFF2084F84500F1
:103EC00001F03CF801F010F894F9445010E020693A
:103ED00008B9012000E0002048B904F1100002F008
:103EE000C5F908B101F07AF9681E45B200E001E0B9
:103EF000002DECDC00BFFF2084F8440001F01EF828
:103F000070BD00002DE9F04104464FF0000801F0BB
:103F1000BDFA2848006820B9FFF78AFE012025492C
:103F2000086044B1083404F0070020B104F0070031
:103F3000C0F108000444002C32D047F2F8708442EB
:103F40002ED21D4F3846056801E02F462D6868685F
:103F5000A04202D228680028F7D1184885421FD015
:103F6000386800F10808286838606868001B102865
:103F700010D92E196868001B70606C6071680E485B
:103F800000E00068026852688A42FAD30268326030
:103F9000066000BF0A4968680968081A084908608D
:103FA00002F0B0F9B8F1000F01D100F003FB404678
:103FB000BDE8F081B8000020A4000020AC00002083
:103FC000B40000200648006830B10549096801F1D5
:103FD0005000096D491C01600148006870470000ED
:103FE0005C000020001F4FF080730360001F21F071
:103FF00001030360001F054B036014380260001FBB
:104000006FF002030360203870470000453E00084F
:10401000F8B506460C46154600BF2448006880687F
:1040200000F080008028F8D02048C06998B11F486F
:10403000FEF708FA20B14FF4BF711DA0FFF7E4FAB4
:1040400000211A48C161FEF718FA20B140F283112D
:1040500017A0FFF7D9FA691C1C48FCF739FC46F099
:1040600080001A49087000224FF480511848FDF76B
:1040700037FE64200090681C83B2144A11460B4836
:10408000FEF73DFB20B14FF4C77109A0FFF7BCFA62
:10409000012211030E48FDF723FE2CB12A460B49DD
:1040A000491C2046FCF773FBF8BD0000BC01002052
:1040B00070726F6A6563745C6D6F64756C65735C58
:1040C0006D656D735C6D656D732E6300D4020020A9
:1040D0000004024010B5024600200AE012F8103039
:1040E0001B0232F8104003EB242322F81030431C4B
:1040F00098B201EBD174B0EB640FEFDB10BD0000A0
:1041000070B506460C4615464FF0FF31284800684A
:1041100001F07AFD15B9A01C84B201E0601C84B2E4
:104120002448006830B12348006800F025FF0020D3
:10413000204908602046FFF7E5FE1E490860084652
:10414000006828B9002208211BA0FFF7D9FF70BD25
:104150007DB9214617480068FCF798FB53201549A4
:1041600009680870A21E314612480068FCF7D2FAAE
:104170000AE021460F480068FCF788FB621E3146C2
:104180000C480068FCF7C6FA01220EA10948006835
:10419000FCF7C0FA2246074801680B48FEF766FDA7
:1041A00018B1E22109A0FFF72FFA00BFCFE7000006
:1041B00020000020100000204D454D4641554C5434
:1041C000000000000A000000BC00002070726F6A4E
:1041D0006563745C6D6F64756C65735C636F6E733F
:1041E0006F6C655C636F6E736F6C652E63000000AF
:1041F00070B506460C460CB9002502E0012C00D132
:10420000012526B1012E09D0022E15D10DE02A4636
:104210004FF480710948FDF763FD0DE02A464FF425
:1042200000710648FDF75CFD06E02A464FF4407138
:104230000248FDF755FD00BF00BF70BD00040240FD
:1042400070B50546012D01D1012402E0022D00D1F7
:104250000024224608210248FDF742FD70BD0000FF
:104260000004024000B58DB000BF002001909848C6
:10427000006840F00100964908600846006800F0B8
:104280000100019000BF00BF0320099001200890A9
:1042900000200A9003200B9008A98E48FDF736FCF9
:1042A00000BF002001908A481430006840F48070FC
:1042B0008749143108600846006800F48070019056
:1042C00000BF00BF8448854908604FF480304860D3
:1042D000002182488161C160012101620163416165
:1042E0004FF0C06181624FF08051C1620121C16114
:1042F0004162002181600161FDF7DCF918B13021D4
:1043000077A0FFF781F90020049007900120059025
:104310000420069004A97148FDF702F918B13A216A
:104320006FA0FFF771F900BF002001906848006896
:1043300040F48000664908600846006800F4800088
:10434000019000BF00BF6E486E49086000204860C1
:1043500000216C488160C1604FF4806101614900B7
:104360004161890081610021C1614FF40031016226
:1043700000214162FDF704FB18B14A2158A0FFF764
:1043800043F900BF5F485549886308465D49886323
:1043900000BF00200BE000EBC00101EB00115A4A06
:1043A00002EB4101594A42F82010411CC8B20428CE
:1043B000F1DB00BF0020019045481030006840F05C
:1043C00001004349103108600846006800F0010010
:1043D000019000BF00BF08064D49086000214C480D
:1043E0000161816040F2E731C1604F204849486077
:1043F0000846FEF71BFB18B1612139A0FFF704F94D
:104400004348FEF72EFB202002900020039002A9D3
:104410003F48FEF7DAFA3B4800683949483188429C
:1044200004D910203649091F086018E03548006893
:104430003849884204D910203149083908600EE013
:104440003048006833496039884204D91020314926
:10445000B839C86003E010202E49B839886029486F
:10446000006827494831884204D920202449091F7F
:10447000086018E0234800682649884204D92020B3
:104480001F49083908600EE01E480068214960395C
:10449000884204D920201F49B839C86003E0202091
:1044A0001C49B839886000220A213820FDF734FC05
:1044B0003820FDF724FC15481922C1680748FDF78C
:1044C0002FF918B1752106A0FFF79EF80DB000BDB9
:1044D000303802400000024000200140C4080020A3
:1044E00070726F6A6563745C6D6F64756C65735C24
:1044F00073686F636B5C73686F636B2E630000009F
:10450000106402400C090020A8090020700A002055
:104510006C090020B860024070B506460D4600F0F8
:10452000E3FC18480068406D88B901201549096806
:1045300081F858005DB101212846FFF747FA4FF096
:10454000805011490860BFF34F8FBFF36F8F00F0A9
:10455000F5FC00F0C9FC0B480068446D4CB126B175
:10456000002008490968486503E0601E054909689C
:10457000486500200349096881F8580000F0DEFC16
:10458000204670BD5C00002004ED00E001460A6991
:10459000D1E901309860D1E9010358605068884240
:1045A00001D188685060002008611068401E1060CA
:1045B00010687047BA2101A0FFF726F870726F6A81
:1045C0006563745C6D61696E2E630000B42101A0A7
:1045D000FFF71AF870726F6A6563745C6D61696EDB
:1045E0002E63000010B586B0044600BF0020009086
:1045F0007848006840F00100764908600846006885
:1046000000F00100009000BF00BF072005900220CD
:1046100002900C200190012003900320049001A936
:104620006D48FDF773FA00BF002000906948103014
:10463000006840F40030674910310860084600689F
:1046400000F40030009000BF00BF64486449086077
:104650004FF47A304860002161488160C160016197
:104660000C21416100218161C161FEF761FA18B13D
:1046700037215CA0FEF7C8FF00BF0020009055481E
:10468000006840F40010534908600846006800F4D0
:104690000010009000BF00BF5B485C4908604FF00D
:1046A00000604860002159488160C1604FF480611A
:1046B0000161002141618161C16101624162FDF7D7
:1046C0005FF918B1482147A0FEF79EFF00BF4F4891
:1046D0004349486308464D49886300BF4A4818303B
:1046E0004B4908604FF000604860402148488160B5
:1046F0000021C1604FF4806101610021416181614D
:10470000C16101624162FDF73BF918B1592135A041
:10471000FEF77AFF00BF3E483149086308463C492E
:10472000886300BF4020FFF7EDFB3A490860402155
:1047300038480068FCF7AAF86FF04000284909687B
:10474000086000BF002000902548006800680090C5
:10475000234800684068009000BF00BF2048006800
:10476000C06840F050001E490968C86000220E2150
:104770002620FDF7D1FA2620FDF7C1FA4022254870
:1047800001681748FEF70EFA18B16A2115A0FEF766
:104790003BFF03220021012000F0EEFF1E490860CC
:1047A00018B96E210FA0FEF72FFF00231A461946F5
:1047B0001948006801F058F80122232117A0FFF7DB
:1047C0009FFC002000F084FC002000F053FC06B0A9
:1047D00010BD00003038024000000240004400409C
:1047E000BC00002070726F6A6563745C6D6F6475E5
:1047F0006C65735C636F6E736F6C655C636F6E7317
:104800006F6C652E6300000088600240FC00002091
:104810005C0100200C000020200000205448495377
:1048200020495320414C5048412056455253494F4E
:104830004E2053414252452050524F4A4543540066
:104840008AB0002649480068451C00242821684693
:10485000FCF73EF888E04FF0FF310120FFF75CFEE7
:104860004248006800784D2805D10A213F48006879
:10487000FBF746FF10B9FEF7F1FE75E03B48006814
:10488000451C002461E02C212846FBF739FF061E59
:1048900044D10A212846FBF733FF0646641C102C3E
:1048A00003D1992132A0FEF7AFFE711B481CFFF720
:1048B00029FB611E4DF82100721B511C621E5DF820
:1048C0002200FBF7E3FF721B611E5DF82100294601
:1048D000FBF75DFF00271AE0FEF7C0FE2D4A52F8F5
:1048E00027100098FCF71CF830B92B4850F8272007
:1048F0006946204690470FE02649781C51F8200071
:1049000020B90122032125A0FFF7FAFB7F1C2148D3
:1049100050F827000028DFD100BF17E0641C711B8E
:10492000481CFFF7EFFA611E4DF82100721B511C65
:10493000621E5DF82200FBF7A9FF721B611E5DF885
:1049400021002946FBF723FF751C9CE700BF0027C9
:1049500007E05DF8270000F00FFB00204DF827006E
:104960007F1CA742F5DB00BF75E700000C000020AC
:1049700070726F6A6563745C6D6F64756C65735C8F
:10498000636F6E736F6C655C636F6E736F6C652EB7
:104990006300000024000020400000203430340078
:1049A00000F1080141604FF0FF31816000F1080122
:1049B000C160016100210160704700210161704701
:1049C00010B502460B685C1C0CB9106907E002F1D7
:1049D000080000E04068446824689C42FAD94468B2
:1049E0004C604C68A160886041600A611468641C76
:1049F000146010BD42684A6093688B609368596088
:104A00009160086103685B1C0360704710B586B055
:104A1000044600BF002000908948006840F0020072
:104A2000874908600846006800F00200009000BF57
:104A300000BF00BF002000900846006840F0010061
:104A400008600846006800F00100009000BF00BF49
:104A500005200590022002904FF460400190002054
:104A600003900320049001A97648FDF74FF8012038
:104A700002900003019001A97248FDF747F8012256
:104A800011037048FDF72CF96F4802904FF48070C5
:104A9000019001A96D48FDF739F80120029040020C
:104AA000019001A96948FDF731F800224FF4007127
:104AB0006648FDF715F900BF0020009060481030EF
:104AC000006840F480405E49103108600846006884
:104AD00000F48040009000BF00BF5D485D49086061
:104AE00028215C48C161012141610221016100214D
:104AF00081620721C1620021C160816001624FF4BF
:104B00008270544948604FF400715248816100211D
:104B10004162FDF7B2FC18B178214FA0FEF774FD99
:104B200000BF002000904648006840F4001044494F
:104B300008600846006800F40010009000BF00BF45
:104B40004C484D4908600020486000214A48816077
:104B5000C1604FF480610161002141618161C161E7
:104B60004FF40031016200214162FCF709FF18B1E6
:104B70008A2139A0FEF748FD00BF3F483549C86487
:104B800008463D49886300BF00BF002000902C48C4
:104B9000006840F400102A4908600846006800F4E4
:104BA0000010009000BF00BF324818303349086041
:104BB000002048604021314881600021C1604FF4ED
:104BC00080610161002141618161C1614FF4003167
:104BD000016200214162FCF7D3FE18B19B211EA0A7
:104BE000FEF712FD00BF25481A498864084623498C
:104BF000886300BF00200BE0C0EB001101EB8101D6
:104C00001F4A02EB81011F4A42F82010411CC8B222
:104C10000428F1DB00220C21012000F0ADFD1A492F
:104C200008600846006818B9A9210BA0FEF7ECFC43
:104C3000002000F04DFA002000F01CFA06B010BD74
:104C40003038024000040240000011100000024011
:104C500000380040BC01002070726F6A6563745CAC
:104C60006D6F64756C65735C6D656D735C6D656DA2
:104C7000732E63005860024014020020740200206A
:104C800002040020B4080020580000200DE001229A
:104C900011030648FDF724F800224FF40071044880
:104CA000FDF71EF8012000F0E5F9F0E700040240EE
:104CB0000000024088B0642000F0DCF901221021DD
:104CC0006BA0FFF71DFAFEF7B0FC30B901221F21DF
:104CD0006CA0FFF715FA00BFFEE780216B2000F003
:104CE0003FFC642000F0C6F901216B2000F038FC85
:104CF00000216C2000F034FCC82000F0BBF9FEF766
:104D000094FC30B901221E2166A0FFF7F9F900BF1B
:104D1000FEE715216A2000F023FC42211A2000F052
:104D20001FFC00211B2000F01BFC02211D2000F0B5
:104D300017FC0121382000F013FC40216A2000F00C
:104D40000FFC7821232000F00BFC012217215DA02D
:104D5000FFF7D6F900200790604805680020009012
:104D600001900290039082E00A2204A95C48006846
:104D700000F0AAFE012850D19DF8140020B10128AE
:104D800007D0022842D11FE0FEF74FFC06990870B9
:104D90003CE0FEF74AFC00B938E00E2269463B20B1
:104DA000FFF736F90E216846FFF794F90099069847
:104DB0000160BDF80410818002990698C0F80610C1
:104DC000BDF80C10418121E0002416E0C4EB041072
:104DD00000EB8000434901EB8000404941F824008A
:104DE000C4EB041101EB81013E4A02EB81004FF458
:104DF0009671FBF74BFD601CC4B2042CE6DB4FF44C
:104E0000967200217420FFF703F900BF00BF002352
:104E100002221946049801F035F8022207A97220EF
:104E2000FFF7F6F8022107A8FFF754F9BDF81C00B8
:104E3000B0F5967F1BDBBDF81C00B0F5007F16DCDB
:104E400026484FF49672C1687420FFF7E1F82348B2
:104E50000568002007E0214A411C52F8211042F861
:104E60002010411CC8B20328F5DB1C48C5607BE755
:104E700074727920746F207365747570206D70750D
:104E8000000000006D7075206E6F742061636365B3
:104E9000737361626C65206265666F72652072650E
:104EA000736574006D7075206E6F74206163636547
:104EB000737361626C6520616674657220726573DC
:104EC000657400006D656D732073657474696E6739
:104ED0007320736574757020656E6400B4080020DB
:104EE000580000200204002000BFB02080F3118889
:104EF000BFF34F8FBFF36F8F00BF0E480068401C99
:104F00000C49086008460068012812D10A48006868
:104F1000C0B208B9012000E0002050B900BFB020A5
:104F200080F31188BFF34F8FBFF36F8F00BF00BFB7
:104F3000FEE770479800002004ED00E00D4800688F
:104F400050B900BFB02080F31188BFF34F8FBFF37B
:104F50006F8F00BF00BFFEE706480068401E05498E
:104F600008600846006820B9002080F3118800BF5F
:104F700000BF70479800002070B506463546B6B1B0
:104F8000083D2C4600F082FA6168094800E000689C
:104F9000026852688A42FAD30268226004600549B6
:104FA0006068096808440349086001F0ABF970BD06
:104FB000A4000020B400002000204FF0E021086190
:104FC0008861064800684FF47A71B0FBF1F0401E2A
:104FD0004FF0E02148610720086170470000002081
:104FE00070B5FBF78BF90446102C16D304F1E020C2
:104FF00090F8F05315480078854201DB012000E06D
:10500000002050B900BFB02080F31188BFF34F8F4C
:10501000BFF36F8F00BF00BFFEE70D48006800F4CC
:10502000E0600C490968884201D8012000E00020B6
:1050300050B900BFB02080F31188BFF34F8FBFF38A
:105040006F8F00BF00BFFEE770BD00009C00002016
:105050000CED00E0A000002010B50446FEF746FB72
:10506000FEF72CFB002000F033F8002000F002F8DF
:1050700010BD000070B504460025D4B11248006888
:1050800008B9012000E0002050B900BFB02080F333
:105090001188BFF34F8FBFF36F8F00BF00BFFEE7D4
:1050A00000F0F4F900212046FEF790FC01F02AF907
:1050B00005463DB94FF0805004490860BFF34F8F5B
:1050C000BFF36F8F70BD00009400002004ED00E07E
:1050D00070B50546FFF708FF15B93048006800E0D5
:1050E00028460446201DFFF751FA78B9E06A00EB24
:1050F00080002B4951F8200040B994F82C10012071
:10510000884028490968814326480160A06A18B18F
:1051100004F11800FFF73AFA23480068401C2249BE
:1051200008601E480068844209D1211D1F48FFF70E
:1051300061FC1F480068401C1D49086009E01D48CB
:105140000068401E1B4908602046FEF75EFDFEF722
:105150005FFEFFF7F3FE18480068E8B10F480068EB
:10516000844219D11548006808B9012000E00020E8
:1051700050B900BFB02080F31188BFF34F8FBFF349
:105180006F8F00BF00BFFEE74FF080500C490860F2
:10519000BFF34F8FBFF36F8F70BD00005C00002026
:1051A000800A00207400002088000020200B0020CE
:1051B000680000206C00002078000020940000208F
:1051C00004ED00E003490968016003490968416092
:1051D0007047000084000020700000200120014979
:1051E00008607047800000202DE9F04105460F4619
:1051F00055B900BFB02080F31188BFF34F8FBFF3C4
:105200006F8F00BF00BFFEE7FFF7EAFE2C4600BF2E
:10521000B021EFF3118081F31188BFF34F8FBFF3FB
:105220006F8F00BF064694F85880022084F858001B
:10523000606D401C6065B8F1010F3BD1A06A08B9F0
:10524000012000E0002050B900BFB02080F3118899
:10525000BFF34F8FBFF36F8F00BF00BFFEE718484B
:105260000068A8B9201DFFF791F994F82C100120CF
:10527000884014490968084312490860E16A01EB53
:105280008101114A02EB8100211DFFF7B3FB04E00D
:1052900004F118010D48FFF7ADFB0D49E06A0968FC
:1052A000C96A884206D917B10120386002E001209E
:1052B0000849086000BF86F3118800BFBDE8F0818F
:1052C0009400002074000020800A00200C0B0020B5
:1052D0005C0000208000002070B504460D4654B9E3
:1052E00000BFB02080F31188BFF34F8FBFF36F8FE3
:1052F00000BF00BFFEE70548016818312046FFF7F0
:105300005FFB01212846FEF761FB70BD5C000020B9
:105310002DE9F04706460F4634464FF00109002EAE
:1053200067D0206D50B900BFB02080F31188BFF363
:105330004F8FBFF36F8F00BF00BFFEE7E06CB84236
:1053400001D23D4600E0E56CE06AA84251D0206DF4
:1053500001284ED128480068844201D0012000E095
:10536000002050B900BFB02080F31188BFF34F8FE9
:10537000BFF36F8F00BF00BFFEE7D4F82C80E5625B
:10538000A06900F0004010B9C5F10500A06108EB6C
:1053900088011A4A02EB81016069884201D101202B
:1053A00000E0002028B3201DFFF7F0F878B9E06A8C
:1053B00000EB8000114951F8200040B994F82C10FE
:1053C000012088400E49096881430D48016094F826
:1053D0002C10012088400A490968084308490860E0
:1053E000E16A01EB8101054A02EB8100211DFFF713
:1053F00001FBBDE8F08700005C000020800A00206F
:10540000740000201CB51A4800210B468222CDE909
:10541000001018A1194800F005FD0446012C15D113
:1054200000BFB02080F31188BFF34F8FBFF36F8FA1
:1054300000BF4FF0FF301249086001201149086099
:1054400000201149086000F0E3F810E0601C08B18A
:10545000012000E0002050B900BFB02080F3118887
:10546000BFF34F8FBFF36F8F00BF00BFFEE71CBDC0
:105470009000002049444C4500000000693C0008B1
:105480008C00002078000020700000200248006896
:10549000401C0149086070479400002070B52B48FB
:1054A000006818B101202A4908604DE00020284911
:1054B000086028480068046B4FF0A5352068B0F1FB
:1054C000A53F0BD16068B0F1A53F07D1A068B0F14E
:1054D000A53F03D1E068B0F1A53F05D01D480168A4
:1054E00034310068FFF772F81B480068B0FA80F0AA
:1054F000C0F11F0101EB8100184A52F8200008B1E9
:10550000012000E0002050B900BFB02080F31188D6
:10551000BFF34F8FBFF36F8F00BF00BFFEE701EBFC
:1055200081020E4B03EB820042685268426000F138
:1055300008024368934202D142685268426042685E
:10554000D268044B1A6000BF70BD000094000020B8
:10555000800000205C00002074000020800A0020F1
:1055600070B504460D4600BF1F480068806800F013
:1055700080008028F8D01C48C069282813D01A4819
:10558000FCF760FF20B140F25D1118A0FEF73CF877
:1055900028211548C161FCF770FF20B14FF4B171AB
:1055A00012A0FEF731F8FF2202211748FBF766F937
:1055B00015480470457000224FF480511348FCF7E1
:1055C0008FFB6423022210490748FCF7A8FF20B193
:1055D0004FF4B77105A0FEF717F8012211030B482D
:1055E000FCF77EFB70BD0000BC01002070726F6A8A
:1055F0006563745C6D6F64756C65735C6D656D730C
:105600005C6D656D732E6300D402002000040240BF
:105610001CB5524800685249884201D0012000E080
:10562000002050B900BFB02080F31188BFF34F8F26
:10563000BFF36F8F00BF00BFFEE7484800684849CE
:10564000491E884201D0012000E0002050B900BF6F
:10565000B02080F31188BFF34F8FBFF36F8F00BF6F
:1056600000BFFEE73F49084600780190FF200A4648
:1056700010700846007800909DF8000000F0F000DF
:105680009DF80020904201D1012000E0002050B997
:1056900000BFB02080F31188BFF34F8FBFF36F8F2F
:1056A00000BF00BFFEE79DF8000000F0B0002E4AEA
:1056B000107007202D4A106009E02C480068401E39
:1056C0002A4A10609DF800004006000E00909DF8E8
:1056D000000000F080008028EFD024480068C0F16E
:1056E0000700042801D1012000E0002050B900BFCC
:1056F000B02080F31188BFF34F8FBFF36F8F00BFCF
:1057000000BFFEE7194800680002184A1060104602
:10571000008800F4E0601060124A019810700F4891
:105720002030006840F470000C49203108600846C1
:10573000006840F070400860FFF73EFC00200C4914
:105740000860FAF7A3FD0B48006840F040400949A3
:105750000860FAF787FD00201CBD000000ED00E0A6
:1057600071C20F4100E400E09C000020A000002076
:105770009800002034EF00E02DE9F84305460E467E
:1057800090460DB1012000E0002050B900BFB020CC
:1057900080F31188BFF34F8FBFF36F8F00BF00BF3F
:1057A000FEE70EB9002701E005FB06F707F1500000
:1057B000FEF7A8FB044644B104F1500943464A46AB
:1057C000314628460094FEF763FA2046BDE8F88388
:1057D00070B505460E462C4654B900BFB02080F384
:1057E0001188BFF34F8FBFF36F8F00BF00BFFEE77D
:1057F000FFF77AFBD4E90F12206801FB020060601A
:105800000020A0632068A060E06B401E226C21682D
:1058100000FB0210E060FF2084F8440084F845009B
:105820009EB9206908B9012000E00020A8B904F160
:10583000100000F01BFD80B14FF080500949086056
:10584000BFF34F8FBFF36F8F07E004F11000FFF736
:10585000A7F804F12400FFF7A3F8FFF76FFB01207E
:1058600070BD000004ED00E02DE9FF4383B0064663
:1058700088461D464FF00009344654B900BFB02099
:1058800080F31188BFF34F8FBFF36F8F00BF00BF4E
:10589000FEE7B8F1000F01D1206C08B9012000E04B
:1058A000002050B900BFB02080F31188BFF34F8FA4
:1058B000BFF36F8F00BF00BFFEE7022D02D1E06B88
:1058C000012801D1012000E0002050B900BFB02024
:1058D00080F31188BFF34F8FBFF36F8F00BF00BFFE
:1058E000FEE700BFFFF700FBA06BE16B884201D32E
:1058F000022D28D12A4641462046FEF748F90746A0
:10590000606A08B9012000E0002068B904F12400B1
:1059100000F0ACFC88B14FF0805032490860BFF312
:105920004F8FBFF36F8F08E03FB14FF080502D498C
:105930000860BFF34F8FBFF36F8FFFF7FFFA0120AF
:1059400007B0BDE8F083059818B9FFF7F7FA002013
:10595000F6E7B9F1000F04D101A8FFF733FC4FF0CF
:105960000109FFF7EBFAFFF791FDFFF7BDFA94F994
:105970004400401C10B9002084F8440094F945000C
:10598000401C10B9002084F84500FFF7D7FA05A99C
:1059900001A800F001FAF0B92046FEF72AFAA0B1FA
:1059A00004F110000599FFF797FC2046FEF76AFA0C
:1059B00000F0A8FC002895D14FF0805009490860FC
:1059C000BFF34F8FBFF36F8F8CE72046FEF75AFA75
:1059D00000F098FC86E72046FEF754FA00F092FCAF
:1059E0000020ADE704ED00E02DE9F04706460F4644
:1059F000344654B900BFB02080F31188BFF34F8FF5
:105A0000BFF36F8F00BF00BFFEE7206C08B9012015
:105A100000E0002050B900BFB02080F31188BFF330
:105A20004F8FBFF36F8F00BF00BFFEE7206808B93C
:105A3000606808B9012000E0002050B900BFB02024
:105A400080F31188BFF34F8FBFF36F8F00BF00BF8C
:105A5000FEE7FFF7C5FA00BFB021EFF3118081F335
:105A60001188BFF34F8FBFF36F8F00BF0546D4F887
:105A70003890E06B48451ED994F945A009F1010022
:105A8000A0630AF1010070B9606A08B9012000E062
:105A9000002068B904F1240000F0E8FB40B13FB1F8
:105AA0000120386004E00AF1010040B284F84500AA
:105AB0004FF0010801E04FF0000800BF85F31188A6
:105AC00000BF4046BDE8F0872DE9F74183B00546A9
:105AD0000E464FF000082C4654B900BFB02080F3AA
